{
  "contractName": "CustomFactory",
  "abi": [
    {
      "anonymous": false,
      "inputs": [
        {
          "indexed": false,
          "internalType": "address",
          "name": "customTokenAddress",
          "type": "address"
        }
      ],
      "name": "NewCustomToken",
      "type": "event"
    },
    {
      "inputs": [
        {
          "internalType": "string",
          "name": "_name",
          "type": "string"
        },
        {
          "internalType": "string",
          "name": "_symbol",
          "type": "string"
        },
        {
          "internalType": "address",
          "name": "_owner",
          "type": "address"
        },
        {
          "internalType": "address",
          "name": "_delegate",
          "type": "address"
        },
        {
          "internalType": "address",
          "name": "_pablockTokenAddress",
          "type": "address"
        }
      ],
      "name": "createNewCustomToken",
      "outputs": [],
      "stateMutability": "nonpayable",
      "type": "function"
    },
    {
      "inputs": [],
      "name": "getVersion",
      "outputs": [
        {
          "internalType": "string",
          "name": "",
          "type": "string"
        }
      ],
      "stateMutability": "view",
      "type": "function"
    }
  ],
  "bytecode": "0x608060405234801561001057600080fd5b50612d7d806100206000396000f3fe60806040523480156200001157600080fd5b50600436106200003a5760003560e01c80630d8e6e2c146200003f578063e2fd02fa1462000061575b600080fd5b6200004962000081565b604051620000589190620001da565b60405180910390f35b6200007f6004803603810190620000799190620003c8565b620000a2565b005b606060405180606001604052806022815260200162002d2660229139905090565b60008585858585604051620000b79062000128565b620000c79594939291906200049f565b604051809103906000f080158015620000e4573d6000803e3d6000fd5b5090507f84de0f8655d2dedd859f8bcbb2c3db5e65c66956d99f95ed7f72f609f39c5430816040516200011891906200050a565b60405180910390a1505050505050565b6127fe806200052883390190565b600081519050919050565b600082825260208201905092915050565b60005b838110156200017257808201518184015260208101905062000155565b8381111562000182576000848401525b50505050565b6000601f19601f8301169050919050565b6000620001a68262000136565b620001b2818562000141565b9350620001c481856020860162000152565b620001cf8162000188565b840191505092915050565b60006020820190508181036000830152620001f6818462000199565b905092915050565b6000604051905090565b600080fd5b600080fd5b600080fd5b600080fd5b7f4e487b7100000000000000000000000000000000000000000000000000000000600052604160045260246000fd5b620002568262000188565b810181811067ffffffffffffffff821117156200027857620002776200021c565b5b80604052505050565b60006200028d620001fe565b90506200029b82826200024b565b919050565b600067ffffffffffffffff821115620002be57620002bd6200021c565b5b620002c98262000188565b9050602081019050919050565b82818337600083830152505050565b6000620002fc620002f684620002a0565b62000281565b9050828152602081018484840111156200031b576200031a62000217565b5b62000328848285620002d6565b509392505050565b600082601f83011262000348576200034762000212565b5b81356200035a848260208601620002e5565b91505092915050565b600073ffffffffffffffffffffffffffffffffffffffff82169050919050565b6000620003908262000363565b9050919050565b620003a28162000383565b8114620003ae57600080fd5b50565b600081359050620003c28162000397565b92915050565b600080600080600060a08688031215620003e757620003e662000208565b5b600086013567ffffffffffffffff8111156200040857620004076200020d565b5b620004168882890162000330565b955050602086013567ffffffffffffffff8111156200043a57620004396200020d565b5b620004488882890162000330565b94505060406200045b88828901620003b1565b93505060606200046e88828901620003b1565b92505060806200048188828901620003b1565b9150509295509295909350565b620004998162000383565b82525050565b600060a0820190508181036000830152620004bb818862000199565b90508181036020830152620004d1818762000199565b9050620004e260408301866200048e565b620004f160608301856200048e565b6200050060808301846200048e565b9695505050505050565b60006020820190506200052160008301846200048e565b9291505056fe608060405260fd60065560126007553480156200001b57600080fd5b50604051620027fe380380620027fe8339818101604052810190620000419190620004d7565b848481600390805190602001906200005b92919062000225565b5080600490805190602001906200007492919062000225565b50505082600560006101000a81548173ffffffffffffffffffffffffffffffffffffffff021916908373ffffffffffffffffffffffffffffffffffffffff1602179055506001600960008473ffffffffffffffffffffffffffffffffffffffff1673ffffffffffffffffffffffffffffffffffffffff16815260200190815260200160002060006101000a81548160ff0219169083151502179055506001600960003373ffffffffffffffffffffffffffffffffffffffff1673ffffffffffffffffffffffffffffffffffffffff16815260200190815260200160002060006101000a81548160ff02191690831515021790555080600860006101000a81548173ffffffffffffffffffffffffffffffffffffffff021916908373ffffffffffffffffffffffffffffffffffffffff1602179055508073ffffffffffffffffffffffffffffffffffffffff1663fc83158186306040518363ffffffff1660e01b8152600401620001e69291906200065b565b600060405180830381600087803b1580156200020157600080fd5b505af115801562000216573d6000803e3d6000fd5b50505050505050505062000709565b8280546200023390620006d3565b90600052602060002090601f016020900481019282620002575760008555620002a3565b82601f106200027257805160ff1916838001178555620002a3565b82800160010185558215620002a3579182015b82811115620002a257825182559160200191906001019062000285565b5b509050620002b29190620002b6565b5090565b5b80821115620002d1576000816000905550600101620002b7565b5090565b6000604051905090565b600080fd5b600080fd5b600080fd5b600080fd5b6000601f19601f8301169050919050565b7f4e487b7100000000000000000000000000000000000000000000000000000000600052604160045260246000fd5b6200033e82620002f3565b810181811067ffffffffffffffff8211171562000360576200035f62000304565b5b80604052505050565b600062000375620002d5565b905062000383828262000333565b919050565b600067ffffffffffffffff821115620003a657620003a562000304565b5b620003b182620002f3565b9050602081019050919050565b60005b83811015620003de578082015181840152602081019050620003c1565b83811115620003ee576000848401525b50505050565b60006200040b620004058462000388565b62000369565b9050828152602081018484840111156200042a5762000429620002ee565b5b62000437848285620003be565b509392505050565b600082601f830112620004575762000456620002e9565b5b815162000469848260208601620003f4565b91505092915050565b600073ffffffffffffffffffffffffffffffffffffffff82169050919050565b60006200049f8262000472565b9050919050565b620004b18162000492565b8114620004bd57600080fd5b50565b600081519050620004d181620004a6565b92915050565b600080600080600060a08688031215620004f657620004f5620002df565b5b600086015167ffffffffffffffff811115620005175762000516620002e4565b5b62000525888289016200043f565b955050602086015167ffffffffffffffff811115620005495762000548620002e4565b5b62000557888289016200043f565b94505060406200056a88828901620004c0565b93505060606200057d88828901620004c0565b92505060806200059088828901620004c0565b9150509295509295909350565b600081519050919050565b600082825260208201905092915050565b6000620005c6826200059d565b620005d28185620005a8565b9350620005e4818560208601620003be565b620005ef81620002f3565b840191505092915050565b7f302e312e30000000000000000000000000000000000000000000000000000000600082015250565b600062000632600583620005a8565b91506200063f82620005fa565b602082019050919050565b620006558162000492565b82525050565b60006060820190508181036000830152620006778185620005b9565b905081810360208301526200068c8162000623565b90506200069d60408301846200064a565b9392505050565b7f4e487b7100000000000000000000000000000000000000000000000000000000600052602260045260246000fd5b60006002820490506001821680620006ec57607f821691505b60208210811415620007035762000702620006a4565b5b50919050565b6120e580620007196000396000f3fe608060405234801561001057600080fd5b50600436106101165760003560e01c806370a08231116100a2578063a9059cbb11610071578063a9059cbb146102f5578063ab64027f14610325578063c4d66de814610355578063dd62ed3e14610371578063e71bdf41146103a157610116565b806370a082311461025b57806395d89b411461028b578063a457c2d7146102a9578063a6f9dae1146102d957610116565b806323b872dd116100e957806323b872dd146101a5578063313ce567146101d557806339509351146101f357806340c10f191461022357806367e7646f1461023f57610116565b806306fdde031461011b578063095ea7b3146101395780630d8e6e2c1461016957806318160ddd14610187575b600080fd5b6101236103bd565b6040516101309190611597565b60405180910390f35b610153600480360381019061014e9190611652565b61044f565b60405161016091906116ad565b60405180910390f35b61017161046d565b60405161017e9190611597565b60405180910390f35b61018f6104aa565b60405161019c91906116d7565b60405180910390f35b6101bf60048036038101906101ba91906116f2565b6104b4565b6040516101cc91906116ad565b60405180910390f35b6101dd6105cf565b6040516101ea9190611761565b60405180910390f35b61020d60048036038101906102089190611652565b6105d8565b60405161021a91906116ad565b60405180910390f35b61023d60048036038101906102389190611652565b610684565b005b6102596004803603810190610254919061177c565b610737565b005b6102756004803603810190610270919061177c565b61081e565b60405161028291906116d7565b60405180910390f35b610293610866565b6040516102a09190611597565b60405180910390f35b6102c360048036038101906102be9190611652565b6108f8565b6040516102d091906116ad565b60405180910390f35b6102f360048036038101906102ee919061177c565b6109e3565b005b61030f600480360381019061030a9190611652565b610ab7565b60405161031c91906116ad565b60405180910390f35b61033f600480360381019061033a919061177c565b610ad5565b60405161034c91906116ad565b60405180910390f35b61036f600480360381019061036a919061177c565b610b2b565b005b61038b600480360381019061038691906117a9565b610bfb565b60405161039891906116d7565b60405180910390f35b6103bb60048036038101906103b6919061177c565b610c82565b005b6060600380546103cc90611818565b80601f01602080910402602001604051908101604052809291908181526020018280546103f890611818565b80156104455780601f1061041a57610100808354040283529160200191610445565b820191906000526020600020905b81548152906001019060200180831161042857829003601f168201915b5050505050905090565b600061046361045c610d69565b8484610d71565b6001905092915050565b60606040518060400160405280601981526020017f437573746f6d546f6b656e2076657273696f6e20302e312e3000000000000000815250905090565b6000600254905090565b6000600960003373ffffffffffffffffffffffffffffffffffffffff1673ffffffffffffffffffffffffffffffffffffffff16815260200190815260200160002060009054906101000a900460ff16610542576040517f08c379a000000000000000000000000000000000000000000000000000000000815260040161053990611896565b60405180910390fd5b600073ffffffffffffffffffffffffffffffffffffffff168373ffffffffffffffffffffffffffffffffffffffff16141561059f5761059a84600754600a61058a9190611a18565b846105959190611a63565b610f3c565b6105c4565b6105c38484600754600a6105b39190611a18565b856105be9190611a63565b611113565b5b600190509392505050565b60006012905090565b600061067a6105e5610d69565b8484600160006105f3610d69565b73ffffffffffffffffffffffffffffffffffffffff1673ffffffffffffffffffffffffffffffffffffffff16815260200190815260200160002060008873ffffffffffffffffffffffffffffffffffffffff1673ffffffffffffffffffffffffffffffffffffffff168152602001908152602001600020546106759190611abd565b610d71565b6001905092915050565b600960003373ffffffffffffffffffffffffffffffffffffffff1673ffffffffffffffffffffffffffffffffffffffff16815260200190815260200160002060009054906101000a900460ff16610710576040517f08c379a000000000000000000000000000000000000000000000000000000000815260040161070790611896565b60405180910390fd5b61073382600754600a6107239190611a18565b8361072e9190611a63565b611394565b5050565b600960003373ffffffffffffffffffffffffffffffffffffffff1673ffffffffffffffffffffffffffffffffffffffff16815260200190815260200160002060009054906101000a900460ff166107c3576040517f08c379a00000000000000000000000000000000000000000000000000000000081526004016107ba90611896565b60405180910390fd5b6000600960008373ffffffffffffffffffffffffffffffffffffffff1673ffffffffffffffffffffffffffffffffffffffff16815260200190815260200160002060006101000a81548160ff02191690831515021790555050565b60008060008373ffffffffffffffffffffffffffffffffffffffff1673ffffffffffffffffffffffffffffffffffffffff168152602001908152602001600020549050919050565b60606004805461087590611818565b80601f01602080910402602001604051908101604052809291908181526020018280546108a190611818565b80156108ee5780601f106108c3576101008083540402835291602001916108ee565b820191906000526020600020905b8154815290600101906020018083116108d157829003601f168201915b5050505050905090565b60008060016000610907610d69565b73ffffffffffffffffffffffffffffffffffffffff1673ffffffffffffffffffffffffffffffffffffffff16815260200190815260200160002060008573ffffffffffffffffffffffffffffffffffffffff1673ffffffffffffffffffffffffffffffffffffffff168152602001908152602001600020549050828110156109c4576040517f08c379a00000000000000000000000000000000000000000000000000000000081526004016109bb90611b85565b60405180910390fd5b6109d86109cf610d69565b85858403610d71565b600191505092915050565b3373ffffffffffffffffffffffffffffffffffffffff16600560009054906101000a900473ffffffffffffffffffffffffffffffffffffffff1673ffffffffffffffffffffffffffffffffffffffff1614610a73576040517f08c379a0000000000000000000000000000000000000000000000000000000008152600401610a6a90611bf1565b60405180910390fd5b80600560006101000a81548173ffffffffffffffffffffffffffffffffffffffff021916908373ffffffffffffffffffffffffffffffffffffffff16021790555050565b6000610acb610ac4610d69565b8484611113565b6001905092915050565b6000600960008373ffffffffffffffffffffffffffffffffffffffff1673ffffffffffffffffffffffffffffffffffffffff16815260200190815260200160002060009054906101000a900460ff169050919050565b600960003373ffffffffffffffffffffffffffffffffffffffff1673ffffffffffffffffffffffffffffffffffffffff16815260200190815260200160002060009054906101000a900460ff16610bb7576040517f08c379a0000000000000000000000000000000000000000000000000000000008152600401610bae90611896565b60405180910390fd5b80600860006101000a81548173ffffffffffffffffffffffffffffffffffffffff021916908373ffffffffffffffffffffffffffffffffffffffff16021790555050565b6000600160008473ffffffffffffffffffffffffffffffffffffffff1673ffffffffffffffffffffffffffffffffffffffff16815260200190815260200160002060008373ffffffffffffffffffffffffffffffffffffffff1673ffffffffffffffffffffffffffffffffffffffff16815260200190815260200160002054905092915050565b600960003373ffffffffffffffffffffffffffffffffffffffff1673ffffffffffffffffffffffffffffffffffffffff16815260200190815260200160002060009054906101000a900460ff16610d0e576040517f08c379a0000000000000000000000000000000000000000000000000000000008152600401610d0590611896565b60405180910390fd5b6001600960008373ffffffffffffffffffffffffffffffffffffffff1673ffffffffffffffffffffffffffffffffffffffff16815260200190815260200160002060006101000a81548160ff02191690831515021790555050565b600033905090565b600073ffffffffffffffffffffffffffffffffffffffff168373ffffffffffffffffffffffffffffffffffffffff161415610de1576040517f08c379a0000000000000000000000000000000000000000000000000000000008152600401610dd890611c83565b60405180910390fd5b600073ffffffffffffffffffffffffffffffffffffffff168273ffffffffffffffffffffffffffffffffffffffff161415610e51576040517f08c379a0000000000000000000000000000000000000000000000000000000008152600401610e4890611d15565b60405180910390fd5b80600160008573ffffffffffffffffffffffffffffffffffffffff1673ffffffffffffffffffffffffffffffffffffffff16815260200190815260200160002060008473ffffffffffffffffffffffffffffffffffffffff1673ffffffffffffffffffffffffffffffffffffffff168152602001908152602001600020819055508173ffffffffffffffffffffffffffffffffffffffff168373ffffffffffffffffffffffffffffffffffffffff167f8c5be1e5ebec7d5bd14f71427d1e84f3dd0314c0f7b2291e5b200ac8c7c3b92583604051610f2f91906116d7565b60405180910390a3505050565b600073ffffffffffffffffffffffffffffffffffffffff168273ffffffffffffffffffffffffffffffffffffffff161415610fac576040517f08c379a0000000000000000000000000000000000000000000000000000000008152600401610fa390611da7565b60405180910390fd5b610fb8826000836114f4565b60008060008473ffffffffffffffffffffffffffffffffffffffff1673ffffffffffffffffffffffffffffffffffffffff1681526020019081526020016000205490508181101561103e576040517f08c379a000000000000000000000000000000000000000000000000000000000815260040161103590611e39565b60405180910390fd5b8181036000808573ffffffffffffffffffffffffffffffffffffffff1673ffffffffffffffffffffffffffffffffffffffff1681526020019081526020016000208190555081600260008282546110959190611e59565b92505081905550600073ffffffffffffffffffffffffffffffffffffffff168373ffffffffffffffffffffffffffffffffffffffff167fddf252ad1be2c89b69c2b068fc378daa952ba7f163c4a11628f55a4df523b3ef846040516110fa91906116d7565b60405180910390a361110e836000846114f9565b505050565b600073ffffffffffffffffffffffffffffffffffffffff168373ffffffffffffffffffffffffffffffffffffffff161415611183576040517f08c379a000000000000000000000000000000000000000000000000000000000815260040161117a90611eff565b60405180910390fd5b600073ffffffffffffffffffffffffffffffffffffffff168273ffffffffffffffffffffffffffffffffffffffff1614156111f3576040517f08c379a00000000000000000000000000000000000000000000000000000000081526004016111ea90611f91565b60405180910390fd5b6111fe8383836114f4565b60008060008573ffffffffffffffffffffffffffffffffffffffff1673ffffffffffffffffffffffffffffffffffffffff16815260200190815260200160002054905081811015611284576040517f08c379a000000000000000000000000000000000000000000000000000000000815260040161127b90612023565b60405180910390fd5b8181036000808673ffffffffffffffffffffffffffffffffffffffff1673ffffffffffffffffffffffffffffffffffffffff16815260200190815260200160002081905550816000808573ffffffffffffffffffffffffffffffffffffffff1673ffffffffffffffffffffffffffffffffffffffff16815260200190815260200160002060008282546113179190611abd565b925050819055508273ffffffffffffffffffffffffffffffffffffffff168473ffffffffffffffffffffffffffffffffffffffff167fddf252ad1be2c89b69c2b068fc378daa952ba7f163c4a11628f55a4df523b3ef8460405161137b91906116d7565b60405180910390a361138e8484846114f9565b50505050565b600073ffffffffffffffffffffffffffffffffffffffff168273ffffffffffffffffffffffffffffffffffffffff161415611404576040517f08c379a00000000000000000000000000000000000000000000000000000000081526004016113fb9061208f565b60405180910390fd5b611410600083836114f4565b80600260008282546114229190611abd565b92505081905550806000808473ffffffffffffffffffffffffffffffffffffffff1673ffffffffffffffffffffffffffffffffffffffff16815260200190815260200160002060008282546114779190611abd565b925050819055508173ffffffffffffffffffffffffffffffffffffffff16600073ffffffffffffffffffffffffffffffffffffffff167fddf252ad1be2c89b69c2b068fc378daa952ba7f163c4a11628f55a4df523b3ef836040516114dc91906116d7565b60405180910390a36114f0600083836114f9565b5050565b505050565b505050565b600081519050919050565b600082825260208201905092915050565b60005b8381101561153857808201518184015260208101905061151d565b83811115611547576000848401525b50505050565b6000601f19601f8301169050919050565b6000611569826114fe565b6115738185611509565b935061158381856020860161151a565b61158c8161154d565b840191505092915050565b600060208201905081810360008301526115b1818461155e565b905092915050565b600080fd5b600073ffffffffffffffffffffffffffffffffffffffff82169050919050565b60006115e9826115be565b9050919050565b6115f9816115de565b811461160457600080fd5b50565b600081359050611616816115f0565b92915050565b6000819050919050565b61162f8161161c565b811461163a57600080fd5b50565b60008135905061164c81611626565b92915050565b60008060408385031215611669576116686115b9565b5b600061167785828601611607565b92505060206116888582860161163d565b9150509250929050565b60008115159050919050565b6116a781611692565b82525050565b60006020820190506116c2600083018461169e565b92915050565b6116d18161161c565b82525050565b60006020820190506116ec60008301846116c8565b92915050565b60008060006060848603121561170b5761170a6115b9565b5b600061171986828701611607565b935050602061172a86828701611607565b925050604061173b8682870161163d565b9150509250925092565b600060ff82169050919050565b61175b81611745565b82525050565b60006020820190506117766000830184611752565b92915050565b600060208284031215611792576117916115b9565b5b60006117a084828501611607565b91505092915050565b600080604083850312156117c0576117bf6115b9565b5b60006117ce85828601611607565b92505060206117df85828601611607565b9150509250929050565b7f4e487b7100000000000000000000000000000000000000000000000000000000600052602260045260246000fd5b6000600282049050600182168061183057607f821691505b60208210811415611844576118436117e9565b5b50919050565b7f41646472657373206e6f7420616c6c6f77656400000000000000000000000000600082015250565b6000611880601383611509565b915061188b8261184a565b602082019050919050565b600060208201905081810360008301526118af81611873565b9050919050565b7f4e487b7100000000000000000000000000000000000000000000000000000000600052601160045260246000fd5b60008160011c9050919050565b6000808291508390505b600185111561193c57808604811115611918576119176118b6565b5b60018516156119275780820291505b8081029050611935856118e5565b94506118fc565b94509492505050565b6000826119555760019050611a11565b816119635760009050611a11565b81600181146119795760028114611983576119b2565b6001915050611a11565b60ff841115611995576119946118b6565b5b8360020a9150848211156119ac576119ab6118b6565b5b50611a11565b5060208310610133831016604e8410600b84101617156119e75782820a9050838111156119e2576119e16118b6565b5b611a11565b6119f484848460016118f2565b92509050818404811115611a0b57611a0a6118b6565b5b81810290505b9392505050565b6000611a238261161c565b9150611a2e8361161c565b9250611a5b7fffffffffffffffffffffffffffffffffffffffffffffffffffffffffffffffff8484611945565b905092915050565b6000611a6e8261161c565b9150611a798361161c565b9250817fffffffffffffffffffffffffffffffffffffffffffffffffffffffffffffffff0483118215151615611ab257611ab16118b6565b5b828202905092915050565b6000611ac88261161c565b9150611ad38361161c565b9250827fffffffffffffffffffffffffffffffffffffffffffffffffffffffffffffffff03821115611b0857611b076118b6565b5b828201905092915050565b7f45524332303a2064656372656173656420616c6c6f77616e63652062656c6f7760008201527f207a65726f000000000000000000000000000000000000000000000000000000602082015250565b6000611b6f602583611509565b9150611b7a82611b13565b604082019050919050565b60006020820190508181036000830152611b9e81611b62565b9050919050565b7f4e6f7420616c6c6f776564000000000000000000000000000000000000000000600082015250565b6000611bdb600b83611509565b9150611be682611ba5565b602082019050919050565b60006020820190508181036000830152611c0a81611bce565b9050919050565b7f45524332303a20617070726f76652066726f6d20746865207a65726f2061646460008201527f7265737300000000000000000000000000000000000000000000000000000000602082015250565b6000611c6d602483611509565b9150611c7882611c11565b604082019050919050565b60006020820190508181036000830152611c9c81611c60565b9050919050565b7f45524332303a20617070726f766520746f20746865207a65726f20616464726560008201527f7373000000000000000000000000000000000000000000000000000000000000602082015250565b6000611cff602283611509565b9150611d0a82611ca3565b604082019050919050565b60006020820190508181036000830152611d2e81611cf2565b9050919050565b7f45524332303a206275726e2066726f6d20746865207a65726f2061646472657360008201527f7300000000000000000000000000000000000000000000000000000000000000602082015250565b6000611d91602183611509565b9150611d9c82611d35565b604082019050919050565b60006020820190508181036000830152611dc081611d84565b9050919050565b7f45524332303a206275726e20616d6f756e7420657863656564732062616c616e60008201527f6365000000000000000000000000000000000000000000000000000000000000602082015250565b6000611e23602283611509565b9150611e2e82611dc7565b604082019050919050565b60006020820190508181036000830152611e5281611e16565b9050919050565b6000611e648261161c565b9150611e6f8361161c565b925082821015611e8257611e816118b6565b5b828203905092915050565b7f45524332303a207472616e736665722066726f6d20746865207a65726f20616460008201527f6472657373000000000000000000000000000000000000000000000000000000602082015250565b6000611ee9602583611509565b9150611ef482611e8d565b604082019050919050565b60006020820190508181036000830152611f1881611edc565b9050919050565b7f45524332303a207472616e7366657220746f20746865207a65726f206164647260008201527f6573730000000000000000000000000000000000000000000000000000000000602082015250565b6000611f7b602383611509565b9150611f8682611f1f565b604082019050919050565b60006020820190508181036000830152611faa81611f6e565b9050919050565b7f45524332303a207472616e7366657220616d6f756e742065786365656473206260008201527f616c616e63650000000000000000000000000000000000000000000000000000602082015250565b600061200d602683611509565b915061201882611fb1565b604082019050919050565b6000602082019050818103600083015261203c81612000565b9050919050565b7f45524332303a206d696e7420746f20746865207a65726f206164647265737300600082015250565b6000612079601f83611509565b915061208482612043565b602082019050919050565b600060208201905081810360008301526120a88161206c565b905091905056fea264697066735822122088f218985a02fbfa02b36a6ac342cc393aee12b30ae78eb09790c4425977f79564736f6c63430008090033437573746f6d20546f6b656e20466163746f72792076657273696f6e20302e312e30a26469706673582212207189fd3609bd9261431ce336ec17469062d27650ec49aa30cfc4c02ea2e1405764736f6c63430008090033",
  "immutableReferences": {},
  "source": "// SPDX-License-Identifier: MIT\npragma solidity ^0.8.9;\n\nimport \"./CustomERC20.sol\";\n\ncontract CustomFactory {\n   \n   event NewCustomToken(address customTokenAddress);\n    \n   function createNewCustomToken(string memory _name, string memory _symbol, address _owner, address _delegate, address _pablockTokenAddress) public {//returns (PablockMultiSignNotarization){\n        \n        CustomERC20 _newCustomToken =\n            new CustomERC20(\n                _name, _symbol, _owner, _delegate, _pablockTokenAddress\n            );\n\n        emit NewCustomToken(address(_newCustomToken));\n\n    }\n\n    function getVersion() public view returns (string memory){\n        return \"Custom Token Factory version 0.1.0\";\n    }\n}",
  "sourcePath": "/home/riccardo/WorkspaceLavoro/pablock/pablock-smartcontracts/contracts/custom/CustomFactory.sol",
  "compiler": {
    "name": "solc",
    "version": "0.8.9+commit.e5eed63a.Emscripten.clang"
  },
  "schemaVersion": "3.3.4",
  "updatedAt": "2021-12-06T18:55:25.161Z",
  "devdoc": {
    "kind": "dev",
    "methods": {},
    "version": 1
  },
  "userdoc": {
    "kind": "user",
    "methods": {},
    "version": 1
  }
}