{
  "contractName": "EIP712Base",
  "abi": [
    {
      "inputs": [
        {
          "internalType": "string",
          "name": "name",
          "type": "string"
        },
        {
          "internalType": "string",
          "name": "version",
          "type": "string"
        }
      ],
      "stateMutability": "nonpayable",
      "type": "constructor"
    },
    {
      "inputs": [
        {
          "internalType": "string",
          "name": "name",
          "type": "string"
        },
        {
          "internalType": "string",
          "name": "version",
          "type": "string"
        },
        {
          "internalType": "address",
          "name": "contractAddress",
          "type": "address"
        }
      ],
      "name": "registerContract",
      "outputs": [],
      "stateMutability": "nonpayable",
      "type": "function"
    }
  ],
  "bytecode": "0x60806040523480156200001157600080fd5b506040516200089938038062000899833981810160405281019062000037919062000258565b7f3cb138da6d2d7fa0e45d63ba80d5c0902dc0f5c3cc8ce33bcfe31dc017a3a4128280519060200120828051906020012062000078620000b360201b60201c565b306040516020016200008f95949392919062000358565b604051602081830303815290604052805190602001206001819055505050620003b5565b600046905090565b6000604051905090565b600080fd5b600080fd5b600080fd5b600080fd5b6000601f19601f8301169050919050565b7f4e487b7100000000000000000000000000000000000000000000000000000000600052604160045260246000fd5b6200012482620000d9565b810181811067ffffffffffffffff82111715620001465762000145620000ea565b5b80604052505050565b60006200015b620000bb565b905062000169828262000119565b919050565b600067ffffffffffffffff8211156200018c576200018b620000ea565b5b6200019782620000d9565b9050602081019050919050565b60005b83811015620001c4578082015181840152602081019050620001a7565b83811115620001d4576000848401525b50505050565b6000620001f1620001eb846200016e565b6200014f565b90508281526020810184848401111562000210576200020f620000d4565b5b6200021d848285620001a4565b509392505050565b600082601f8301126200023d576200023c620000cf565b5b81516200024f848260208601620001da565b91505092915050565b60008060408385031215620002725762000271620000c5565b5b600083015167ffffffffffffffff811115620002935762000292620000ca565b5b620002a18582860162000225565b925050602083015167ffffffffffffffff811115620002c557620002c4620000ca565b5b620002d38582860162000225565b9150509250929050565b6000819050919050565b620002f281620002dd565b82525050565b6000819050919050565b6200030d81620002f8565b82525050565b600073ffffffffffffffffffffffffffffffffffffffff82169050919050565b6000620003408262000313565b9050919050565b620003528162000333565b82525050565b600060a0820190506200036f6000830188620002e7565b6200037e6020830187620002e7565b6200038d6040830186620002e7565b6200039c606083018562000302565b620003ab608083018462000347565b9695505050505050565b6104d480620003c56000396000f3fe608060405234801561001057600080fd5b506004361061002b5760003560e01c8063fc83158114610030575b600080fd5b61004a600480360381019061004591906103b2565b61004c565b005b826000808373ffffffffffffffffffffffffffffffffffffffff1673ffffffffffffffffffffffffffffffffffffffff16815260200190815260200160002060000190805190602001906100a1929190610157565b50816000808373ffffffffffffffffffffffffffffffffffffffff1673ffffffffffffffffffffffffffffffffffffffff16815260200190815260200160002060010190805190602001906100f7929190610157565b5060016000808373ffffffffffffffffffffffffffffffffffffffff1673ffffffffffffffffffffffffffffffffffffffff16815260200190815260200160002060020160006101000a81548160ff021916908315150217905550505050565b8280546101639061046c565b90600052602060002090601f01602090048101928261018557600085556101cc565b82601f1061019e57805160ff19168380011785556101cc565b828001600101855582156101cc579182015b828111156101cb5782518255916020019190600101906101b0565b5b5090506101d991906101dd565b5090565b5b808211156101f65760008160009055506001016101de565b5090565b6000604051905090565b600080fd5b600080fd5b600080fd5b600080fd5b6000601f19601f8301169050919050565b7f4e487b7100000000000000000000000000000000000000000000000000000000600052604160045260246000fd5b61026182610218565b810181811067ffffffffffffffff821117156102805761027f610229565b5b80604052505050565b60006102936101fa565b905061029f8282610258565b919050565b600067ffffffffffffffff8211156102bf576102be610229565b5b6102c882610218565b9050602081019050919050565b82818337600083830152505050565b60006102f76102f2846102a4565b610289565b90508281526020810184848401111561031357610312610213565b5b61031e8482856102d5565b509392505050565b600082601f83011261033b5761033a61020e565b5b813561034b8482602086016102e4565b91505092915050565b600073ffffffffffffffffffffffffffffffffffffffff82169050919050565b600061037f82610354565b9050919050565b61038f81610374565b811461039a57600080fd5b50565b6000813590506103ac81610386565b92915050565b6000806000606084860312156103cb576103ca610204565b5b600084013567ffffffffffffffff8111156103e9576103e8610209565b5b6103f586828701610326565b935050602084013567ffffffffffffffff81111561041657610415610209565b5b61042286828701610326565b92505060406104338682870161039d565b9150509250925092565b7f4e487b7100000000000000000000000000000000000000000000000000000000600052602260045260246000fd5b6000600282049050600182168061048457607f821691505b602082108114156104985761049761043d565b5b5091905056fea26469706673582212207d8e23b0706ad5f6cc870de858c173e5745e6e0f870869f18fa23371b01f4c1064736f6c63430008090033",
  "immutableReferences": {},
  "source": "//SPDX-License-Identifier: MIT\npragma solidity ^0.8.9;\n\ncontract EIP712Base {\n    struct EIP712Domain {\n        string name;\n        string version;\n        address verifyingContract;\n        bytes32 salt;\n    }\n\n    struct RegisteredContract {\n        string name;\n        string version;\n        bool registered;\n    }\n\n    mapping(address => RegisteredContract ) private registeredContracts;\n\n    bytes32 internal constant EIP712_DOMAIN_TYPEHASH =\n        keccak256(\n                \"EIP712Domain(string name, string version, uint256 chainId, address verifyingContract)\"\n        );\n\n    bytes32 internal domainSeparator;\n\n    constructor(string memory name, string memory version) {\n\n        domainSeparator = keccak256(\n            abi.encode(\n                EIP712_DOMAIN_TYPEHASH,\n                keccak256(bytes(name)),\n                keccak256(bytes(version)),\n                getChainID(),\n                address(this)\n            )\n        );\n    }\n\n    function registerContract(string memory name, string memory version, address contractAddress) public {\n        registeredContracts[contractAddress].name = name;\n        registeredContracts[contractAddress].version = version;\n        registeredContracts[contractAddress].registered = true;\n    }\n\n    function getChainID() internal view returns (uint256 id) {\n        assembly {\n            id := chainid()\n        }\n    }\n\n    function getDomainSeparator(address contractAddress) private view returns (bytes32) {\n        return keccak256(\n            abi.encode(\n                EIP712_DOMAIN_TYPEHASH,\n                keccak256(bytes(registeredContracts[contractAddress].name)),\n                keccak256(bytes(registeredContracts[contractAddress].version)),\n                getChainID(),\n                contractAddress\n            )\n        );\n    }\n\n    /**\n     * Accept message hash and returns hash message in EIP712 compatible form\n     * So that it can be used to recover signer from signature signed using EIP712 formatted data\n     * https://eips.ethereum.org/EIPS/eip-712\n     * \"\\\\x19\" makes the encoding deterministic\n     * \"\\\\x01\" is the version byte to make it compatible to EIP-191\n     */\n    function toTypedMessageHash(bytes32 messageHash, address contractAddress)\n        internal\n        view\n        returns (bytes32)\n    {\n        return\n            keccak256(\n                abi.encodePacked(\"\\x19\\x01\",getDomainSeparator(contractAddress), messageHash)\n            );\n    }\n}\n",
  "sourcePath": "/home/riccardo/WorkspaceLavoro/pablock/pablock-smartcontracts/contracts/lib/EIP712Base.sol",
  "compiler": {
    "name": "solc",
    "version": "0.8.9+commit.e5eed63a.Emscripten.clang"
  },
  "schemaVersion": "3.3.4",
  "updatedAt": "2021-12-06T18:52:44.796Z",
  "devdoc": {
    "kind": "dev",
    "methods": {},
    "version": 1
  },
  "userdoc": {
    "kind": "user",
    "methods": {},
    "version": 1
  }
}