{
  "contractName": "EIP712MetaTransaction",
  "abi": [
    {
      "inputs": [
        {
          "internalType": "string",
          "name": "name",
          "type": "string"
        },
        {
          "internalType": "string",
          "name": "version",
          "type": "string"
        }
      ],
      "stateMutability": "nonpayable",
      "type": "constructor"
    },
    {
      "anonymous": false,
      "inputs": [
        {
          "indexed": false,
          "internalType": "address",
          "name": "userAddress",
          "type": "address"
        },
        {
          "indexed": false,
          "internalType": "address payable",
          "name": "relayerAddress",
          "type": "address"
        },
        {
          "indexed": false,
          "internalType": "bytes",
          "name": "functionSignature",
          "type": "bytes"
        }
      ],
      "name": "MetaTransactionExecuted",
      "type": "event"
    },
    {
      "inputs": [
        {
          "internalType": "string",
          "name": "name",
          "type": "string"
        },
        {
          "internalType": "string",
          "name": "version",
          "type": "string"
        },
        {
          "internalType": "address",
          "name": "contractAddress",
          "type": "address"
        }
      ],
      "name": "registerContract",
      "outputs": [],
      "stateMutability": "nonpayable",
      "type": "function"
    },
    {
      "inputs": [
        {
          "internalType": "address",
          "name": "_pablockTokenAddress",
          "type": "address"
        }
      ],
      "name": "initialize",
      "outputs": [],
      "stateMutability": "nonpayable",
      "type": "function"
    },
    {
      "inputs": [
        {
          "internalType": "address",
          "name": "destinationContract",
          "type": "address"
        },
        {
          "internalType": "address",
          "name": "userAddress",
          "type": "address"
        },
        {
          "internalType": "bytes",
          "name": "functionSignature",
          "type": "bytes"
        },
        {
          "internalType": "bytes32",
          "name": "sigR",
          "type": "bytes32"
        },
        {
          "internalType": "bytes32",
          "name": "sigS",
          "type": "bytes32"
        },
        {
          "internalType": "uint8",
          "name": "sigV",
          "type": "uint8"
        }
      ],
      "name": "executeMetaTransaction",
      "outputs": [
        {
          "internalType": "bytes",
          "name": "",
          "type": "bytes"
        }
      ],
      "stateMutability": "payable",
      "type": "function"
    },
    {
      "inputs": [
        {
          "internalType": "address",
          "name": "user",
          "type": "address"
        }
      ],
      "name": "getNonce",
      "outputs": [
        {
          "internalType": "uint256",
          "name": "nonce",
          "type": "uint256"
        }
      ],
      "stateMutability": "view",
      "type": "function"
    }
  ],
  "bytecode": "0x60806040523480156200001157600080fd5b5060405162001cf238038062001cf283398181016040528101906200003791906200035f565b81817f3cb138da6d2d7fa0e45d63ba80d5c0902dc0f5c3cc8ce33bcfe31dc017a3a412828051906020012082805190602001206200007a6200010760201b60201c565b30604051602001620000919594939291906200045f565b604051602081830303815290604052805190602001206001819055505050620000bf6200010f60201b60201c565b600460006101000a81548173ffffffffffffffffffffffffffffffffffffffff021916908373ffffffffffffffffffffffffffffffffffffffff1602179055505050620004bc565b600046905090565b60003073ffffffffffffffffffffffffffffffffffffffff163373ffffffffffffffffffffffffffffffffffffffff161415620001bb57600080368080601f016020809104026020016040519081016040528093929190818152602001838380828437600081840152601f19601f820116905080830192505050505050509050600080369050905073ffffffffffffffffffffffffffffffffffffffff818301511692505050620001bf565b3390505b90565b6000604051905090565b600080fd5b600080fd5b600080fd5b600080fd5b6000601f19601f8301169050919050565b7f4e487b7100000000000000000000000000000000000000000000000000000000600052604160045260246000fd5b6200022b82620001e0565b810181811067ffffffffffffffff821117156200024d576200024c620001f1565b5b80604052505050565b600062000262620001c2565b905062000270828262000220565b919050565b600067ffffffffffffffff821115620002935762000292620001f1565b5b6200029e82620001e0565b9050602081019050919050565b60005b83811015620002cb578082015181840152602081019050620002ae565b83811115620002db576000848401525b50505050565b6000620002f8620002f28462000275565b62000256565b905082815260208101848484011115620003175762000316620001db565b5b62000324848285620002ab565b509392505050565b600082601f830112620003445762000343620001d6565b5b815162000356848260208601620002e1565b91505092915050565b60008060408385031215620003795762000378620001cc565b5b600083015167ffffffffffffffff8111156200039a5762000399620001d1565b5b620003a8858286016200032c565b925050602083015167ffffffffffffffff811115620003cc57620003cb620001d1565b5b620003da858286016200032c565b9150509250929050565b6000819050919050565b620003f981620003e4565b82525050565b6000819050919050565b6200041481620003ff565b82525050565b600073ffffffffffffffffffffffffffffffffffffffff82169050919050565b600062000447826200041a565b9050919050565b62000459816200043a565b82525050565b600060a082019050620004766000830188620003ee565b620004856020830187620003ee565b620004946040830186620003ee565b620004a3606083018562000409565b620004b260808301846200044e565b9695505050505050565b61182680620004cc6000396000f3fe60806040526004361061003f5760003560e01c80632d0335ab14610044578063a9cae65314610081578063c4d66de8146100b1578063fc831581146100da575b600080fd5b34801561005057600080fd5b5061006b60048036038101906100669190610bb3565b610103565b6040516100789190610bf9565b60405180910390f35b61009b60048036038101906100969190610dc9565b61014c565b6040516100a89190610efa565b60405180910390f35b3480156100bd57600080fd5b506100d860048036038101906100d39190610bb3565b610529565b005b3480156100e657600080fd5b5061010160048036038101906100fc9190610fbd565b610604565b005b6000600260008373ffffffffffffffffffffffffffffffffffffffff1673ffffffffffffffffffffffffffffffffffffffff168152602001908152602001600020549050919050565b606060006101598661070f565b90506000357fffffffff00000000000000000000000000000000000000000000000000000000167bffffffffffffffffffffffffffffffffffffffffffffffffffffffff1916817bffffffffffffffffffffffffffffffffffffffffffffffffffffffff19161415610200576040517f08c379a00000000000000000000000000000000000000000000000000000000081526004016101f7906110cb565b60405180910390fd5b60006040518060600160405280600260008b73ffffffffffffffffffffffffffffffffffffffff1673ffffffffffffffffffffffffffffffffffffffff1681526020019081526020016000205481526020018973ffffffffffffffffffffffffffffffffffffffff16815260200188815250905061028288828888888e610733565b6102c1576040517f08c379a00000000000000000000000000000000000000000000000000000000081526004016102b89061115d565b60405180910390fd5b6103146001600260008b73ffffffffffffffffffffffffffffffffffffffff1673ffffffffffffffffffffffffffffffffffffffff1681526020019081526020016000205461084490919063ffffffff16565b600260008a73ffffffffffffffffffffffffffffffffffffffff1673ffffffffffffffffffffffffffffffffffffffff168152602001908152602001600020819055506000808a73ffffffffffffffffffffffffffffffffffffffff16898b604051602001610384929190611201565b6040516020818303038152906040526040516103a09190611229565b6000604051808303816000865af19150503d80600081146103dd576040519150601f19603f3d011682016040523d82523d6000602084013e6103e2565b606091505b5091509150600360009054906101000a900473ffffffffffffffffffffffffffffffffffffffff1673ffffffffffffffffffffffffffffffffffffffff1663dd99464a8c868d6040518463ffffffff1660e01b81526004016104469392919061128a565b602060405180830381600087803b15801561046057600080fd5b505af1158015610474573d6000803e3d6000fd5b505050506040513d601f19601f8201168201806040525081019061049891906112f9565b508181906104dc576040517f08c379a00000000000000000000000000000000000000000000000000000000081526004016104d3919061136a565b60405180910390fd5b507f5845892132946850460bff5a0083f71031bc5bf9aadcd40f1de79423eac9b10b8a338b604051610510939291906113ad565b60405180910390a1809450505050509695505050505050565b61053161085a565b73ffffffffffffffffffffffffffffffffffffffff16600460009054906101000a900473ffffffffffffffffffffffffffffffffffffffff1673ffffffffffffffffffffffffffffffffffffffff16146105c0576040517f08c379a00000000000000000000000000000000000000000000000000000000081526004016105b790611437565b60405180910390fd5b80600360006101000a81548173ffffffffffffffffffffffffffffffffffffffff021916908373ffffffffffffffffffffffffffffffffffffffff16021790555050565b826000808373ffffffffffffffffffffffffffffffffffffffff1673ffffffffffffffffffffffffffffffffffffffff1681526020019081526020016000206000019080519060200190610659929190610a9e565b50816000808373ffffffffffffffffffffffffffffffffffffffff1673ffffffffffffffffffffffffffffffffffffffff16815260200190815260200160002060010190805190602001906106af929190610a9e565b5060016000808373ffffffffffffffffffffffffffffffffffffffff1673ffffffffffffffffffffffffffffffffffffffff16815260200190815260200160002060020160006101000a81548160ff021916908315150217905550505050565b6000808251141561072657600060e01b905061072e565b602082015190505b919050565b600080600161074a6107448961090b565b85610952565b8588886040516000815260200160405260405161076a9493929190611475565b6020604051602081039080840390855afa15801561078c573d6000803e3d6000fd5b505050602060405103519050600073ffffffffffffffffffffffffffffffffffffffff168173ffffffffffffffffffffffffffffffffffffffff161415610808576040517f08c379a00000000000000000000000000000000000000000000000000000000081526004016107ff90611506565b60405180910390fd5b8773ffffffffffffffffffffffffffffffffffffffff168173ffffffffffffffffffffffffffffffffffffffff16149150509695505050505050565b600081836108529190611555565b905092915050565b60003073ffffffffffffffffffffffffffffffffffffffff163373ffffffffffffffffffffffffffffffffffffffff16141561090457600080368080601f016020809104026020016040519081016040528093929190818152602001838380828437600081840152601f19601f820116905080830192505050505050509050600080369050905073ffffffffffffffffffffffffffffffffffffffff818301511692505050610908565b3390505b90565b600081600001518260200151836040015180519060200120604051602001610935939291906115ab565b604051602081830303815290604052805190602001209050919050565b600061095d8261098d565b8360405160200161096f92919061165a565b60405160208183030381529060405280519060200120905092915050565b60007f3cb138da6d2d7fa0e45d63ba80d5c0902dc0f5c3cc8ce33bcfe31dc017a3a4126000808473ffffffffffffffffffffffffffffffffffffffff1673ffffffffffffffffffffffffffffffffffffffff1681526020019081526020016000206000016040516109fe9190611786565b60405180910390206000808573ffffffffffffffffffffffffffffffffffffffff1673ffffffffffffffffffffffffffffffffffffffff168152602001908152602001600020600101604051610a549190611786565b6040518091039020610a64610a96565b85604051602001610a7995949392919061179d565b604051602081830303815290604052805190602001209050919050565b600046905090565b828054610aaa906116c0565b90600052602060002090601f016020900481019282610acc5760008555610b13565b82601f10610ae557805160ff1916838001178555610b13565b82800160010185558215610b13579182015b82811115610b12578251825591602001919060010190610af7565b5b509050610b209190610b24565b5090565b5b80821115610b3d576000816000905550600101610b25565b5090565b6000604051905090565b600080fd5b600080fd5b600073ffffffffffffffffffffffffffffffffffffffff82169050919050565b6000610b8082610b55565b9050919050565b610b9081610b75565b8114610b9b57600080fd5b50565b600081359050610bad81610b87565b92915050565b600060208284031215610bc957610bc8610b4b565b5b6000610bd784828501610b9e565b91505092915050565b6000819050919050565b610bf381610be0565b82525050565b6000602082019050610c0e6000830184610bea565b92915050565b600080fd5b600080fd5b6000601f19601f8301169050919050565b7f4e487b7100000000000000000000000000000000000000000000000000000000600052604160045260246000fd5b610c6782610c1e565b810181811067ffffffffffffffff82111715610c8657610c85610c2f565b5b80604052505050565b6000610c99610b41565b9050610ca58282610c5e565b919050565b600067ffffffffffffffff821115610cc557610cc4610c2f565b5b610cce82610c1e565b9050602081019050919050565b82818337600083830152505050565b6000610cfd610cf884610caa565b610c8f565b905082815260208101848484011115610d1957610d18610c19565b5b610d24848285610cdb565b509392505050565b600082601f830112610d4157610d40610c14565b5b8135610d51848260208601610cea565b91505092915050565b6000819050919050565b610d6d81610d5a565b8114610d7857600080fd5b50565b600081359050610d8a81610d64565b92915050565b600060ff82169050919050565b610da681610d90565b8114610db157600080fd5b50565b600081359050610dc381610d9d565b92915050565b60008060008060008060c08789031215610de657610de5610b4b565b5b6000610df489828a01610b9e565b9650506020610e0589828a01610b9e565b955050604087013567ffffffffffffffff811115610e2657610e25610b50565b5b610e3289828a01610d2c565b9450506060610e4389828a01610d7b565b9350506080610e5489828a01610d7b565b92505060a0610e6589828a01610db4565b9150509295509295509295565b600081519050919050565b600082825260208201905092915050565b60005b83811015610eac578082015181840152602081019050610e91565b83811115610ebb576000848401525b50505050565b6000610ecc82610e72565b610ed68185610e7d565b9350610ee6818560208601610e8e565b610eef81610c1e565b840191505092915050565b60006020820190508181036000830152610f148184610ec1565b905092915050565b600067ffffffffffffffff821115610f3757610f36610c2f565b5b610f4082610c1e565b9050602081019050919050565b6000610f60610f5b84610f1c565b610c8f565b905082815260208101848484011115610f7c57610f7b610c19565b5b610f87848285610cdb565b509392505050565b600082601f830112610fa457610fa3610c14565b5b8135610fb4848260208601610f4d565b91505092915050565b600080600060608486031215610fd657610fd5610b4b565b5b600084013567ffffffffffffffff811115610ff457610ff3610b50565b5b61100086828701610f8f565b935050602084013567ffffffffffffffff81111561102157611020610b50565b5b61102d86828701610f8f565b925050604061103e86828701610b9e565b9150509250925092565b600082825260208201905092915050565b7f66756e6374696f6e5369676e61747572652063616e206e6f74206265206f662060008201527f657865637574654d6574615472616e73616374696f6e206d6574686f64000000602082015250565b60006110b5603d83611048565b91506110c082611059565b604082019050919050565b600060208201905081810360008301526110e4816110a8565b9050919050565b7f5369676e657220616e64207369676e617475726520646f206e6f74206d61746360008201527f6800000000000000000000000000000000000000000000000000000000000000602082015250565b6000611147602183611048565b9150611152826110eb565b604082019050919050565b600060208201905081810360008301526111768161113a565b9050919050565b600081905092915050565b600061119382610e72565b61119d818561117d565b93506111ad818560208601610e8e565b80840191505092915050565b60008160601b9050919050565b60006111d1826111b9565b9050919050565b60006111e3826111c6565b9050919050565b6111fb6111f682610b75565b6111d8565b82525050565b600061120d8285611188565b915061121982846111ea565b6014820191508190509392505050565b60006112358284611188565b915081905092915050565b61124981610b75565b82525050565b60007fffffffff0000000000000000000000000000000000000000000000000000000082169050919050565b6112848161124f565b82525050565b600060608201905061129f6000830186611240565b6112ac602083018561127b565b6112b96040830184611240565b949350505050565b60008115159050919050565b6112d6816112c1565b81146112e157600080fd5b50565b6000815190506112f3816112cd565b92915050565b60006020828403121561130f5761130e610b4b565b5b600061131d848285016112e4565b91505092915050565b600081519050919050565b600061133c82611326565b6113468185611048565b9350611356818560208601610e8e565b61135f81610c1e565b840191505092915050565b600060208201905081810360008301526113848184611331565b905092915050565b600061139782610b55565b9050919050565b6113a78161138c565b82525050565b60006060820190506113c26000830186611240565b6113cf602083018561139e565b81810360408301526113e18184610ec1565b9050949350505050565b7f4e6f7420616c6c6f776564000000000000000000000000000000000000000000600082015250565b6000611421600b83611048565b915061142c826113eb565b602082019050919050565b6000602082019050818103600083015261145081611414565b9050919050565b61146081610d5a565b82525050565b61146f81610d90565b82525050565b600060808201905061148a6000830187611457565b6114976020830186611466565b6114a46040830185611457565b6114b16060830184611457565b95945050505050565b7f496e76616c6964207369676e6174757265000000000000000000000000000000600082015250565b60006114f0601183611048565b91506114fb826114ba565b602082019050919050565b6000602082019050818103600083015261151f816114e3565b9050919050565b7f4e487b7100000000000000000000000000000000000000000000000000000000600052601160045260246000fd5b600061156082610be0565b915061156b83610be0565b9250827fffffffffffffffffffffffffffffffffffffffffffffffffffffffffffffffff038211156115a05761159f611526565b5b828201905092915050565b60006060820190506115c06000830186610bea565b6115cd6020830185611240565b6115da6040830184611457565b949350505050565b600081905092915050565b7f1901000000000000000000000000000000000000000000000000000000000000600082015250565b60006116236002836115e2565b915061162e826115ed565b600282019050919050565b6000819050919050565b61165461164f82610d5a565b611639565b82525050565b600061166582611616565b91506116718285611643565b6020820191506116818284611643565b6020820191508190509392505050565b7f4e487b7100000000000000000000000000000000000000000000000000000000600052602260045260246000fd5b600060028204905060018216806116d857607f821691505b602082108114156116ec576116eb611691565b5b50919050565b60008190508160005260206000209050919050565b60008154611714816116c0565b61171e818661117d565b94506001821660008114611739576001811461174a5761177d565b60ff1983168652818601935061177d565b611753856116f2565b60005b8381101561177557815481890152600182019150602081019050611756565b838801955050505b50505092915050565b60006117928284611707565b915081905092915050565b600060a0820190506117b26000830188611457565b6117bf6020830187611457565b6117cc6040830186611457565b6117d96060830185610bea565b6117e66080830184611240565b969550505050505056fea264697066735822122077eecb7b3b265e8e8f2bd43e58d15a80711fe9bdc1edc7f00dcb1ea7aef509a164736f6c63430008090033",
  "immutableReferences": {},
  "source": "//SPDX-License-Identifier: MIT\npragma solidity ^0.8.9;\nimport \"./lib/EIP712Base.sol\";\nimport \"@openzeppelin/contracts/utils/math/SafeMath.sol\";\n\nimport \"./PablockToken.sol\";\n\ncontract EIP712MetaTransaction is EIP712Base {\n    using SafeMath for uint256;\n    bytes32 private constant META_TRANSACTION_TYPEHASH = keccak256(\n        bytes(\n            \"MetaTransaction(uint256 nonce,address from,bytes functionSignature)\"\n        )\n    );\n\n    event MetaTransactionExecuted(\n        address userAddress,\n        address payable relayerAddress,\n        bytes functionSignature\n    );\n    mapping(address => uint256) private nonces;\n\n    address pablockTokenAddress;\n    address contractOwner;\n\n    /*\n     * Meta transaction structure.\n     * No point of including value field here as if user is doing value transfer then he has the funds to pay for gas\n     * He should call the desired function directly in that case.\n     */\n    struct MetaTransaction {\n        uint256 nonce;\n        address from;\n        bytes functionSignature;\n    }\n\n    modifier byOwner() {\n        require(contractOwner == msgSender(), \"Not allowed\");\n        _;\n    }\n\n    constructor(string memory name, string memory version)\n        EIP712Base(name, version)\n    {\n        contractOwner = msgSender();\n    }\n\n    function initialize(address _pablockTokenAddress) public byOwner {\n        pablockTokenAddress = _pablockTokenAddress;\n    }\n\n    function convertBytesToBytes4(bytes memory inBytes)\n        internal\n        pure\n        returns (bytes4 outBytes4)\n    {\n        if (inBytes.length == 0) {\n            return 0x0;\n        }\n\n        assembly {\n            outBytes4 := mload(add(inBytes, 32))\n        }\n    }\n\n    /**\n     *   This function allow the execution of another cotnract function through relay method.\n     *   The contract function needs to be register and gives this contract name and version to enable\n     *   correct DOMAIN_SEPARATOR calcualtion. If a contract register to meta transaction but not validated on PablockToken\n     *   the execution will failed.\n     */\n    function executeMetaTransaction(\n        address destinationContract,\n        address userAddress,\n        bytes memory functionSignature,\n        bytes32 sigR,\n        bytes32 sigS,\n        uint8 sigV\n    ) public payable returns (bytes memory) {\n        bytes4 destinationFunctionSig = convertBytesToBytes4(functionSignature);\n\n        require(\n            destinationFunctionSig != msg.sig,\n            \"functionSignature can not be of executeMetaTransaction method\"\n        );\n        MetaTransaction memory metaTx = MetaTransaction({\n            nonce: nonces[userAddress],\n            from: userAddress,\n            functionSignature: functionSignature\n        });\n\n        require(\n            verify(userAddress, metaTx, sigR, sigS, sigV, destinationContract),\n            \"Signer and signature do not match\"\n        );\n        nonces[userAddress] = nonces[userAddress].add(1);\n        // Append userAddress at the end to extract it from calling context\n        (bool success, bytes memory returnData) = destinationContract.call(\n            abi.encodePacked(functionSignature, userAddress)\n        );\n\n        PablockToken(pablockTokenAddress).receiveAndBurn(\n            destinationContract,\n            destinationFunctionSig,\n            userAddress\n        );\n\n        require(success, string(returnData));\n        emit MetaTransactionExecuted(\n            userAddress,\n            payable(msg.sender),\n            functionSignature\n        );\n        return returnData;\n    }\n\n    function hashMetaTransaction(MetaTransaction memory metaTx)\n        internal\n        pure\n        returns (bytes32)\n    {\n        return\n            keccak256(\n                abi.encode(\n                    // META_TRANSACTION_TYPEHASH,\n                    metaTx.nonce,\n                    metaTx.from,\n                    keccak256(metaTx.functionSignature)\n                )\n            );\n    }\n\n    function getNonce(address user) external view returns (uint256 nonce) {\n        nonce = nonces[user];\n    }\n\n    function verify(\n        address user,\n        MetaTransaction memory metaTx,\n        bytes32 sigR,\n        bytes32 sigS,\n        uint8 sigV,\n        address destinationContract\n    ) internal view returns (bool) {\n        // console.logBytes32(toTypedMessageHash(hashMetaTransaction(metaTx)));\n        address signer = ecrecover(\n            toTypedMessageHash(\n                hashMetaTransaction(metaTx),\n                destinationContract\n            ),\n            sigV,\n            sigR,\n            sigS\n        );\n\n        require(signer != address(0), \"Invalid signature\");\n        return signer == user;\n    }\n\n    function msgSender() internal view returns (address sender) {\n        if (msg.sender == address(this)) {\n            bytes memory array = msg.data;\n            uint256 index = msg.data.length;\n            assembly {\n                // Load the 32 bytes word from memory with the address on the lower 20 bytes, and mask those.\n                sender := and(\n                    mload(add(array, index)),\n                    0xffffffffffffffffffffffffffffffffffffffff\n                )\n            }\n        } else {\n            sender = msg.sender;\n        }\n        return sender;\n    }\n}\n",
  "sourcePath": "/home/riccardo/WorkspaceLavoro/pablock/pablock-smartcontracts/contracts/EIP712MetaTransaction.sol",
  "compiler": {
    "name": "solc",
    "version": "0.8.9+commit.e5eed63a.Emscripten.clang"
  },
  "schemaVersion": "3.3.4",
  "updatedAt": "2021-12-06T18:55:25.122Z",
  "devdoc": {
    "kind": "dev",
    "methods": {},
    "version": 1
  },
  "userdoc": {
    "kind": "user",
    "methods": {
      "executeMetaTransaction(address,address,bytes,bytes32,bytes32,uint8)": {
        "notice": "This function allow the execution of another cotnract function through relay method.   The contract function needs to be register and gives this contract name and version to enable   correct DOMAIN_SEPARATOR calcualtion. If a contract register to meta transaction but not validated on PablockToken   the execution will failed."
      }
    },
    "version": 1
  }
}