{
  "contractName": "PablockNotarization",
  "abi": [
    {
      "inputs": [
        {
          "internalType": "address",
          "name": "_pablockTokenAddress",
          "type": "address"
        },
        {
          "internalType": "address",
          "name": "_metaTxAddress",
          "type": "address"
        }
      ],
      "stateMutability": "nonpayable",
      "type": "constructor"
    },
    {
      "anonymous": false,
      "inputs": [
        {
          "indexed": false,
          "internalType": "bytes32",
          "name": "hash",
          "type": "bytes32"
        },
        {
          "indexed": false,
          "internalType": "string",
          "name": "uri",
          "type": "string"
        },
        {
          "indexed": false,
          "internalType": "address",
          "name": "applicant",
          "type": "address"
        },
        {
          "indexed": false,
          "internalType": "string",
          "name": "appId",
          "type": "string"
        }
      ],
      "name": "Notarize",
      "type": "event"
    },
    {
      "inputs": [
        {
          "internalType": "address",
          "name": "contractAddr",
          "type": "address"
        }
      ],
      "name": "initialize",
      "outputs": [],
      "stateMutability": "nonpayable",
      "type": "function"
    },
    {
      "inputs": [
        {
          "internalType": "bytes32",
          "name": "hash",
          "type": "bytes32"
        },
        {
          "internalType": "string",
          "name": "uri",
          "type": "string"
        },
        {
          "internalType": "address",
          "name": "applicant",
          "type": "address"
        },
        {
          "internalType": "string",
          "name": "appId",
          "type": "string"
        }
      ],
      "name": "notarize",
      "outputs": [],
      "stateMutability": "nonpayable",
      "type": "function"
    }
  ],
  "bytecode": "0x60806040523480156200001157600080fd5b5060405162000d8738038062000d87833981810160405281019062000037919062000333565b6040518060400160405280601381526020017f5061626c6f636b4e6f746172697a6174696f6e000000000000000000000000008152506040518060400160405280600581526020017f302e312e30000000000000000000000000000000000000000000000000000000815250828260009080519060200190620000bc92919062000219565b508160019080519060200190620000d592919062000219565b5080600260006101000a81548173ffffffffffffffffffffffffffffffffffffffff021916908373ffffffffffffffffffffffffffffffffffffffff1602179055508073ffffffffffffffffffffffffffffffffffffffff1663fc83158160006001306040518463ffffffff1660e01b81526004016200015893929190620004a2565b600060405180830381600087803b1580156200017357600080fd5b505af115801562000188573d6000803e3d6000fd5b5050505050505033600360006101000a81548173ffffffffffffffffffffffffffffffffffffffff021916908373ffffffffffffffffffffffffffffffffffffffff16021790555081600460006101000a81548173ffffffffffffffffffffffffffffffffffffffff021916908373ffffffffffffffffffffffffffffffffffffffff1602179055505050620004ed565b8280546200022790620003a9565b90600052602060002090601f0160209004810192826200024b576000855562000297565b82601f106200026657805160ff191683800117855562000297565b8280016001018555821562000297579182015b828111156200029657825182559160200191906001019062000279565b5b509050620002a69190620002aa565b5090565b5b80821115620002c5576000816000905550600101620002ab565b5090565b600080fd5b600073ffffffffffffffffffffffffffffffffffffffff82169050919050565b6000620002fb82620002ce565b9050919050565b6200030d81620002ee565b81146200031957600080fd5b50565b6000815190506200032d8162000302565b92915050565b600080604083850312156200034d576200034c620002c9565b5b60006200035d858286016200031c565b925050602062000370858286016200031c565b9150509250929050565b7f4e487b7100000000000000000000000000000000000000000000000000000000600052602260045260246000fd5b60006002820490506001821680620003c257607f821691505b60208210811415620003d957620003d86200037a565b5b50919050565b600082825260208201905092915050565b60008190508160005260206000209050919050565b600081546200041481620003a9565b620004208186620003df565b945060018216600081146200043e5760018114620004515762000488565b60ff198316865260208601935062000488565b6200045c85620003f0565b60005b8381101562000480578154818901526001820191506020810190506200045f565b808801955050505b50505092915050565b6200049c81620002ee565b82525050565b60006060820190508181036000830152620004be818662000405565b90508181036020830152620004d4818562000405565b9050620004e5604083018462000491565b949350505050565b61088a80620004fd6000396000f3fe608060405234801561001057600080fd5b50600436106100365760003560e01c8063c4d66de81461003b578063ca93d6c314610057575b600080fd5b61005560048036038101906100509190610364565b610073565b005b610071600480360381019061006c919061050d565b610147565b005b3373ffffffffffffffffffffffffffffffffffffffff16600360009054906101000a900473ffffffffffffffffffffffffffffffffffffffff1673ffffffffffffffffffffffffffffffffffffffff1614610103576040517f08c379a00000000000000000000000000000000000000000000000000000000081526004016100fa90610609565b60405180910390fd5b80600460006101000a81548173ffffffffffffffffffffffffffffffffffffffff021916908373ffffffffffffffffffffffffffffffffffffffff16021790555050565b600073ffffffffffffffffffffffffffffffffffffffff16600460009054906101000a900473ffffffffffffffffffffffffffffffffffffffff1673ffffffffffffffffffffffffffffffffffffffff1614156101d9576040517f08c379a00000000000000000000000000000000000000000000000000000000081526004016101d090610675565b60405180910390fd5b600460009054906101000a900473ffffffffffffffffffffffffffffffffffffffff1673ffffffffffffffffffffffffffffffffffffffff1663dd99464a306000357fffffffff0000000000000000000000000000000000000000000000000000000016856040518463ffffffff1660e01b815260040161025c939291906106df565b602060405180830381600087803b15801561027657600080fd5b505af115801561028a573d6000803e3d6000fd5b505050506040513d601f19601f820116820180604052508101906102ae919061074e565b507f31f46f1db4c3ac4e63be6c45cecc9d75b14b688dc27df8a551e5a419988b7efb848484846040516102e49493929190610801565b60405180910390a150505050565b6000604051905090565b600080fd5b600080fd5b600073ffffffffffffffffffffffffffffffffffffffff82169050919050565b600061033182610306565b9050919050565b61034181610326565b811461034c57600080fd5b50565b60008135905061035e81610338565b92915050565b60006020828403121561037a576103796102fc565b5b60006103888482850161034f565b91505092915050565b6000819050919050565b6103a481610391565b81146103af57600080fd5b50565b6000813590506103c18161039b565b92915050565b600080fd5b600080fd5b6000601f19601f8301169050919050565b7f4e487b7100000000000000000000000000000000000000000000000000000000600052604160045260246000fd5b61041a826103d1565b810181811067ffffffffffffffff82111715610439576104386103e2565b5b80604052505050565b600061044c6102f2565b90506104588282610411565b919050565b600067ffffffffffffffff821115610478576104776103e2565b5b610481826103d1565b9050602081019050919050565b82818337600083830152505050565b60006104b06104ab8461045d565b610442565b9050828152602081018484840111156104cc576104cb6103cc565b5b6104d784828561048e565b509392505050565b600082601f8301126104f4576104f36103c7565b5b813561050484826020860161049d565b91505092915050565b60008060008060808587031215610527576105266102fc565b5b6000610535878288016103b2565b945050602085013567ffffffffffffffff81111561055657610555610301565b5b610562878288016104df565b93505060406105738782880161034f565b925050606085013567ffffffffffffffff81111561059457610593610301565b5b6105a0878288016104df565b91505092959194509250565b600082825260208201905092915050565b7f4e6f7420616c6c6f776564000000000000000000000000000000000000000000600082015250565b60006105f3600b836105ac565b91506105fe826105bd565b602082019050919050565b60006020820190508181036000830152610622816105e6565b9050919050565b7f436f6e7472616374206e6f7420696e697469616c697a65640000000000000000600082015250565b600061065f6018836105ac565b915061066a82610629565b602082019050919050565b6000602082019050818103600083015261068e81610652565b9050919050565b61069e81610326565b82525050565b60007fffffffff0000000000000000000000000000000000000000000000000000000082169050919050565b6106d9816106a4565b82525050565b60006060820190506106f46000830186610695565b61070160208301856106d0565b61070e6040830184610695565b949350505050565b60008115159050919050565b61072b81610716565b811461073657600080fd5b50565b60008151905061074881610722565b92915050565b600060208284031215610764576107636102fc565b5b600061077284828501610739565b91505092915050565b61078481610391565b82525050565b600081519050919050565b60005b838110156107b3578082015181840152602081019050610798565b838111156107c2576000848401525b50505050565b60006107d38261078a565b6107dd81856105ac565b93506107ed818560208601610795565b6107f6816103d1565b840191505092915050565b6000608082019050610816600083018761077b565b818103602083015261082881866107c8565b90506108376040830185610695565b818103606083015261084981846107c8565b90509594505050505056fea2646970667358221220aadb5f4d548c57cc0c254ce152b2c6afb07ffa3aa0e7585a008fae33806a122d64736f6c63430008090033",
  "immutableReferences": {},
  "source": "// SPDX-License-Identifier: MIT\npragma solidity ^0.8.9;\n\nimport \"../PablockMetaTxReceiver.sol\";\nimport \"../PablockToken.sol\";\n\ncontract PablockNotarization is PablockMetaTxReceiver {\n\n    address private contractOwner;\n    address private pablockTokenAddress;\n\n    event Notarize(bytes32 hash, string uri, address applicant, string appId);\n\n    constructor(address _pablockTokenAddress, address _metaTxAddress) PablockMetaTxReceiver(\"PablockNotarization\", \"0.1.0\", _metaTxAddress){\n        contractOwner = msg.sender;\n        pablockTokenAddress = _pablockTokenAddress;\n    }\n\n    modifier byOwner {\n        require(contractOwner == msg.sender, \"Not allowed\");\n        _;\n    }\n\n    modifier isInitialized {\n        require(pablockTokenAddress != address(0), \"Contract not initialized\");\n        _;\n    }\n\n    function initialize (address contractAddr) public byOwner {\n        pablockTokenAddress = contractAddr;\n    }\n    \n    function notarize(bytes32 hash, string memory uri, address applicant, string memory appId) public isInitialized {\n        PablockToken(pablockTokenAddress).receiveAndBurn(address(this), msg.sig, applicant);\n        emit Notarize(hash, uri, applicant, appId);\n    }\n\n}\n",
  "sourcePath": "/home/riccardo/WorkspaceLavoro/pablock/pablock-smartcontracts/contracts/pablock/PablockNotarization.sol",
  "compiler": {
    "name": "solc",
    "version": "0.8.9+commit.e5eed63a.Emscripten.clang"
  },
  "schemaVersion": "3.3.4",
  "updatedAt": "2021-12-06T18:55:25.211Z",
  "devdoc": {
    "kind": "dev",
    "methods": {},
    "version": 1
  },
  "userdoc": {
    "kind": "user",
    "methods": {},
    "version": 1
  }
}