{
  "contractName": "PablockData",
  "abi": [
    {
      "inputs": [
        {
          "internalType": "address",
          "name": "_pablockToken",
          "type": "address"
        },
        {
          "internalType": "address",
          "name": "_pablockNFT",
          "type": "address"
        },
        {
          "internalType": "address",
          "name": "_pablockNotarization",
          "type": "address"
        },
        {
          "internalType": "address",
          "name": "_pablockMultiSignFactory",
          "type": "address"
        }
      ],
      "stateMutability": "nonpayable",
      "type": "constructor"
    },
    {
      "inputs": [
        {
          "internalType": "address",
          "name": "_newOwner",
          "type": "address"
        }
      ],
      "name": "changeOwner",
      "outputs": [],
      "stateMutability": "nonpayable",
      "type": "function"
    }
  ],
  "bytecode": "0x608060405234801561001057600080fd5b506040516104c73803806104c7833981810160405281019061003291906101ee565b83600260000160006101000a81548173ffffffffffffffffffffffffffffffffffffffff021916908373ffffffffffffffffffffffffffffffffffffffff16021790555082600260010160006101000a81548173ffffffffffffffffffffffffffffffffffffffff021916908373ffffffffffffffffffffffffffffffffffffffff160217905550816002800160006101000a81548173ffffffffffffffffffffffffffffffffffffffff021916908373ffffffffffffffffffffffffffffffffffffffff16021790555080600260030160006101000a81548173ffffffffffffffffffffffffffffffffffffffff021916908373ffffffffffffffffffffffffffffffffffffffff16021790555033600160006101000a81548173ffffffffffffffffffffffffffffffffffffffff021916908373ffffffffffffffffffffffffffffffffffffffff16021790555050505050610255565b600080fd5b600073ffffffffffffffffffffffffffffffffffffffff82169050919050565b60006101bb82610190565b9050919050565b6101cb816101b0565b81146101d657600080fd5b50565b6000815190506101e8816101c2565b92915050565b600080600080608085870312156102085761020761018b565b5b6000610216878288016101d9565b9450506020610227878288016101d9565b9350506040610238878288016101d9565b9250506060610249878288016101d9565b91505092959194509250565b610263806102646000396000f3fe608060405234801561001057600080fd5b506004361061002b5760003560e01c8063a6f9dae114610030575b600080fd5b61004a60048036038101906100459190610183565b61004c565b005b3373ffffffffffffffffffffffffffffffffffffffff16600160009054906101000a900473ffffffffffffffffffffffffffffffffffffffff1673ffffffffffffffffffffffffffffffffffffffff16146100dc576040517f08c379a00000000000000000000000000000000000000000000000000000000081526004016100d39061020d565b60405180910390fd5b80600160006101000a81548173ffffffffffffffffffffffffffffffffffffffff021916908373ffffffffffffffffffffffffffffffffffffffff16021790555050565b600080fd5b600073ffffffffffffffffffffffffffffffffffffffff82169050919050565b600061015082610125565b9050919050565b61016081610145565b811461016b57600080fd5b50565b60008135905061017d81610157565b92915050565b60006020828403121561019957610198610120565b5b60006101a78482850161016e565b91505092915050565b600082825260208201905092915050565b7f436f6e747261637420757064617465206e6f7420616c6c6f7765640000000000600082015250565b60006101f7601b836101b0565b9150610202826101c1565b602082019050919050565b60006020820190508181036000830152610226816101ea565b905091905056fea26469706673582212209f70995411e99f9f88f494c1c390ddd52cb1f455da1c4a9974f04d6a62df3b3a64736f6c63430008090033",
  "immutableReferences": {},
  "source": "// SPDX-License-Identifier: MIT\npragma solidity ^0.8.9;\n\ncontract PablockData {\n    struct PablockContracts {\n        address pablockToken;\n        address pablockNFT;\n        address pablockNotarization;\n        address pablockMultiSignFactory;\n    }\n\n    mapping(bytes32 => uint256) private functionPrices;\n\n    address private contractOwner;\n    PablockContracts private pablockContracts;\n\n    modifier byOwner {\n        require(contractOwner == msg.sender, \"Contract update not allowed\");\n        _;\n    }\n\n    constructor(\n        address _pablockToken,\n        address _pablockNFT,\n        address _pablockNotarization,\n        address _pablockMultiSignFactory\n    ) {\n        pablockContracts.pablockToken = _pablockToken;\n        pablockContracts.pablockNFT = _pablockNFT;\n        pablockContracts.pablockNotarization = _pablockNotarization;\n        pablockContracts.pablockMultiSignFactory = _pablockMultiSignFactory;\n\n        contractOwner = msg.sender;\n    }\n\n    // function updateContractAddress(address _newAddr, string memory _key) public byOwner {\n    //     pablockContracts[_key] = _newAddr;\n    // }\n\n    // function getContractAddress(string memory _key) public returns (string memory addr)  {\n    //     return pablockContracts[_key];\n    // }\n\n    // function addFunctionPrice(bytes32 functionSig, uint256 price) public byOwner {\n    //     functionPrices[functionSig] = price;\n    // }\n\n    // function getFunctionPrice(bytes32 functionSig) public returns (uint256 price) {\n    //     return functionPrices[functionSig];\n    // }\n\n    // function isFunctionSigSet(bytes32 functionSig) public returns (bool) {\n    //     return exists(functionPrices[functionSig]);\n    // }\n\n    function changeOwner(address _newOwner) public byOwner {\n        contractOwner = _newOwner;\n    }\n}\n",
  "sourcePath": "/home/riccardo/WorkspaceLavoro/pablock/pablock-smartcontracts/contracts/PablockData.sol",
  "compiler": {
    "name": "solc",
    "version": "0.8.9+commit.e5eed63a.Emscripten.clang"
  },
  "schemaVersion": "3.3.4",
  "updatedAt": "2021-12-06T18:55:25.130Z",
  "devdoc": {
    "kind": "dev",
    "methods": {},
    "version": 1
  },
  "userdoc": {
    "kind": "user",
    "methods": {},
    "version": 1
  }
}