{
  "contractName": "PablockToken",
  "abi": [
    {
      "inputs": [
        {
          "internalType": "uint256",
          "name": "_maxSupply",
          "type": "uint256"
        },
        {
          "internalType": "address",
          "name": "_metaTxAddr",
          "type": "address"
        }
      ],
      "stateMutability": "nonpayable",
      "type": "constructor"
    },
    {
      "anonymous": false,
      "inputs": [
        {
          "indexed": true,
          "internalType": "address",
          "name": "owner",
          "type": "address"
        },
        {
          "indexed": true,
          "internalType": "address",
          "name": "spender",
          "type": "address"
        },
        {
          "indexed": false,
          "internalType": "uint256",
          "name": "value",
          "type": "uint256"
        }
      ],
      "name": "Approval",
      "type": "event"
    },
    {
      "anonymous": false,
      "inputs": [
        {
          "indexed": true,
          "internalType": "address",
          "name": "from",
          "type": "address"
        },
        {
          "indexed": true,
          "internalType": "address",
          "name": "to",
          "type": "address"
        },
        {
          "indexed": false,
          "internalType": "uint256",
          "name": "value",
          "type": "uint256"
        }
      ],
      "name": "Transfer",
      "type": "event"
    },
    {
      "inputs": [
        {
          "internalType": "address",
          "name": "owner",
          "type": "address"
        },
        {
          "internalType": "address",
          "name": "spender",
          "type": "address"
        }
      ],
      "name": "allowance",
      "outputs": [
        {
          "internalType": "uint256",
          "name": "",
          "type": "uint256"
        }
      ],
      "stateMutability": "view",
      "type": "function"
    },
    {
      "inputs": [
        {
          "internalType": "address",
          "name": "spender",
          "type": "address"
        },
        {
          "internalType": "uint256",
          "name": "amount",
          "type": "uint256"
        }
      ],
      "name": "approve",
      "outputs": [
        {
          "internalType": "bool",
          "name": "",
          "type": "bool"
        }
      ],
      "stateMutability": "nonpayable",
      "type": "function"
    },
    {
      "inputs": [
        {
          "internalType": "address",
          "name": "account",
          "type": "address"
        }
      ],
      "name": "balanceOf",
      "outputs": [
        {
          "internalType": "uint256",
          "name": "",
          "type": "uint256"
        }
      ],
      "stateMutability": "view",
      "type": "function"
    },
    {
      "inputs": [],
      "name": "decimals",
      "outputs": [
        {
          "internalType": "uint8",
          "name": "",
          "type": "uint8"
        }
      ],
      "stateMutability": "view",
      "type": "function"
    },
    {
      "inputs": [
        {
          "internalType": "address",
          "name": "spender",
          "type": "address"
        },
        {
          "internalType": "uint256",
          "name": "subtractedValue",
          "type": "uint256"
        }
      ],
      "name": "decreaseAllowance",
      "outputs": [
        {
          "internalType": "bool",
          "name": "",
          "type": "bool"
        }
      ],
      "stateMutability": "nonpayable",
      "type": "function"
    },
    {
      "inputs": [
        {
          "internalType": "address",
          "name": "spender",
          "type": "address"
        },
        {
          "internalType": "uint256",
          "name": "addedValue",
          "type": "uint256"
        }
      ],
      "name": "increaseAllowance",
      "outputs": [
        {
          "internalType": "bool",
          "name": "",
          "type": "bool"
        }
      ],
      "stateMutability": "nonpayable",
      "type": "function"
    },
    {
      "inputs": [],
      "name": "name",
      "outputs": [
        {
          "internalType": "string",
          "name": "",
          "type": "string"
        }
      ],
      "stateMutability": "view",
      "type": "function"
    },
    {
      "inputs": [],
      "name": "symbol",
      "outputs": [
        {
          "internalType": "string",
          "name": "",
          "type": "string"
        }
      ],
      "stateMutability": "view",
      "type": "function"
    },
    {
      "inputs": [],
      "name": "totalSupply",
      "outputs": [
        {
          "internalType": "uint256",
          "name": "",
          "type": "uint256"
        }
      ],
      "stateMutability": "view",
      "type": "function"
    },
    {
      "inputs": [
        {
          "internalType": "address",
          "name": "recipient",
          "type": "address"
        },
        {
          "internalType": "uint256",
          "name": "amount",
          "type": "uint256"
        }
      ],
      "name": "transfer",
      "outputs": [
        {
          "internalType": "bool",
          "name": "",
          "type": "bool"
        }
      ],
      "stateMutability": "nonpayable",
      "type": "function"
    },
    {
      "inputs": [
        {
          "internalType": "address",
          "name": "sender",
          "type": "address"
        },
        {
          "internalType": "address",
          "name": "recipient",
          "type": "address"
        },
        {
          "internalType": "uint256",
          "name": "amount",
          "type": "uint256"
        }
      ],
      "name": "transferFrom",
      "outputs": [
        {
          "internalType": "bool",
          "name": "",
          "type": "bool"
        }
      ],
      "stateMutability": "nonpayable",
      "type": "function"
    },
    {
      "inputs": [
        {
          "internalType": "address",
          "name": "_owner",
          "type": "address"
        }
      ],
      "name": "initialize",
      "outputs": [],
      "stateMutability": "nonpayable",
      "type": "function"
    },
    {
      "inputs": [
        {
          "internalType": "address",
          "name": "to",
          "type": "address"
        },
        {
          "internalType": "uint256",
          "name": "mintQuantity",
          "type": "uint256"
        }
      ],
      "name": "requestToken",
      "outputs": [],
      "stateMutability": "nonpayable",
      "type": "function"
    },
    {
      "inputs": [
        {
          "internalType": "address",
          "name": "_contract",
          "type": "address"
        },
        {
          "internalType": "uint256",
          "name": "_price",
          "type": "uint256"
        },
        {
          "internalType": "uint256",
          "name": "_type",
          "type": "uint256"
        }
      ],
      "name": "addContractToWhitelist",
      "outputs": [],
      "stateMutability": "nonpayable",
      "type": "function"
    },
    {
      "inputs": [
        {
          "internalType": "address",
          "name": "_contract",
          "type": "address"
        }
      ],
      "name": "removeContractFromWhitelist",
      "outputs": [],
      "stateMutability": "nonpayable",
      "type": "function"
    },
    {
      "inputs": [
        {
          "internalType": "address",
          "name": "_contract",
          "type": "address"
        },
        {
          "internalType": "bytes4",
          "name": "_functionSig",
          "type": "bytes4"
        },
        {
          "internalType": "uint256",
          "name": "price",
          "type": "uint256"
        }
      ],
      "name": "addFunctionPrice",
      "outputs": [],
      "stateMutability": "nonpayable",
      "type": "function"
    },
    {
      "inputs": [
        {
          "internalType": "address",
          "name": "_contract",
          "type": "address"
        },
        {
          "internalType": "bytes4",
          "name": "_functionSig",
          "type": "bytes4"
        }
      ],
      "name": "getFunctionPrice",
      "outputs": [
        {
          "internalType": "uint256",
          "name": "price",
          "type": "uint256"
        }
      ],
      "stateMutability": "view",
      "type": "function"
    },
    {
      "inputs": [
        {
          "internalType": "address",
          "name": "contractAddr",
          "type": "address"
        },
        {
          "internalType": "address",
          "name": "userAddress",
          "type": "address"
        },
        {
          "internalType": "bool",
          "name": "status",
          "type": "bool"
        }
      ],
      "name": "setSubUserAddr",
      "outputs": [],
      "stateMutability": "nonpayable",
      "type": "function"
    },
    {
      "inputs": [
        {
          "internalType": "address",
          "name": "contractAddr",
          "type": "address"
        },
        {
          "internalType": "bool",
          "name": "status",
          "type": "bool"
        }
      ],
      "name": "changeProfilationStatus",
      "outputs": [],
      "stateMutability": "nonpayable",
      "type": "function"
    },
    {
      "inputs": [
        {
          "internalType": "address",
          "name": "_newOwner",
          "type": "address"
        }
      ],
      "name": "changeOwner",
      "outputs": [],
      "stateMutability": "nonpayable",
      "type": "function"
    },
    {
      "inputs": [
        {
          "internalType": "uint256",
          "name": "_maxSupply",
          "type": "uint256"
        },
        {
          "internalType": "bool",
          "name": "_lockSupply",
          "type": "bool"
        }
      ],
      "name": "changeSupplyData",
      "outputs": [],
      "stateMutability": "nonpayable",
      "type": "function"
    },
    {
      "inputs": [
        {
          "internalType": "address",
          "name": "_contract",
          "type": "address"
        },
        {
          "internalType": "bytes4",
          "name": "_functionSig",
          "type": "bytes4"
        },
        {
          "internalType": "address",
          "name": "addr",
          "type": "address"
        }
      ],
      "name": "receiveAndBurn",
      "outputs": [
        {
          "internalType": "bool",
          "name": "",
          "type": "bool"
        }
      ],
      "stateMutability": "nonpayable",
      "type": "function"
    },
    {
      "inputs": [
        {
          "internalType": "address",
          "name": "_contract",
          "type": "address"
        }
      ],
      "name": "getContractStatus",
      "outputs": [
        {
          "internalType": "bool",
          "name": "",
          "type": "bool"
        }
      ],
      "stateMutability": "view",
      "type": "function"
    },
    {
      "inputs": [
        {
          "internalType": "address",
          "name": "addr",
          "type": "address"
        }
      ],
      "name": "getNonces",
      "outputs": [
        {
          "internalType": "uint256",
          "name": "",
          "type": "uint256"
        }
      ],
      "stateMutability": "view",
      "type": "function"
    },
    {
      "inputs": [],
      "name": "getVersion",
      "outputs": [
        {
          "internalType": "string",
          "name": "",
          "type": "string"
        }
      ],
      "stateMutability": "pure",
      "type": "function"
    }
  ],
  "bytecode": "0x608060405260fd60085560126009556000600c60006101000a81548160ff0219169083151502179055503480156200003657600080fd5b5060405162003cfd38038062003cfd83398181016040528101906200005c9190620004dd565b6040518060400160405280600c81526020017f5061626c6f636b546f6b656e00000000000000000000000000000000000000008152506040518060400160405280600581526020017f302e322e33000000000000000000000000000000000000000000000000000000815250826040518060400160405280600c81526020017f5061626c6f636b546f6b656e00000000000000000000000000000000000000008152506040518060400160405280600381526020017f50544b000000000000000000000000000000000000000000000000000000000081525081600390805190602001906200014d92919062000388565b5080600490805190602001906200016692919062000388565b50505082600590805190602001906200018192919062000388565b5081600690805190602001906200019a92919062000388565b5080600760006101000a81548173ffffffffffffffffffffffffffffffffffffffff021916908373ffffffffffffffffffffffffffffffffffffffff1602179055508073ffffffffffffffffffffffffffffffffffffffff1663fc83158160056006306040518463ffffffff1660e01b81526004016200021d939291906200064c565b600060405180830381600087803b1580156200023857600080fd5b505af11580156200024d573d6000803e3d6000fd5b5050505050505062000264620002b360201b60201c565b600a60006101000a81548173ffffffffffffffffffffffffffffffffffffffff021916908373ffffffffffffffffffffffffffffffffffffffff16021790555081600b81905550505062000697565b6000600760009054906101000a900473ffffffffffffffffffffffffffffffffffffffff1673ffffffffffffffffffffffffffffffffffffffff163373ffffffffffffffffffffffffffffffffffffffff1614156200038157600080368080601f016020809104026020016040519081016040528093929190818152602001838380828437600081840152601f19601f820116905080830192505050505050509050600080369050905073ffffffffffffffffffffffffffffffffffffffff81830151169250505062000385565b3390505b90565b828054620003969062000553565b90600052602060002090601f016020900481019282620003ba576000855562000406565b82601f10620003d557805160ff191683800117855562000406565b8280016001018555821562000406579182015b8281111562000405578251825591602001919060010190620003e8565b5b50905062000415919062000419565b5090565b5b80821115620004345760008160009055506001016200041a565b5090565b600080fd5b6000819050919050565b62000452816200043d565b81146200045e57600080fd5b50565b600081519050620004728162000447565b92915050565b600073ffffffffffffffffffffffffffffffffffffffff82169050919050565b6000620004a58262000478565b9050919050565b620004b78162000498565b8114620004c357600080fd5b50565b600081519050620004d781620004ac565b92915050565b60008060408385031215620004f757620004f662000438565b5b6000620005078582860162000461565b92505060206200051a85828601620004c6565b9150509250929050565b7f4e487b7100000000000000000000000000000000000000000000000000000000600052602260045260246000fd5b600060028204905060018216806200056c57607f821691505b6020821081141562000583576200058262000524565b5b50919050565b600082825260208201905092915050565b60008190508160005260206000209050919050565b60008154620005be8162000553565b620005ca818662000589565b94506001821660008114620005e85760018114620005fb5762000632565b60ff198316865260208601935062000632565b62000606856200059a565b60005b838110156200062a5781548189015260018201915060208101905062000609565b808801955050505b50505092915050565b620006468162000498565b82525050565b60006060820190508181036000830152620006688186620005af565b905081810360208301526200067e8185620005af565b90506200068f60408301846200063b565b949350505050565b61365680620006a76000396000f3fe608060405234801561001057600080fd5b50600436106101735760003560e01c80635124ae95116100de578063a6f9dae111610097578063c4d66de811610071578063c4d66de814610482578063d3d111c61461049e578063dd62ed3e146104ba578063dd99464a146104ea57610173565b8063a6f9dae11461041a578063a9059cbb14610436578063b480bfff1461046657610173565b80635124ae95146103345780636635dc171461036457806370a0823114610380578063915cee74146103b057806395d89b41146103cc578063a457c2d7146103ea57610173565b80631d006d77116101305780631d006d771461024e5780631e885db71461027e57806323b872dd1461029a578063313ce567146102ca57806339509351146102e85780634016fd851461031857610173565b806306fdde0314610178578063095ea7b3146101965780630d8e6e2c146101c6578063125716d6146101e457806318160ddd146102145780631c11fce214610232575b600080fd5b61018061051a565b60405161018d919061264d565b60405180910390f35b6101b060048036038101906101ab9190612708565b6105ac565b6040516101bd9190612763565b60405180910390f35b6101ce6105ca565b6040516101db919061264d565b60405180910390f35b6101fe60048036038101906101f9919061277e565b610607565b60405161020b9190612763565b60405180910390f35b61021c610660565b60405161022991906127ba565b60405180910390f35b61024c60048036038101906102479190612708565b61066a565b005b6102686004803603810190610263919061282d565b610795565b60405161027591906127ba565b60405180910390f35b6102986004803603810190610293919061286d565b610831565b005b6102b460048036038101906102af91906128c0565b610a73565b6040516102c19190612763565b60405180910390f35b6102d2610b6b565b6040516102df919061292f565b60405180910390f35b61030260048036038101906102fd9190612708565b610b74565b60405161030f9190612763565b60405180910390f35b610332600480360381019061032d9190612976565b610c20565b005b61034e6004803603810190610349919061277e565b610d55565b60405161035b91906127ba565b60405180910390f35b61037e600480360381019061037991906129b6565b610d9e565b005b61039a6004803603810190610395919061277e565b610ed0565b6040516103a791906127ba565b60405180910390f35b6103ca60048036038101906103c59190612a09565b610f18565b005b6103d46110b6565b6040516103e1919061264d565b60405180910390f35b61040460048036038101906103ff9190612708565b611148565b6040516104119190612763565b60405180910390f35b610434600480360381019061042f919061277e565b611233565b005b610450600480360381019061044b9190612708565b61130e565b60405161045d9190612763565b60405180910390f35b610480600480360381019061047b919061277e565b61132c565b005b61049c6004803603810190610497919061277e565b611421565b005b6104b860048036038101906104b39190612a5c565b6114fc565b005b6104d460048036038101906104cf9190612a9c565b6115b8565b6040516104e191906127ba565b60405180910390f35b61050460048036038101906104ff9190612adc565b61163f565b6040516105119190612763565b60405180910390f35b60606003805461052990612b5e565b80601f016020809104026020016040519081016040528092919081815260200182805461055590612b5e565b80156105a25780601f10610577576101008083540402835291602001916105a2565b820191906000526020600020905b81548152906001019060200180831161058557829003601f168201915b5050505050905090565b60006105c06105b9611bcc565b8484611bd4565b6001905092915050565b60606040518060400160405280601a81526020017f5061626c6f636b546f6b656e2076657273696f6e20302e322e33000000000000815250905090565b6000600d60008373ffffffffffffffffffffffffffffffffffffffff1673ffffffffffffffffffffffffffffffffffffffff16815260200190815260200160002060010160009054906101000a900460ff169050919050565b6000600254905090565b610672611d9f565b73ffffffffffffffffffffffffffffffffffffffff16600a60009054906101000a900473ffffffffffffffffffffffffffffffffffffffff1673ffffffffffffffffffffffffffffffffffffffff1614610701576040517f08c379a00000000000000000000000000000000000000000000000000000000081526004016106f890612bdc565b60405180910390fd5b600c60009054906101000a900460ff161561076e578061071f610660565b6107299190612c2b565b600b54101561076d576040517f08c379a000000000000000000000000000000000000000000000000000000000815260040161076490612ccd565b60405180910390fd5b5b61079182600954600a6107819190612e20565b8361078c9190612e6b565b611e72565b5050565b6000600d60008473ffffffffffffffffffffffffffffffffffffffff1673ffffffffffffffffffffffffffffffffffffffff1681526020019081526020016000206002016000837bffffffffffffffffffffffffffffffffffffffffffffffffffffffff19167bffffffffffffffffffffffffffffffffffffffffffffffffffffffff1916815260200190815260200160002054905092915050565b610839611d9f565b73ffffffffffffffffffffffffffffffffffffffff16600a60009054906101000a900473ffffffffffffffffffffffffffffffffffffffff1673ffffffffffffffffffffffffffffffffffffffff16146108c8576040517f08c379a00000000000000000000000000000000000000000000000000000000081526004016108bf90612bdc565b60405180910390fd5b6001600d60008573ffffffffffffffffffffffffffffffffffffffff1673ffffffffffffffffffffffffffffffffffffffff16815260200190815260200160002060010160006101000a81548160ff02191690831515021790555081600d60008573ffffffffffffffffffffffffffffffffffffffff1673ffffffffffffffffffffffffffffffffffffffff1681526020019081526020016000206000018190555080600381111561097d5761097c612ec5565b5b600d60008573ffffffffffffffffffffffffffffffffffffffff1673ffffffffffffffffffffffffffffffffffffffff16815260200190815260200160002060010160016101000a81548160ff021916908360038111156109e1576109e0612ec5565b5b02179055506109ee611d9f565b600d60008573ffffffffffffffffffffffffffffffffffffffff1673ffffffffffffffffffffffffffffffffffffffff16815260200190815260200160002060040160016101000a81548173ffffffffffffffffffffffffffffffffffffffff021916908373ffffffffffffffffffffffffffffffffffffffff160217905550505050565b6000610a80848484611fd2565b6000600160008673ffffffffffffffffffffffffffffffffffffffff1673ffffffffffffffffffffffffffffffffffffffff1681526020019081526020016000206000610acb611bcc565b73ffffffffffffffffffffffffffffffffffffffff1673ffffffffffffffffffffffffffffffffffffffff16815260200190815260200160002054905082811015610b4b576040517f08c379a0000000000000000000000000000000000000000000000000000000008152600401610b4290612f66565b60405180910390fd5b610b5f85610b57611bcc565b858403611bd4565b60019150509392505050565b60006012905090565b6000610c16610b81611bcc565b848460016000610b8f611bcc565b73ffffffffffffffffffffffffffffffffffffffff1673ffffffffffffffffffffffffffffffffffffffff16815260200190815260200160002060008873ffffffffffffffffffffffffffffffffffffffff1673ffffffffffffffffffffffffffffffffffffffff16815260200190815260200160002054610c119190612c2b565b611bd4565b6001905092915050565b610c28611d9f565b73ffffffffffffffffffffffffffffffffffffffff16600d60008473ffffffffffffffffffffffffffffffffffffffff1673ffffffffffffffffffffffffffffffffffffffff16815260200190815260200160002060040160019054906101000a900473ffffffffffffffffffffffffffffffffffffffff1673ffffffffffffffffffffffffffffffffffffffff1614610cf7576040517f08c379a0000000000000000000000000000000000000000000000000000000008152600401610cee90612fd2565b60405180910390fd5b80600d60008473ffffffffffffffffffffffffffffffffffffffff1673ffffffffffffffffffffffffffffffffffffffff16815260200190815260200160002060040160006101000a81548160ff0219169083151502179055505050565b6000600e60008373ffffffffffffffffffffffffffffffffffffffff1673ffffffffffffffffffffffffffffffffffffffff168152602001908152602001600020549050919050565b610da6611d9f565b73ffffffffffffffffffffffffffffffffffffffff16600a60009054906101000a900473ffffffffffffffffffffffffffffffffffffffff1673ffffffffffffffffffffffffffffffffffffffff1614610e35576040517f08c379a0000000000000000000000000000000000000000000000000000000008152600401610e2c90612bdc565b60405180910390fd5b80600d60008573ffffffffffffffffffffffffffffffffffffffff1673ffffffffffffffffffffffffffffffffffffffff1681526020019081526020016000206002016000847bffffffffffffffffffffffffffffffffffffffffffffffffffffffff19167bffffffffffffffffffffffffffffffffffffffffffffffffffffffff1916815260200190815260200160002081905550505050565b60008060008373ffffffffffffffffffffffffffffffffffffffff1673ffffffffffffffffffffffffffffffffffffffff168152602001908152602001600020549050919050565b610f20611d9f565b73ffffffffffffffffffffffffffffffffffffffff16600d60008573ffffffffffffffffffffffffffffffffffffffff1673ffffffffffffffffffffffffffffffffffffffff16815260200190815260200160002060040160019054906101000a900473ffffffffffffffffffffffffffffffffffffffff1673ffffffffffffffffffffffffffffffffffffffff1614610fef576040517f08c379a0000000000000000000000000000000000000000000000000000000008152600401610fe690612fd2565b60405180910390fd5b61101a610ffa611d9f565b600954600a6110099190612e20565b60016110159190612e6b565b612253565b80600d60008573ffffffffffffffffffffffffffffffffffffffff1673ffffffffffffffffffffffffffffffffffffffff16815260200190815260200160002060030160008473ffffffffffffffffffffffffffffffffffffffff1673ffffffffffffffffffffffffffffffffffffffff16815260200190815260200160002060006101000a81548160ff021916908315150217905550505050565b6060600480546110c590612b5e565b80601f01602080910402602001604051908101604052809291908181526020018280546110f190612b5e565b801561113e5780601f106111135761010080835404028352916020019161113e565b820191906000526020600020905b81548152906001019060200180831161112157829003601f168201915b5050505050905090565b60008060016000611157611bcc565b73ffffffffffffffffffffffffffffffffffffffff1673ffffffffffffffffffffffffffffffffffffffff16815260200190815260200160002060008573ffffffffffffffffffffffffffffffffffffffff1673ffffffffffffffffffffffffffffffffffffffff16815260200190815260200160002054905082811015611214576040517f08c379a000000000000000000000000000000000000000000000000000000000815260040161120b90613064565b60405180910390fd5b61122861121f611bcc565b85858403611bd4565b600191505092915050565b61123b611d9f565b73ffffffffffffffffffffffffffffffffffffffff16600a60009054906101000a900473ffffffffffffffffffffffffffffffffffffffff1673ffffffffffffffffffffffffffffffffffffffff16146112ca576040517f08c379a00000000000000000000000000000000000000000000000000000000081526004016112c190612bdc565b60405180910390fd5b80600a60006101000a81548173ffffffffffffffffffffffffffffffffffffffff021916908373ffffffffffffffffffffffffffffffffffffffff16021790555050565b600061132261131b611bcc565b8484611fd2565b6001905092915050565b611334611d9f565b73ffffffffffffffffffffffffffffffffffffffff16600a60009054906101000a900473ffffffffffffffffffffffffffffffffffffffff1673ffffffffffffffffffffffffffffffffffffffff16146113c3576040517f08c379a00000000000000000000000000000000000000000000000000000000081526004016113ba90612bdc565b60405180910390fd5b6000600d60008373ffffffffffffffffffffffffffffffffffffffff1673ffffffffffffffffffffffffffffffffffffffff16815260200190815260200160002060010160006101000a81548160ff02191690831515021790555050565b611429611d9f565b73ffffffffffffffffffffffffffffffffffffffff16600a60009054906101000a900473ffffffffffffffffffffffffffffffffffffffff1673ffffffffffffffffffffffffffffffffffffffff16146114b8576040517f08c379a00000000000000000000000000000000000000000000000000000000081526004016114af90612bdc565b60405180910390fd5b80600a60006101000a81548173ffffffffffffffffffffffffffffffffffffffff021916908373ffffffffffffffffffffffffffffffffffffffff16021790555050565b611504611d9f565b73ffffffffffffffffffffffffffffffffffffffff16600a60009054906101000a900473ffffffffffffffffffffffffffffffffffffffff1673ffffffffffffffffffffffffffffffffffffffff1614611593576040517f08c379a000000000000000000000000000000000000000000000000000000000815260040161158a90612bdc565b60405180910390fd5b81600b8190555080600c60006101000a81548160ff0219169083151502179055505050565b6000600160008473ffffffffffffffffffffffffffffffffffffffff1673ffffffffffffffffffffffffffffffffffffffff16815260200190815260200160002060008373ffffffffffffffffffffffffffffffffffffffff1673ffffffffffffffffffffffffffffffffffffffff16815260200190815260200160002054905092915050565b600083600d60008273ffffffffffffffffffffffffffffffffffffffff1673ffffffffffffffffffffffffffffffffffffffff16815260200190815260200160002060010160009054906101000a900460ff166116d1576040517f08c379a00000000000000000000000000000000000000000000000000000000081526004016116c8906130d0565b60405180910390fd5b84600260038111156116e6576116e5612ec5565b5b600d60008373ffffffffffffffffffffffffffffffffffffffff1673ffffffffffffffffffffffffffffffffffffffff16815260200190815260200160002060010160019054906101000a900460ff16600381111561174857611747612ec5565b5b14158061182157506002600381111561176457611763612ec5565b5b600d60008373ffffffffffffffffffffffffffffffffffffffff1673ffffffffffffffffffffffffffffffffffffffff16815260200190815260200160002060010160019054906101000a900460ff1660038111156117c6576117c5612ec5565b5b1480156118205750600d60008273ffffffffffffffffffffffffffffffffffffffff1673ffffffffffffffffffffffffffffffffffffffff16815260200190815260200160002060040160009054906101000a900460ff16155b5b8061193b57506002600381111561183b5761183a612ec5565b5b600d60008373ffffffffffffffffffffffffffffffffffffffff1673ffffffffffffffffffffffffffffffffffffffff16815260200190815260200160002060010160019054906101000a900460ff16600381111561189d5761189c612ec5565b5b14801561193a5750600d60008273ffffffffffffffffffffffffffffffffffffffff1673ffffffffffffffffffffffffffffffffffffffff16815260200190815260200160002060030160006118f1611d9f565b73ffffffffffffffffffffffffffffffffffffffff1673ffffffffffffffffffffffffffffffffffffffff16815260200190815260200160002060009054906101000a900460ff165b5b61197a576040517f08c379a000000000000000000000000000000000000000000000000000000000815260040161197190613162565b60405180910390fd5b600a60009054906101000a900473ffffffffffffffffffffffffffffffffffffffff1673ffffffffffffffffffffffffffffffffffffffff166119bb611d9f565b73ffffffffffffffffffffffffffffffffffffffff1614158015611a525750600160038111156119ee576119ed612ec5565b5b600d60008873ffffffffffffffffffffffffffffffffffffffff1673ffffffffffffffffffffffffffffffffffffffff16815260200190815260200160002060010160019054906101000a900460ff166003811115611a5057611a4f612ec5565b5b145b8015611ad2575060006003811115611a6d57611a6c612ec5565b5b600d60008873ffffffffffffffffffffffffffffffffffffffff1673ffffffffffffffffffffffffffffffffffffffff16815260200190815260200160002060010160019054906101000a900460ff166003811115611acf57611ace612ec5565b5b14155b80611b8d57508573ffffffffffffffffffffffffffffffffffffffff16611af7611d9f565b73ffffffffffffffffffffffffffffffffffffffff16148015611b8c5750600380811115611b2857611b27612ec5565b5b600d60008873ffffffffffffffffffffffffffffffffffffffff1673ffffffffffffffffffffffffffffffffffffffff16815260200190815260200160002060010160019054906101000a900460ff166003811115611b8a57611b89612ec5565b5b145b5b15611bbf57611bbe84600954600a611ba59190612e20565b611baf898961242a565b611bb99190612e6b565b612253565b5b6001925050509392505050565b600033905090565b600073ffffffffffffffffffffffffffffffffffffffff168373ffffffffffffffffffffffffffffffffffffffff161415611c44576040517f08c379a0000000000000000000000000000000000000000000000000000000008152600401611c3b906131f4565b60405180910390fd5b600073ffffffffffffffffffffffffffffffffffffffff168273ffffffffffffffffffffffffffffffffffffffff161415611cb4576040517f08c379a0000000000000000000000000000000000000000000000000000000008152600401611cab90613286565b60405180910390fd5b80600160008573ffffffffffffffffffffffffffffffffffffffff1673ffffffffffffffffffffffffffffffffffffffff16815260200190815260200160002060008473ffffffffffffffffffffffffffffffffffffffff1673ffffffffffffffffffffffffffffffffffffffff168152602001908152602001600020819055508173ffffffffffffffffffffffffffffffffffffffff168373ffffffffffffffffffffffffffffffffffffffff167f8c5be1e5ebec7d5bd14f71427d1e84f3dd0314c0f7b2291e5b200ac8c7c3b92583604051611d9291906127ba565b60405180910390a3505050565b6000600760009054906101000a900473ffffffffffffffffffffffffffffffffffffffff1673ffffffffffffffffffffffffffffffffffffffff163373ffffffffffffffffffffffffffffffffffffffff161415611e6b57600080368080601f016020809104026020016040519081016040528093929190818152602001838380828437600081840152601f19601f820116905080830192505050505050509050600080369050905073ffffffffffffffffffffffffffffffffffffffff818301511692505050611e6f565b3390505b90565b600073ffffffffffffffffffffffffffffffffffffffff168273ffffffffffffffffffffffffffffffffffffffff161415611ee2576040517f08c379a0000000000000000000000000000000000000000000000000000000008152600401611ed9906132f2565b60405180910390fd5b611eee600083836125aa565b8060026000828254611f009190612c2b565b92505081905550806000808473ffffffffffffffffffffffffffffffffffffffff1673ffffffffffffffffffffffffffffffffffffffff1681526020019081526020016000206000828254611f559190612c2b565b925050819055508173ffffffffffffffffffffffffffffffffffffffff16600073ffffffffffffffffffffffffffffffffffffffff167fddf252ad1be2c89b69c2b068fc378daa952ba7f163c4a11628f55a4df523b3ef83604051611fba91906127ba565b60405180910390a3611fce600083836125af565b5050565b600073ffffffffffffffffffffffffffffffffffffffff168373ffffffffffffffffffffffffffffffffffffffff161415612042576040517f08c379a000000000000000000000000000000000000000000000000000000000815260040161203990613384565b60405180910390fd5b600073ffffffffffffffffffffffffffffffffffffffff168273ffffffffffffffffffffffffffffffffffffffff1614156120b2576040517f08c379a00000000000000000000000000000000000000000000000000000000081526004016120a990613416565b60405180910390fd5b6120bd8383836125aa565b60008060008573ffffffffffffffffffffffffffffffffffffffff1673ffffffffffffffffffffffffffffffffffffffff16815260200190815260200160002054905081811015612143576040517f08c379a000000000000000000000000000000000000000000000000000000000815260040161213a906134a8565b60405180910390fd5b8181036000808673ffffffffffffffffffffffffffffffffffffffff1673ffffffffffffffffffffffffffffffffffffffff16815260200190815260200160002081905550816000808573ffffffffffffffffffffffffffffffffffffffff1673ffffffffffffffffffffffffffffffffffffffff16815260200190815260200160002060008282546121d69190612c2b565b925050819055508273ffffffffffffffffffffffffffffffffffffffff168473ffffffffffffffffffffffffffffffffffffffff167fddf252ad1be2c89b69c2b068fc378daa952ba7f163c4a11628f55a4df523b3ef8460405161223a91906127ba565b60405180910390a361224d8484846125af565b50505050565b600073ffffffffffffffffffffffffffffffffffffffff168273ffffffffffffffffffffffffffffffffffffffff1614156122c3576040517f08c379a00000000000000000000000000000000000000000000000000000000081526004016122ba9061353a565b60405180910390fd5b6122cf826000836125aa565b60008060008473ffffffffffffffffffffffffffffffffffffffff1673ffffffffffffffffffffffffffffffffffffffff16815260200190815260200160002054905081811015612355576040517f08c379a000000000000000000000000000000000000000000000000000000000815260040161234c906135cc565b60405180910390fd5b8181036000808573ffffffffffffffffffffffffffffffffffffffff1673ffffffffffffffffffffffffffffffffffffffff1681526020019081526020016000208190555081600260008282546123ac91906135ec565b92505081905550600073ffffffffffffffffffffffffffffffffffffffff168373ffffffffffffffffffffffffffffffffffffffff167fddf252ad1be2c89b69c2b068fc378daa952ba7f163c4a11628f55a4df523b3ef8460405161241191906127ba565b60405180910390a3612425836000846125af565b505050565b600080600d60008573ffffffffffffffffffffffffffffffffffffffff1673ffffffffffffffffffffffffffffffffffffffff1681526020019081526020016000206002016000847bffffffffffffffffffffffffffffffffffffffffffffffffffffffff19167bffffffffffffffffffffffffffffffffffffffffffffffffffffffff1916815260200190815260200160002054141561250f57600d60008473ffffffffffffffffffffffffffffffffffffffff1673ffffffffffffffffffffffffffffffffffffffff1681526020019081526020016000206000015490506125a4565b600d60008473ffffffffffffffffffffffffffffffffffffffff1673ffffffffffffffffffffffffffffffffffffffff1681526020019081526020016000206002016000837bffffffffffffffffffffffffffffffffffffffffffffffffffffffff19167bffffffffffffffffffffffffffffffffffffffffffffffffffffffff191681526020019081526020016000205490505b92915050565b505050565b505050565b600081519050919050565b600082825260208201905092915050565b60005b838110156125ee5780820151818401526020810190506125d3565b838111156125fd576000848401525b50505050565b6000601f19601f8301169050919050565b600061261f826125b4565b61262981856125bf565b93506126398185602086016125d0565b61264281612603565b840191505092915050565b600060208201905081810360008301526126678184612614565b905092915050565b600080fd5b600073ffffffffffffffffffffffffffffffffffffffff82169050919050565b600061269f82612674565b9050919050565b6126af81612694565b81146126ba57600080fd5b50565b6000813590506126cc816126a6565b92915050565b6000819050919050565b6126e5816126d2565b81146126f057600080fd5b50565b600081359050612702816126dc565b92915050565b6000806040838503121561271f5761271e61266f565b5b600061272d858286016126bd565b925050602061273e858286016126f3565b9150509250929050565b60008115159050919050565b61275d81612748565b82525050565b60006020820190506127786000830184612754565b92915050565b6000602082840312156127945761279361266f565b5b60006127a2848285016126bd565b91505092915050565b6127b4816126d2565b82525050565b60006020820190506127cf60008301846127ab565b92915050565b60007fffffffff0000000000000000000000000000000000000000000000000000000082169050919050565b61280a816127d5565b811461281557600080fd5b50565b60008135905061282781612801565b92915050565b600080604083850312156128445761284361266f565b5b6000612852858286016126bd565b925050602061286385828601612818565b9150509250929050565b6000806000606084860312156128865761288561266f565b5b6000612894868287016126bd565b93505060206128a5868287016126f3565b92505060406128b6868287016126f3565b9150509250925092565b6000806000606084860312156128d9576128d861266f565b5b60006128e7868287016126bd565b93505060206128f8868287016126bd565b9250506040612909868287016126f3565b9150509250925092565b600060ff82169050919050565b61292981612913565b82525050565b60006020820190506129446000830184612920565b92915050565b61295381612748565b811461295e57600080fd5b50565b6000813590506129708161294a565b92915050565b6000806040838503121561298d5761298c61266f565b5b600061299b858286016126bd565b92505060206129ac85828601612961565b9150509250929050565b6000806000606084860312156129cf576129ce61266f565b5b60006129dd868287016126bd565b93505060206129ee86828701612818565b92505060406129ff868287016126f3565b9150509250925092565b600080600060608486031215612a2257612a2161266f565b5b6000612a30868287016126bd565b9350506020612a41868287016126bd565b9250506040612a5286828701612961565b9150509250925092565b60008060408385031215612a7357612a7261266f565b5b6000612a81858286016126f3565b9250506020612a9285828601612961565b9150509250929050565b60008060408385031215612ab357612ab261266f565b5b6000612ac1858286016126bd565b9250506020612ad2858286016126bd565b9150509250929050565b600080600060608486031215612af557612af461266f565b5b6000612b03868287016126bd565b9350506020612b1486828701612818565b9250506040612b25868287016126bd565b9150509250925092565b7f4e487b7100000000000000000000000000000000000000000000000000000000600052602260045260246000fd5b60006002820490506001821680612b7657607f821691505b60208210811415612b8a57612b89612b2f565b5b50919050565b7f4e6f7420616c6c6f776564000000000000000000000000000000000000000000600082015250565b6000612bc6600b836125bf565b9150612bd182612b90565b602082019050919050565b60006020820190508181036000830152612bf581612bb9565b9050919050565b7f4e487b7100000000000000000000000000000000000000000000000000000000600052601160045260246000fd5b6000612c36826126d2565b9150612c41836126d2565b9250827fffffffffffffffffffffffffffffffffffffffffffffffffffffffffffffffff03821115612c7657612c75612bfc565b5b828201905092915050565b7f576f756c6420657863656564206d617820737570706c79000000000000000000600082015250565b6000612cb76017836125bf565b9150612cc282612c81565b602082019050919050565b60006020820190508181036000830152612ce681612caa565b9050919050565b60008160011c9050919050565b6000808291508390505b6001851115612d4457808604811115612d2057612d1f612bfc565b5b6001851615612d2f5780820291505b8081029050612d3d85612ced565b9450612d04565b94509492505050565b600082612d5d5760019050612e19565b81612d6b5760009050612e19565b8160018114612d815760028114612d8b57612dba565b6001915050612e19565b60ff841115612d9d57612d9c612bfc565b5b8360020a915084821115612db457612db3612bfc565b5b50612e19565b5060208310610133831016604e8410600b8410161715612def5782820a905083811115612dea57612de9612bfc565b5b612e19565b612dfc8484846001612cfa565b92509050818404811115612e1357612e12612bfc565b5b81810290505b9392505050565b6000612e2b826126d2565b9150612e36836126d2565b9250612e637fffffffffffffffffffffffffffffffffffffffffffffffffffffffffffffffff8484612d4d565b905092915050565b6000612e76826126d2565b9150612e81836126d2565b9250817fffffffffffffffffffffffffffffffffffffffffffffffffffffffffffffffff0483118215151615612eba57612eb9612bfc565b5b828202905092915050565b7f4e487b7100000000000000000000000000000000000000000000000000000000600052602160045260246000fd5b7f45524332303a207472616e7366657220616d6f756e742065786365656473206160008201527f6c6c6f77616e6365000000000000000000000000000000000000000000000000602082015250565b6000612f506028836125bf565b9150612f5b82612ef4565b604082019050919050565b60006020820190508181036000830152612f7f81612f43565b9050919050565b7f41646472657373206e6f7420617574686f72697a656400000000000000000000600082015250565b6000612fbc6016836125bf565b9150612fc782612f86565b602082019050919050565b60006020820190508181036000830152612feb81612faf565b9050919050565b7f45524332303a2064656372656173656420616c6c6f77616e63652062656c6f7760008201527f207a65726f000000000000000000000000000000000000000000000000000000602082015250565b600061304e6025836125bf565b915061305982612ff2565b604082019050919050565b6000602082019050818103600083015261307d81613041565b9050919050565b7f436f6e7472616374206e6f7420616c6c6f776564000000000000000000000000600082015250565b60006130ba6014836125bf565b91506130c582613084565b602082019050919050565b600060208201905081810360008301526130e9816130ad565b9050919050565b7f55736572206e6f7420616c6c6f77656420746f20657865637574652066756e6360008201527f74696f6e00000000000000000000000000000000000000000000000000000000602082015250565b600061314c6024836125bf565b9150613157826130f0565b604082019050919050565b6000602082019050818103600083015261317b8161313f565b9050919050565b7f45524332303a20617070726f76652066726f6d20746865207a65726f2061646460008201527f7265737300000000000000000000000000000000000000000000000000000000602082015250565b60006131de6024836125bf565b91506131e982613182565b604082019050919050565b6000602082019050818103600083015261320d816131d1565b9050919050565b7f45524332303a20617070726f766520746f20746865207a65726f20616464726560008201527f7373000000000000000000000000000000000000000000000000000000000000602082015250565b60006132706022836125bf565b915061327b82613214565b604082019050919050565b6000602082019050818103600083015261329f81613263565b9050919050565b7f45524332303a206d696e7420746f20746865207a65726f206164647265737300600082015250565b60006132dc601f836125bf565b91506132e7826132a6565b602082019050919050565b6000602082019050818103600083015261330b816132cf565b9050919050565b7f45524332303a207472616e736665722066726f6d20746865207a65726f20616460008201527f6472657373000000000000000000000000000000000000000000000000000000602082015250565b600061336e6025836125bf565b915061337982613312565b604082019050919050565b6000602082019050818103600083015261339d81613361565b9050919050565b7f45524332303a207472616e7366657220746f20746865207a65726f206164647260008201527f6573730000000000000000000000000000000000000000000000000000000000602082015250565b60006134006023836125bf565b915061340b826133a4565b604082019050919050565b6000602082019050818103600083015261342f816133f3565b9050919050565b7f45524332303a207472616e7366657220616d6f756e742065786365656473206260008201527f616c616e63650000000000000000000000000000000000000000000000000000602082015250565b60006134926026836125bf565b915061349d82613436565b604082019050919050565b600060208201905081810360008301526134c181613485565b9050919050565b7f45524332303a206275726e2066726f6d20746865207a65726f2061646472657360008201527f7300000000000000000000000000000000000000000000000000000000000000602082015250565b60006135246021836125bf565b915061352f826134c8565b604082019050919050565b6000602082019050818103600083015261355381613517565b9050919050565b7f45524332303a206275726e20616d6f756e7420657863656564732062616c616e60008201527f6365000000000000000000000000000000000000000000000000000000000000602082015250565b60006135b66022836125bf565b91506135c18261355a565b604082019050919050565b600060208201905081810360008301526135e5816135a9565b9050919050565b60006135f7826126d2565b9150613602836126d2565b92508282101561361557613614612bfc565b5b82820390509291505056fea2646970667358221220d0a3f013f9761880e8765e427394f1ddab8db22d8c6883f2c1648ebc768d76e664736f6c63430008090033",
  "immutableReferences": {},
  "source": "// SPDX-License-Identifier: MIT\npragma solidity ^0.8.9;\n\nimport \"@openzeppelin/contracts/token/ERC20/ERC20.sol\";\nimport \"./PablockMetaTxReceiver.sol\";\nimport \"./lib/EIP712Base.sol\";\n\ncontract PablockToken is ERC20, PablockMetaTxReceiver {\n    /**\n     * NOTESET -> not correctly configured\n     * CONSUME -> users need to have PTK in order to execute ops\n     * SUBSCRIPTION -> users with subscription contract, have a flat monthly fee to execute as many request\n     * INTERNAL -> used by Pablock cotracts\n     */\n    enum SubscriptionType {NOTSET, CONSUME, SUBSCRIPTION, INTERNAL}\n\n    struct WhiteListedContract {\n        uint256 defaultPrice;\n        bool isSet;\n        SubscriptionType subscriptionType;\n        mapping(bytes4 => uint256) functionPrices;\n        mapping(address => bool) allowedAddresses;\n        bool profilationEnabled;\n        address contractOwner;\n    }\n\n    uint256 MAX_ALLOWANCE = 2 ^ (256 - 1);\n    uint256 DECIMALS = 18;\n\n    address contractOwner;\n\n    //Supply data\n    uint256 maxSupply;\n    bool lockSupply = false;\n\n    mapping(address => WhiteListedContract) private contractWhitelist;\n    mapping(address => uint256) private nonces;\n\n    modifier byOwner() {\n        require(contractOwner == msgSender(), \"Not allowed\");\n        _;\n    }\n\n    modifier onlyWhitelisted(address contractAddr) {\n        require(contractWhitelist[contractAddr].isSet, \"Contract not allowed\");\n        _;\n    }\n\n    modifier checkProfilation(address _contract) {\n        require(\n            contractWhitelist[_contract].subscriptionType !=\n                SubscriptionType.SUBSCRIPTION ||\n                (contractWhitelist[_contract].subscriptionType ==\n                    SubscriptionType.SUBSCRIPTION &&\n                    !contractWhitelist[_contract].profilationEnabled) ||\n                (contractWhitelist[_contract].subscriptionType ==\n                    SubscriptionType.SUBSCRIPTION &&\n                    contractWhitelist[_contract].allowedAddresses[msgSender()]),\n            \"User not allowed to execute function\"\n        );\n        _;\n    }\n\n    constructor(uint256 _maxSupply, address _metaTxAddr)\n        ERC20(\"PablockToken\", \"PTK\")\n        PablockMetaTxReceiver(\"PablockToken\", \"0.2.3\", _metaTxAddr)\n    {\n        contractOwner = msgSender();\n        maxSupply = _maxSupply;\n    }\n\n    function initialize(address _owner) public byOwner {\n        contractOwner = _owner;\n    }\n\n    function requestToken(address to, uint256 mintQuantity) public byOwner {\n        if (lockSupply) {\n            require(\n                (maxSupply >= totalSupply() + mintQuantity),\n                \"Would exceed max supply\"\n            );\n        }\n\n        _mint(to, mintQuantity * 10**DECIMALS);\n    }\n\n    function addContractToWhitelist(\n        address _contract,\n        uint256 _price,\n        uint256 _type\n    ) public byOwner {\n        contractWhitelist[_contract].isSet = true;\n        contractWhitelist[_contract].defaultPrice = _price;\n        contractWhitelist[_contract].subscriptionType = SubscriptionType(_type);\n        contractWhitelist[_contract].contractOwner = msgSender();\n    }\n\n    function removeContractFromWhitelist(address _contract) public byOwner {\n        contractWhitelist[_contract].isSet = false;\n    }\n\n    function addFunctionPrice(\n        address _contract,\n        bytes4 _functionSig,\n        uint256 price\n    ) public byOwner {\n        contractWhitelist[_contract].functionPrices[_functionSig] = price;\n    }\n\n    function getFunctionPrice(address _contract, bytes4 _functionSig)\n        public\n        view\n        returns (uint256 price)\n    {\n        return contractWhitelist[_contract].functionPrices[_functionSig];\n    }\n\n    function setSubUserAddr(\n        address contractAddr,\n        address userAddress,\n        bool status\n    ) public {\n        require(\n            contractWhitelist[contractAddr].contractOwner == msgSender(),\n            \"Address not authorized\"\n        );\n\n        _burn(msgSender(), 1 * 10**DECIMALS);\n\n        contractWhitelist[contractAddr].allowedAddresses[userAddress] = status;\n    }\n\n    function changeProfilationStatus(address contractAddr, bool status) public {\n        require(\n            contractWhitelist[contractAddr].contractOwner == msgSender(),\n            \"Address not authorized\"\n        );\n        contractWhitelist[contractAddr].profilationEnabled = status;\n    }\n\n    function changeOwner(address _newOwner) public byOwner {\n        contractOwner = _newOwner;\n    }\n\n    function changeSupplyData(uint256 _maxSupply, bool _lockSupply)\n        public\n        byOwner\n    {\n        maxSupply = _maxSupply;\n        lockSupply = _lockSupply;\n    }\n\n    function receiveAndBurn(\n        address _contract,\n        bytes4 _functionSig,\n        address addr\n    )\n        public\n        onlyWhitelisted(_contract)\n        checkProfilation(_contract)\n        returns (bool)\n    {\n        if (\n            (msgSender() != contractOwner &&\n                contractWhitelist[_contract].subscriptionType ==\n                SubscriptionType.CONSUME &&\n                contractWhitelist[_contract].subscriptionType !=\n                SubscriptionType.NOTSET) ||\n            (msgSender() == _contract &&\n                contractWhitelist[_contract].subscriptionType ==\n                SubscriptionType.INTERNAL)\n        ) {\n            _burn(addr, getPrice(_contract, _functionSig) * 10**DECIMALS);\n        }\n        return true;\n    }\n\n    function getPrice(address _contract, bytes4 _functionSig)\n        internal\n        view\n        returns (uint256)\n    {\n        if (contractWhitelist[_contract].functionPrices[_functionSig] == 0) {\n            return contractWhitelist[_contract].defaultPrice;\n        } else {\n            return contractWhitelist[_contract].functionPrices[_functionSig];\n        }\n    }\n\n    function getContractStatus(address _contract) public view returns (bool) {\n        return contractWhitelist[_contract].isSet;\n    }\n\n    function getNonces(address addr) external view returns (uint256) {\n        return nonces[addr];\n    }\n\n    function getVersion() public pure returns (string memory) {\n        return \"PablockToken version 0.2.3\";\n    }\n}\n",
  "sourcePath": "/home/riccardo/WorkspaceLavoro/pablock/pablock-smartcontracts/contracts/PablockToken.sol",
  "compiler": {
    "name": "solc",
    "version": "0.8.9+commit.e5eed63a.Emscripten.clang"
  },
  "schemaVersion": "3.3.4",
  "updatedAt": "2021-12-06T18:55:25.141Z",
  "devdoc": {
    "kind": "dev",
    "methods": {
      "allowance(address,address)": {
        "details": "See {IERC20-allowance}."
      },
      "approve(address,uint256)": {
        "details": "See {IERC20-approve}. Requirements: - `spender` cannot be the zero address."
      },
      "balanceOf(address)": {
        "details": "See {IERC20-balanceOf}."
      },
      "decimals()": {
        "details": "Returns the number of decimals used to get its user representation. For example, if `decimals` equals `2`, a balance of `505` tokens should be displayed to a user as `5.05` (`505 / 10 ** 2`). Tokens usually opt for a value of 18, imitating the relationship between Ether and Wei. This is the value {ERC20} uses, unless this function is overridden; NOTE: This information is only used for _display_ purposes: it in no way affects any of the arithmetic of the contract, including {IERC20-balanceOf} and {IERC20-transfer}."
      },
      "decreaseAllowance(address,uint256)": {
        "details": "Atomically decreases the allowance granted to `spender` by the caller. This is an alternative to {approve} that can be used as a mitigation for problems described in {IERC20-approve}. Emits an {Approval} event indicating the updated allowance. Requirements: - `spender` cannot be the zero address. - `spender` must have allowance for the caller of at least `subtractedValue`."
      },
      "increaseAllowance(address,uint256)": {
        "details": "Atomically increases the allowance granted to `spender` by the caller. This is an alternative to {approve} that can be used as a mitigation for problems described in {IERC20-approve}. Emits an {Approval} event indicating the updated allowance. Requirements: - `spender` cannot be the zero address."
      },
      "name()": {
        "details": "Returns the name of the token."
      },
      "symbol()": {
        "details": "Returns the symbol of the token, usually a shorter version of the name."
      },
      "totalSupply()": {
        "details": "See {IERC20-totalSupply}."
      },
      "transfer(address,uint256)": {
        "details": "See {IERC20-transfer}. Requirements: - `recipient` cannot be the zero address. - the caller must have a balance of at least `amount`."
      },
      "transferFrom(address,address,uint256)": {
        "details": "See {IERC20-transferFrom}. Emits an {Approval} event indicating the updated allowance. This is not required by the EIP. See the note at the beginning of {ERC20}. Requirements: - `sender` and `recipient` cannot be the zero address. - `sender` must have a balance of at least `amount`. - the caller must have allowance for ``sender``'s tokens of at least `amount`."
      }
    },
    "version": 1
  },
  "userdoc": {
    "kind": "user",
    "methods": {},
    "version": 1
  }
}