{
  "contractName": "PablockMultiSignNotarization",
  "abi": [
    {
      "inputs": [
        {
          "internalType": "bytes32",
          "name": "_hash",
          "type": "bytes32"
        },
        {
          "internalType": "address[]",
          "name": "_signers",
          "type": "address[]"
        },
        {
          "internalType": "string",
          "name": "_uri",
          "type": "string"
        },
        {
          "internalType": "uint256",
          "name": "_expirationDate",
          "type": "uint256"
        },
        {
          "internalType": "address",
          "name": "_pablockTokenAddress",
          "type": "address"
        },
        {
          "internalType": "address",
          "name": "_metaTxAddress",
          "type": "address"
        }
      ],
      "stateMutability": "nonpayable",
      "type": "constructor"
    },
    {
      "inputs": [],
      "name": "signDocument",
      "outputs": [],
      "stateMutability": "nonpayable",
      "type": "function"
    },
    {
      "inputs": [],
      "name": "getNotarizationData",
      "outputs": [
        {
          "internalType": "bytes32",
          "name": "",
          "type": "bytes32"
        },
        {
          "internalType": "string",
          "name": "",
          "type": "string"
        },
        {
          "internalType": "uint256",
          "name": "",
          "type": "uint256"
        }
      ],
      "stateMutability": "view",
      "type": "function"
    },
    {
      "inputs": [],
      "name": "getURI",
      "outputs": [
        {
          "internalType": "string",
          "name": "",
          "type": "string"
        }
      ],
      "stateMutability": "view",
      "type": "function"
    },
    {
      "inputs": [
        {
          "internalType": "address",
          "name": "signer",
          "type": "address"
        }
      ],
      "name": "getSignerStatus",
      "outputs": [
        {
          "internalType": "bool",
          "name": "",
          "type": "bool"
        }
      ],
      "stateMutability": "view",
      "type": "function"
    },
    {
      "inputs": [],
      "name": "getVersion",
      "outputs": [
        {
          "internalType": "string",
          "name": "",
          "type": "string"
        }
      ],
      "stateMutability": "view",
      "type": "function"
    }
  ],
  "bytecode": "0x60806040523480156200001157600080fd5b50604051620012db380380620012db83398181016040528101906200003791906200069b565b6040518060400160405280601c81526020017f5061626c6f636b4d756c74695369676e4e6f746172697a6174696f6e000000008152506040518060400160405280600581526020017f302e322e31000000000000000000000000000000000000000000000000000000815250828260009080519060200190620000bc92919062000298565b508160019080519060200190620000d592919062000298565b5080600260006101000a81548173ffffffffffffffffffffffffffffffffffffffff021916908373ffffffffffffffffffffffffffffffffffffffff1602179055508073ffffffffffffffffffffffffffffffffffffffff1663fc83158160006001306040518463ffffffff1660e01b815260040162000158939291906200089d565b600060405180830381600087803b1580156200017357600080fd5b505af115801562000188573d6000803e3d6000fd5b505050505050508560058190555081600360006101000a81548173ffffffffffffffffffffffffffffffffffffffff021916908373ffffffffffffffffffffffffffffffffffffffff1602179055508360069080519060200190620001ef92919062000298565b5060005b85518110156200028b57600160046000888481518110620002195762000218620008e8565b5b602002602001015173ffffffffffffffffffffffffffffffffffffffff1673ffffffffffffffffffffffffffffffffffffffff16815260200190815260200160002060000160006101000a81548160ff0219169083151502179055508080620002829062000946565b915050620001f3565b5050505050505062000994565b828054620002a690620007a4565b90600052602060002090601f016020900481019282620002ca576000855562000316565b82601f10620002e557805160ff191683800117855562000316565b8280016001018555821562000316579182015b8281111562000315578251825591602001919060010190620002f8565b5b50905062000325919062000329565b5090565b5b80821115620003445760008160009055506001016200032a565b5090565b6000604051905090565b600080fd5b600080fd5b6000819050919050565b62000371816200035c565b81146200037d57600080fd5b50565b600081519050620003918162000366565b92915050565b600080fd5b6000601f19601f8301169050919050565b7f4e487b7100000000000000000000000000000000000000000000000000000000600052604160045260246000fd5b620003e7826200039c565b810181811067ffffffffffffffff82111715620004095762000408620003ad565b5b80604052505050565b60006200041e62000348565b90506200042c8282620003dc565b919050565b600067ffffffffffffffff8211156200044f576200044e620003ad565b5b602082029050602081019050919050565b600080fd5b600073ffffffffffffffffffffffffffffffffffffffff82169050919050565b6000620004928262000465565b9050919050565b620004a48162000485565b8114620004b057600080fd5b50565b600081519050620004c48162000499565b92915050565b6000620004e1620004db8462000431565b62000412565b9050808382526020820190506020840283018581111562000507576200050662000460565b5b835b818110156200053457806200051f8882620004b3565b84526020840193505060208101905062000509565b5050509392505050565b600082601f83011262000556576200055562000397565b5b815162000568848260208601620004ca565b91505092915050565b600080fd5b600067ffffffffffffffff821115620005945762000593620003ad565b5b6200059f826200039c565b9050602081019050919050565b60005b83811015620005cc578082015181840152602081019050620005af565b83811115620005dc576000848401525b50505050565b6000620005f9620005f38462000576565b62000412565b90508281526020810184848401111562000618576200061762000571565b5b62000625848285620005ac565b509392505050565b600082601f83011262000645576200064462000397565b5b815162000657848260208601620005e2565b91505092915050565b6000819050919050565b620006758162000660565b81146200068157600080fd5b50565b60008151905062000695816200066a565b92915050565b60008060008060008060c08789031215620006bb57620006ba62000352565b5b6000620006cb89828a0162000380565b965050602087015167ffffffffffffffff811115620006ef57620006ee62000357565b5b620006fd89828a016200053e565b955050604087015167ffffffffffffffff81111562000721576200072062000357565b5b6200072f89828a016200062d565b94505060606200074289828a0162000684565b93505060806200075589828a01620004b3565b92505060a06200076889828a01620004b3565b9150509295509295509295565b7f4e487b7100000000000000000000000000000000000000000000000000000000600052602260045260246000fd5b60006002820490506001821680620007bd57607f821691505b60208210811415620007d457620007d362000775565b5b50919050565b600082825260208201905092915050565b60008190508160005260206000209050919050565b600081546200080f81620007a4565b6200081b8186620007da565b945060018216600081146200083957600181146200084c5762000883565b60ff198316865260208601935062000883565b6200085785620007eb565b60005b838110156200087b578154818901526001820191506020810190506200085a565b808801955050505b50505092915050565b620008978162000485565b82525050565b60006060820190508181036000830152620008b9818662000800565b90508181036020830152620008cf818562000800565b9050620008e060408301846200088c565b949350505050565b7f4e487b7100000000000000000000000000000000000000000000000000000000600052603260045260246000fd5b7f4e487b7100000000000000000000000000000000000000000000000000000000600052601160045260246000fd5b6000620009538262000660565b91507fffffffffffffffffffffffffffffffffffffffffffffffffffffffffffffffff82141562000989576200098862000917565b5b600182019050919050565b61093780620009a46000396000f3fe608060405234801561001057600080fd5b50600436106100575760003560e01c80630d8e6e2c1461005c5780632b4ee7991461007a5780637754305c1461009a578063bb0b6816146100b8578063e695402a146100c2575b600080fd5b6100646100f2565b6040516100719190610602565b60405180910390f35b61008261012f565b60405161009193929190610656565b60405180910390f35b6100a26101d4565b6040516100af9190610602565b60405180910390f35b6100c0610266565b005b6100dc60048036038101906100d791906106f7565b61043d565b6040516100e9919061073f565b60405180910390f35b60606040518060400160405280600d81526020017f56657273696f6e20302e312e3000000000000000000000000000000000000000815250905090565b600060606000600554600660075481805461014990610789565b80601f016020809104026020016040519081016040528092919081815260200182805461017590610789565b80156101c25780601f10610197576101008083540402835291602001916101c2565b820191906000526020600020905b8154815290600101906020018083116101a557829003601f168201915b50505050509150925092509250909192565b6060600680546101e390610789565b80601f016020809104026020016040519081016040528092919081815260200182805461020f90610789565b801561025c5780601f106102315761010080835404028352916020019161025c565b820191906000526020600020905b81548152906001019060200180831161023f57829003601f168201915b5050505050905090565b60046000610272610496565b73ffffffffffffffffffffffffffffffffffffffff1673ffffffffffffffffffffffffffffffffffffffff16815260200190815260200160002060000160009054906101000a900460ff166102fc576040517f08c379a00000000000000000000000000000000000000000000000000000000081526004016102f390610807565b60405180910390fd5b600360009054906101000a900473ffffffffffffffffffffffffffffffffffffffff1673ffffffffffffffffffffffffffffffffffffffff1663dd99464a306000357fffffffff0000000000000000000000000000000000000000000000000000000016610368610496565b6040518463ffffffff1660e01b815260040161038693929190610871565b602060405180830381600087803b1580156103a057600080fd5b505af11580156103b4573d6000803e3d6000fd5b505050506040513d601f19601f820116820180604052508101906103d891906108d4565b506001600460006103e7610496565b73ffffffffffffffffffffffffffffffffffffffff1673ffffffffffffffffffffffffffffffffffffffff16815260200190815260200160002060000160016101000a81548160ff021916908315150217905550565b6000600460008373ffffffffffffffffffffffffffffffffffffffff1673ffffffffffffffffffffffffffffffffffffffff16815260200190815260200160002060000160019054906101000a900460ff169050919050565b6000600260009054906101000a900473ffffffffffffffffffffffffffffffffffffffff1673ffffffffffffffffffffffffffffffffffffffff163373ffffffffffffffffffffffffffffffffffffffff16141561056257600080368080601f016020809104026020016040519081016040528093929190818152602001838380828437600081840152601f19601f820116905080830192505050505050509050600080369050905073ffffffffffffffffffffffffffffffffffffffff818301511692505050610566565b3390505b90565b600081519050919050565b600082825260208201905092915050565b60005b838110156105a3578082015181840152602081019050610588565b838111156105b2576000848401525b50505050565b6000601f19601f8301169050919050565b60006105d482610569565b6105de8185610574565b93506105ee818560208601610585565b6105f7816105b8565b840191505092915050565b6000602082019050818103600083015261061c81846105c9565b905092915050565b6000819050919050565b61063781610624565b82525050565b6000819050919050565b6106508161063d565b82525050565b600060608201905061066b600083018661062e565b818103602083015261067d81856105c9565b905061068c6040830184610647565b949350505050565b600080fd5b600073ffffffffffffffffffffffffffffffffffffffff82169050919050565b60006106c482610699565b9050919050565b6106d4816106b9565b81146106df57600080fd5b50565b6000813590506106f1816106cb565b92915050565b60006020828403121561070d5761070c610694565b5b600061071b848285016106e2565b91505092915050565b60008115159050919050565b61073981610724565b82525050565b60006020820190506107546000830184610730565b92915050565b7f4e487b7100000000000000000000000000000000000000000000000000000000600052602260045260246000fd5b600060028204905060018216806107a157607f821691505b602082108114156107b5576107b461075a565b5b50919050565b7f5369676e65727320646f6573206e6f7420657869737473000000000000000000600082015250565b60006107f1601783610574565b91506107fc826107bb565b602082019050919050565b60006020820190508181036000830152610820816107e4565b9050919050565b610830816106b9565b82525050565b60007fffffffff0000000000000000000000000000000000000000000000000000000082169050919050565b61086b81610836565b82525050565b60006060820190506108866000830186610827565b6108936020830185610862565b6108a06040830184610827565b949350505050565b6108b181610724565b81146108bc57600080fd5b50565b6000815190506108ce816108a8565b92915050565b6000602082840312156108ea576108e9610694565b5b60006108f8848285016108bf565b9150509291505056fea2646970667358221220c8c6fbbddb42c8e4fd8a7d1f2bf0c96ac19e93a53b706278d0bc94ab3826f0a564736f6c63430008090033",
  "immutableReferences": {},
  "source": "// SPDX-License-Identifier: MIT\n\npragma solidity ^0.8.9;\n\nimport \"../PablockMetaTxReceiver.sol\";\nimport \"../PablockToken.sol\";\n\npragma experimental ABIEncoderV2;\n\ncontract PablockMultiSignNotarization is PablockMetaTxReceiver {\n    address private pablockTokenAddress;\n\n    struct Signer {\n        // address addr;\n        bool initialized;\n        bool signed;\n    }\n\n    // mapping(address => uint256) private indexOfSigners;\n    mapping(address => Signer) private signers;\n\n    bytes32 private hash;\n    string private uri;\n    uint256 private expirationDate;\n\n    // Signer[] private signers;\n\n    constructor(\n        bytes32 _hash,\n        address[] memory _signers,\n        string memory _uri,\n        uint256 _expirationDate,\n        address _pablockTokenAddress,\n        address _metaTxAddress\n    )\n        PablockMetaTxReceiver(\n            \"PablockMultiSignNotarization\",\n            \"0.2.1\",\n            _metaTxAddress\n        )\n    {\n        hash = _hash;\n        pablockTokenAddress = _pablockTokenAddress;\n        uri = _uri;\n        // expirationDate = _expirationDate;\n\n        for (uint256 i = 0; i < _signers.length; i++) {\n            // signers.push(Signer(_signers[i], true, false));\n            // indexOfSigners[_signers[i]] = i;\n            signers[_signers[i]].initialized = true;\n        }\n    }\n\n    //Need to integrate signature to sign with meta transaction, otherwise anyone can firm any address\n    function signDocument() public {\n        // require(signers[indexOfSigners[msgSender()]].initialized, \"Signers does not exists\");\n        require(signers[msgSender()].initialized, \"Signers does not exists\");\n\n        PablockToken(pablockTokenAddress).receiveAndBurn(\n            address(this),\n            msg.sig,\n            msgSender()\n        );\n\n        signers[msgSender()].signed = true;\n    }\n\n    function getNotarizationData()\n        public\n        view\n        returns (\n            bytes32,\n            string memory,\n            uint256\n        )\n    {\n        return (hash, uri, expirationDate);\n    }\n\n    function getURI() public view returns (string memory) {\n        return uri;\n    }\n\n    function getSignerStatus(address signer) public view returns (bool) {\n        // return signers[indexOfSigners[signer]].signed;\n        return signers[signer].signed;\n    }\n\n    function getVersion() public view returns (string memory) {\n        return \"Version 0.1.0\";\n    }\n}\n",
  "sourcePath": "/home/riccardo/WorkspaceLavoro/pablock/pablock-smartcontracts/contracts/pablock/PablockMultiSignNotarization.sol",
  "compiler": {
    "name": "solc",
    "version": "0.8.9+commit.e5eed63a.Emscripten.clang"
  },
  "schemaVersion": "3.3.4",
  "updatedAt": "2021-12-06T18:55:25.182Z",
  "devdoc": {
    "kind": "dev",
    "methods": {},
    "version": 1
  },
  "userdoc": {
    "kind": "user",
    "methods": {},
    "version": 1
  }
}