{
  "contractName": "PablockMultiSignFactory",
  "abi": [
    {
      "inputs": [
        {
          "internalType": "address",
          "name": "_pablockTokenAddress",
          "type": "address"
        },
        {
          "internalType": "address",
          "name": "_metaTxAddress",
          "type": "address"
        }
      ],
      "stateMutability": "nonpayable",
      "type": "constructor"
    },
    {
      "anonymous": false,
      "inputs": [
        {
          "indexed": false,
          "internalType": "address",
          "name": "multiSignAddress",
          "type": "address"
        }
      ],
      "name": "NewPablockMultiSignNotarization",
      "type": "event"
    },
    {
      "inputs": [
        {
          "internalType": "bytes32",
          "name": "hash",
          "type": "bytes32"
        },
        {
          "internalType": "address[]",
          "name": "signers",
          "type": "address[]"
        },
        {
          "internalType": "string",
          "name": "uri",
          "type": "string"
        },
        {
          "internalType": "uint256",
          "name": "expirationDate",
          "type": "uint256"
        }
      ],
      "name": "createNewMultiSignNotarization",
      "outputs": [],
      "stateMutability": "nonpayable",
      "type": "function"
    },
    {
      "inputs": [
        {
          "internalType": "address",
          "name": "contractAddr",
          "type": "address"
        }
      ],
      "name": "initialize",
      "outputs": [],
      "stateMutability": "nonpayable",
      "type": "function"
    },
    {
      "inputs": [],
      "name": "getVersion",
      "outputs": [
        {
          "internalType": "string",
          "name": "",
          "type": "string"
        }
      ],
      "stateMutability": "pure",
      "type": "function"
    }
  ],
  "bytecode": "0x60806040523480156200001157600080fd5b506040516200249138038062002491833981810160405281019062000037919062000333565b6040518060400160405280601781526020017f5061626c6f636b4d756c74695369676e466163746f72790000000000000000008152506040518060400160405280600581526020017f302e312e31000000000000000000000000000000000000000000000000000000815250828260009080519060200190620000bc92919062000219565b508160019080519060200190620000d592919062000219565b5080600260006101000a81548173ffffffffffffffffffffffffffffffffffffffff021916908373ffffffffffffffffffffffffffffffffffffffff1602179055508073ffffffffffffffffffffffffffffffffffffffff1663fc83158160006001306040518463ffffffff1660e01b81526004016200015893929190620004a2565b600060405180830381600087803b1580156200017357600080fd5b505af115801562000188573d6000803e3d6000fd5b5050505050505033600360006101000a81548173ffffffffffffffffffffffffffffffffffffffff021916908373ffffffffffffffffffffffffffffffffffffffff16021790555081600460006101000a81548173ffffffffffffffffffffffffffffffffffffffff021916908373ffffffffffffffffffffffffffffffffffffffff1602179055505050620004ed565b8280546200022790620003a9565b90600052602060002090601f0160209004810192826200024b576000855562000297565b82601f106200026657805160ff191683800117855562000297565b8280016001018555821562000297579182015b828111156200029657825182559160200191906001019062000279565b5b509050620002a69190620002aa565b5090565b5b80821115620002c5576000816000905550600101620002ab565b5090565b600080fd5b600073ffffffffffffffffffffffffffffffffffffffff82169050919050565b6000620002fb82620002ce565b9050919050565b6200030d81620002ee565b81146200031957600080fd5b50565b6000815190506200032d8162000302565b92915050565b600080604083850312156200034d576200034c620002c9565b5b60006200035d858286016200031c565b925050602062000370858286016200031c565b9150509250929050565b7f4e487b7100000000000000000000000000000000000000000000000000000000600052602260045260246000fd5b60006002820490506001821680620003c257607f821691505b60208210811415620003d957620003d86200037a565b5b50919050565b600082825260208201905092915050565b60008190508160005260206000209050919050565b600081546200041481620003a9565b620004208186620003df565b945060018216600081146200043e5760018114620004515762000488565b60ff198316865260208601935062000488565b6200045c85620003f0565b60005b8381101562000480578154818901526001820191506020810190506200045f565b808801955050505b50505092915050565b6200049c81620002ee565b82525050565b60006060820190508181036000830152620004be818662000405565b90508181036020830152620004d4818562000405565b9050620004e5604083018462000491565b949350505050565b611f9480620004fd6000396000f3fe60806040523480156200001157600080fd5b5060043610620000465760003560e01c80630d8e6e2c146200004b578063c4d66de8146200006d578063fa9602cc146200008d575b600080fd5b62000055620000ad565b604051620000649190620004cd565b60405180910390f35b6200008b60048036038101906200008591906200056a565b620000ea565b005b620000ab6004803603810190620000a591906200083e565b620001c1565b005b60606040518060400160405280600d81526020017f56657273696f6e20302e312e3100000000000000000000000000000000000000815250905090565b3373ffffffffffffffffffffffffffffffffffffffff16600360009054906101000a900473ffffffffffffffffffffffffffffffffffffffff1673ffffffffffffffffffffffffffffffffffffffff16146200017d576040517f08c379a000000000000000000000000000000000000000000000000000000000815260040162000174906200093e565b60405180910390fd5b80600460006101000a81548173ffffffffffffffffffffffffffffffffffffffff021916908373ffffffffffffffffffffffffffffffffffffffff16021790555050565b600073ffffffffffffffffffffffffffffffffffffffff16600260009054906101000a900473ffffffffffffffffffffffffffffffffffffffff1673ffffffffffffffffffffffffffffffffffffffff16141562000256576040517f08c379a00000000000000000000000000000000000000000000000000000000081526004016200024d90620009b0565b60405180910390fd5b600460009054906101000a900473ffffffffffffffffffffffffffffffffffffffff1673ffffffffffffffffffffffffffffffffffffffff1663dd99464a306000357fffffffff000000000000000000000000000000000000000000000000000000001686600081518110620002d157620002d0620009d2565b5b60200260200101516040518463ffffffff1660e01b8152600401620002f99392919062000a4f565b602060405180830381600087803b1580156200031457600080fd5b505af115801562000329573d6000803e3d6000fd5b505050506040513d601f19601f820116820180604052508101906200034f919062000ac9565b50600084848484600460009054906101000a900473ffffffffffffffffffffffffffffffffffffffff16600260009054906101000a900473ffffffffffffffffffffffffffffffffffffffff16604051620003aa906200041b565b620003bb9695949392919062000beb565b604051809103906000f080158015620003d8573d6000803e3d6000fd5b5090507faf02d9293594f840992bf3b01038ab15cf79256a14ab94c5a324e3c1615ff7a7816040516200040c919062000c66565b60405180910390a15050505050565b6112db8062000c8483390190565b600081519050919050565b600082825260208201905092915050565b60005b838110156200046557808201518184015260208101905062000448565b8381111562000475576000848401525b50505050565b6000601f19601f8301169050919050565b6000620004998262000429565b620004a5818562000434565b9350620004b781856020860162000445565b620004c2816200047b565b840191505092915050565b60006020820190508181036000830152620004e981846200048c565b905092915050565b6000604051905090565b600080fd5b600080fd5b600073ffffffffffffffffffffffffffffffffffffffff82169050919050565b6000620005328262000505565b9050919050565b620005448162000525565b81146200055057600080fd5b50565b600081359050620005648162000539565b92915050565b600060208284031215620005835762000582620004fb565b5b6000620005938482850162000553565b91505092915050565b6000819050919050565b620005b1816200059c565b8114620005bd57600080fd5b50565b600081359050620005d181620005a6565b92915050565b600080fd5b7f4e487b7100000000000000000000000000000000000000000000000000000000600052604160045260246000fd5b62000616826200047b565b810181811067ffffffffffffffff82111715620006385762000637620005dc565b5b80604052505050565b60006200064d620004f1565b90506200065b82826200060b565b919050565b600067ffffffffffffffff8211156200067e576200067d620005dc565b5b602082029050602081019050919050565b600080fd5b6000620006ab620006a58462000660565b62000641565b90508083825260208201905060208402830185811115620006d157620006d06200068f565b5b835b81811015620006fe5780620006e9888262000553565b845260208401935050602081019050620006d3565b5050509392505050565b600082601f83011262000720576200071f620005d7565b5b81356200073284826020860162000694565b91505092915050565b600080fd5b600067ffffffffffffffff8211156200075e576200075d620005dc565b5b62000769826200047b565b9050602081019050919050565b82818337600083830152505050565b60006200079c620007968462000740565b62000641565b905082815260208101848484011115620007bb57620007ba6200073b565b5b620007c884828562000776565b509392505050565b600082601f830112620007e857620007e7620005d7565b5b8135620007fa84826020860162000785565b91505092915050565b6000819050919050565b620008188162000803565b81146200082457600080fd5b50565b60008135905062000838816200080d565b92915050565b600080600080608085870312156200085b576200085a620004fb565b5b60006200086b87828801620005c0565b945050602085013567ffffffffffffffff8111156200088f576200088e62000500565b5b6200089d8782880162000708565b935050604085013567ffffffffffffffff811115620008c157620008c062000500565b5b620008cf87828801620007d0565b9250506060620008e28782880162000827565b91505092959194509250565b7f4e6f7420616c6c6f776564000000000000000000000000000000000000000000600082015250565b600062000926600b8362000434565b91506200093382620008ee565b602082019050919050565b60006020820190508181036000830152620009598162000917565b9050919050565b7f436f6e7472616374206e6f7420696e697469616c697a65640000000000000000600082015250565b60006200099860188362000434565b9150620009a58262000960565b602082019050919050565b60006020820190508181036000830152620009cb8162000989565b9050919050565b7f4e487b7100000000000000000000000000000000000000000000000000000000600052603260045260246000fd5b62000a0c8162000525565b82525050565b60007fffffffff0000000000000000000000000000000000000000000000000000000082169050919050565b62000a498162000a12565b82525050565b600060608201905062000a66600083018662000a01565b62000a75602083018562000a3e565b62000a84604083018462000a01565b949350505050565b60008115159050919050565b62000aa38162000a8c565b811462000aaf57600080fd5b50565b60008151905062000ac38162000a98565b92915050565b60006020828403121562000ae25762000ae1620004fb565b5b600062000af28482850162000ab2565b91505092915050565b62000b06816200059c565b82525050565b600081519050919050565b600082825260208201905092915050565b6000819050602082019050919050565b62000b438162000525565b82525050565b600062000b57838362000b38565b60208301905092915050565b6000602082019050919050565b600062000b7d8262000b0c565b62000b89818562000b17565b935062000b968362000b28565b8060005b8381101562000bcd57815162000bb1888262000b49565b975062000bbe8362000b63565b92505060018101905062000b9a565b5085935050505092915050565b62000be58162000803565b82525050565b600060c08201905062000c02600083018962000afb565b818103602083015262000c16818862000b70565b9050818103604083015262000c2c81876200048c565b905062000c3d606083018662000bda565b62000c4c608083018562000a01565b62000c5b60a083018462000a01565b979650505050505050565b600060208201905062000c7d600083018462000a01565b9291505056fe60806040523480156200001157600080fd5b50604051620012db380380620012db83398181016040528101906200003791906200069b565b6040518060400160405280601c81526020017f5061626c6f636b4d756c74695369676e4e6f746172697a6174696f6e000000008152506040518060400160405280600581526020017f302e322e31000000000000000000000000000000000000000000000000000000815250828260009080519060200190620000bc92919062000298565b508160019080519060200190620000d592919062000298565b5080600260006101000a81548173ffffffffffffffffffffffffffffffffffffffff021916908373ffffffffffffffffffffffffffffffffffffffff1602179055508073ffffffffffffffffffffffffffffffffffffffff1663fc83158160006001306040518463ffffffff1660e01b815260040162000158939291906200089d565b600060405180830381600087803b1580156200017357600080fd5b505af115801562000188573d6000803e3d6000fd5b505050505050508560058190555081600360006101000a81548173ffffffffffffffffffffffffffffffffffffffff021916908373ffffffffffffffffffffffffffffffffffffffff1602179055508360069080519060200190620001ef92919062000298565b5060005b85518110156200028b57600160046000888481518110620002195762000218620008e8565b5b602002602001015173ffffffffffffffffffffffffffffffffffffffff1673ffffffffffffffffffffffffffffffffffffffff16815260200190815260200160002060000160006101000a81548160ff0219169083151502179055508080620002829062000946565b915050620001f3565b5050505050505062000994565b828054620002a690620007a4565b90600052602060002090601f016020900481019282620002ca576000855562000316565b82601f10620002e557805160ff191683800117855562000316565b8280016001018555821562000316579182015b8281111562000315578251825591602001919060010190620002f8565b5b50905062000325919062000329565b5090565b5b80821115620003445760008160009055506001016200032a565b5090565b6000604051905090565b600080fd5b600080fd5b6000819050919050565b62000371816200035c565b81146200037d57600080fd5b50565b600081519050620003918162000366565b92915050565b600080fd5b6000601f19601f8301169050919050565b7f4e487b7100000000000000000000000000000000000000000000000000000000600052604160045260246000fd5b620003e7826200039c565b810181811067ffffffffffffffff82111715620004095762000408620003ad565b5b80604052505050565b60006200041e62000348565b90506200042c8282620003dc565b919050565b600067ffffffffffffffff8211156200044f576200044e620003ad565b5b602082029050602081019050919050565b600080fd5b600073ffffffffffffffffffffffffffffffffffffffff82169050919050565b6000620004928262000465565b9050919050565b620004a48162000485565b8114620004b057600080fd5b50565b600081519050620004c48162000499565b92915050565b6000620004e1620004db8462000431565b62000412565b9050808382526020820190506020840283018581111562000507576200050662000460565b5b835b818110156200053457806200051f8882620004b3565b84526020840193505060208101905062000509565b5050509392505050565b600082601f83011262000556576200055562000397565b5b815162000568848260208601620004ca565b91505092915050565b600080fd5b600067ffffffffffffffff821115620005945762000593620003ad565b5b6200059f826200039c565b9050602081019050919050565b60005b83811015620005cc578082015181840152602081019050620005af565b83811115620005dc576000848401525b50505050565b6000620005f9620005f38462000576565b62000412565b90508281526020810184848401111562000618576200061762000571565b5b62000625848285620005ac565b509392505050565b600082601f83011262000645576200064462000397565b5b815162000657848260208601620005e2565b91505092915050565b6000819050919050565b620006758162000660565b81146200068157600080fd5b50565b60008151905062000695816200066a565b92915050565b60008060008060008060c08789031215620006bb57620006ba62000352565b5b6000620006cb89828a0162000380565b965050602087015167ffffffffffffffff811115620006ef57620006ee62000357565b5b620006fd89828a016200053e565b955050604087015167ffffffffffffffff81111562000721576200072062000357565b5b6200072f89828a016200062d565b94505060606200074289828a0162000684565b93505060806200075589828a01620004b3565b92505060a06200076889828a01620004b3565b9150509295509295509295565b7f4e487b7100000000000000000000000000000000000000000000000000000000600052602260045260246000fd5b60006002820490506001821680620007bd57607f821691505b60208210811415620007d457620007d362000775565b5b50919050565b600082825260208201905092915050565b60008190508160005260206000209050919050565b600081546200080f81620007a4565b6200081b8186620007da565b945060018216600081146200083957600181146200084c5762000883565b60ff198316865260208601935062000883565b6200085785620007eb565b60005b838110156200087b578154818901526001820191506020810190506200085a565b808801955050505b50505092915050565b620008978162000485565b82525050565b60006060820190508181036000830152620008b9818662000800565b90508181036020830152620008cf818562000800565b9050620008e060408301846200088c565b949350505050565b7f4e487b7100000000000000000000000000000000000000000000000000000000600052603260045260246000fd5b7f4e487b7100000000000000000000000000000000000000000000000000000000600052601160045260246000fd5b6000620009538262000660565b91507fffffffffffffffffffffffffffffffffffffffffffffffffffffffffffffffff82141562000989576200098862000917565b5b600182019050919050565b61093780620009a46000396000f3fe608060405234801561001057600080fd5b50600436106100575760003560e01c80630d8e6e2c1461005c5780632b4ee7991461007a5780637754305c1461009a578063bb0b6816146100b8578063e695402a146100c2575b600080fd5b6100646100f2565b6040516100719190610602565b60405180910390f35b61008261012f565b60405161009193929190610656565b60405180910390f35b6100a26101d4565b6040516100af9190610602565b60405180910390f35b6100c0610266565b005b6100dc60048036038101906100d791906106f7565b61043d565b6040516100e9919061073f565b60405180910390f35b60606040518060400160405280600d81526020017f56657273696f6e20302e312e3000000000000000000000000000000000000000815250905090565b600060606000600554600660075481805461014990610789565b80601f016020809104026020016040519081016040528092919081815260200182805461017590610789565b80156101c25780601f10610197576101008083540402835291602001916101c2565b820191906000526020600020905b8154815290600101906020018083116101a557829003601f168201915b50505050509150925092509250909192565b6060600680546101e390610789565b80601f016020809104026020016040519081016040528092919081815260200182805461020f90610789565b801561025c5780601f106102315761010080835404028352916020019161025c565b820191906000526020600020905b81548152906001019060200180831161023f57829003601f168201915b5050505050905090565b60046000610272610496565b73ffffffffffffffffffffffffffffffffffffffff1673ffffffffffffffffffffffffffffffffffffffff16815260200190815260200160002060000160009054906101000a900460ff166102fc576040517f08c379a00000000000000000000000000000000000000000000000000000000081526004016102f390610807565b60405180910390fd5b600360009054906101000a900473ffffffffffffffffffffffffffffffffffffffff1673ffffffffffffffffffffffffffffffffffffffff1663dd99464a306000357fffffffff0000000000000000000000000000000000000000000000000000000016610368610496565b6040518463ffffffff1660e01b815260040161038693929190610871565b602060405180830381600087803b1580156103a057600080fd5b505af11580156103b4573d6000803e3d6000fd5b505050506040513d601f19601f820116820180604052508101906103d891906108d4565b506001600460006103e7610496565b73ffffffffffffffffffffffffffffffffffffffff1673ffffffffffffffffffffffffffffffffffffffff16815260200190815260200160002060000160016101000a81548160ff021916908315150217905550565b6000600460008373ffffffffffffffffffffffffffffffffffffffff1673ffffffffffffffffffffffffffffffffffffffff16815260200190815260200160002060000160019054906101000a900460ff169050919050565b6000600260009054906101000a900473ffffffffffffffffffffffffffffffffffffffff1673ffffffffffffffffffffffffffffffffffffffff163373ffffffffffffffffffffffffffffffffffffffff16141561056257600080368080601f016020809104026020016040519081016040528093929190818152602001838380828437600081840152601f19601f820116905080830192505050505050509050600080369050905073ffffffffffffffffffffffffffffffffffffffff818301511692505050610566565b3390505b90565b600081519050919050565b600082825260208201905092915050565b60005b838110156105a3578082015181840152602081019050610588565b838111156105b2576000848401525b50505050565b6000601f19601f8301169050919050565b60006105d482610569565b6105de8185610574565b93506105ee818560208601610585565b6105f7816105b8565b840191505092915050565b6000602082019050818103600083015261061c81846105c9565b905092915050565b6000819050919050565b61063781610624565b82525050565b6000819050919050565b6106508161063d565b82525050565b600060608201905061066b600083018661062e565b818103602083015261067d81856105c9565b905061068c6040830184610647565b949350505050565b600080fd5b600073ffffffffffffffffffffffffffffffffffffffff82169050919050565b60006106c482610699565b9050919050565b6106d4816106b9565b81146106df57600080fd5b50565b6000813590506106f1816106cb565b92915050565b60006020828403121561070d5761070c610694565b5b600061071b848285016106e2565b91505092915050565b60008115159050919050565b61073981610724565b82525050565b60006020820190506107546000830184610730565b92915050565b7f4e487b7100000000000000000000000000000000000000000000000000000000600052602260045260246000fd5b600060028204905060018216806107a157607f821691505b602082108114156107b5576107b461075a565b5b50919050565b7f5369676e65727320646f6573206e6f7420657869737473000000000000000000600082015250565b60006107f1601783610574565b91506107fc826107bb565b602082019050919050565b60006020820190508181036000830152610820816107e4565b9050919050565b610830816106b9565b82525050565b60007fffffffff0000000000000000000000000000000000000000000000000000000082169050919050565b61086b81610836565b82525050565b60006060820190506108866000830186610827565b6108936020830185610862565b6108a06040830184610827565b949350505050565b6108b181610724565b81146108bc57600080fd5b50565b6000815190506108ce816108a8565b92915050565b6000602082840312156108ea576108e9610694565b5b60006108f8848285016108bf565b9150509291505056fea2646970667358221220c8c6fbbddb42c8e4fd8a7d1f2bf0c96ac19e93a53b706278d0bc94ab3826f0a564736f6c63430008090033a2646970667358221220f44c5e236a023b2f600d92cf4f5655c6fe8a072a88e4397be78a934793ea1d6264736f6c63430008090033",
  "immutableReferences": {},
  "source": "// SPDX-License-Identifier: MIT\npragma solidity ^0.8.9;\n\nimport \"./PablockMultiSignNotarization.sol\";\nimport \"../PablockToken.sol\";\n\ncontract PablockMultiSignFactory is PablockMetaTxReceiver {\n\n   address private contractOwner;\n   address private pablockTokenAddress;\n   \n   event NewPablockMultiSignNotarization(address multiSignAddress);\n\n   constructor(address _pablockTokenAddress, address _metaTxAddress) PablockMetaTxReceiver(\"PablockMultiSignFactory\", \"0.1.1\", _metaTxAddress){\n        contractOwner = msg.sender;\n        pablockTokenAddress = _pablockTokenAddress;\n   }\n    \n   function createNewMultiSignNotarization(bytes32 hash, address[] memory signers, string memory uri, uint256 expirationDate) public initialized {//returns (PablockMultiSignNotarization){\n        \n        PablockToken(pablockTokenAddress).receiveAndBurn(address(this), msg.sig, signers[0]);\n\n        PablockMultiSignNotarization _multiSign =\n            new PablockMultiSignNotarization(\n                hash,\n                signers,\n                uri,\n                expirationDate, \n                pablockTokenAddress,\n                metaTxAddress\n            );\n        emit NewPablockMultiSignNotarization(address(_multiSign));\n\n\n        // return _multiSign;\n    }\n\n    modifier byOwner(){\n        require(contractOwner == msg.sender, \"Not allowed\");\n        _;\n    }\n    \n\n    function initialize (address contractAddr) public byOwner {\n        pablockTokenAddress = contractAddr;\n    }\n\n    function getVersion() public pure returns (string memory){\n        return \"Version 0.1.1\";\n    }\n}",
  "sourcePath": "/home/riccardo/WorkspaceLavoro/pablock/pablock-smartcontracts/contracts/pablock/PablockMultiSignFactory.sol",
  "compiler": {
    "name": "solc",
    "version": "0.8.9+commit.e5eed63a.Emscripten.clang"
  },
  "schemaVersion": "3.3.4",
  "updatedAt": "2021-12-06T18:55:25.173Z",
  "devdoc": {
    "kind": "dev",
    "methods": {},
    "version": 1
  },
  "userdoc": {
    "kind": "user",
    "methods": {},
    "version": 1
  }
}