{
  "contractName": "PablockNFT",
  "abi": [
    {
      "inputs": [
        {
          "internalType": "string",
          "name": "_tokenName",
          "type": "string"
        },
        {
          "internalType": "string",
          "name": "_tokenSymbol",
          "type": "string"
        },
        {
          "internalType": "address",
          "name": "_pablockTokenAddress",
          "type": "address"
        },
        {
          "internalType": "address",
          "name": "_metaTxAddress",
          "type": "address"
        }
      ],
      "stateMutability": "nonpayable",
      "type": "constructor"
    },
    {
      "anonymous": false,
      "inputs": [
        {
          "indexed": true,
          "internalType": "address",
          "name": "owner",
          "type": "address"
        },
        {
          "indexed": true,
          "internalType": "address",
          "name": "approved",
          "type": "address"
        },
        {
          "indexed": true,
          "internalType": "uint256",
          "name": "tokenId",
          "type": "uint256"
        }
      ],
      "name": "Approval",
      "type": "event"
    },
    {
      "anonymous": false,
      "inputs": [
        {
          "indexed": true,
          "internalType": "address",
          "name": "owner",
          "type": "address"
        },
        {
          "indexed": true,
          "internalType": "address",
          "name": "operator",
          "type": "address"
        },
        {
          "indexed": false,
          "internalType": "bool",
          "name": "approved",
          "type": "bool"
        }
      ],
      "name": "ApprovalForAll",
      "type": "event"
    },
    {
      "anonymous": false,
      "inputs": [
        {
          "indexed": true,
          "internalType": "address",
          "name": "from",
          "type": "address"
        },
        {
          "indexed": true,
          "internalType": "string",
          "name": "uri",
          "type": "string"
        },
        {
          "indexed": false,
          "internalType": "uint256[]",
          "name": "",
          "type": "uint256[]"
        }
      ],
      "name": "TokenGeneration",
      "type": "event"
    },
    {
      "anonymous": false,
      "inputs": [
        {
          "indexed": true,
          "internalType": "address",
          "name": "from",
          "type": "address"
        },
        {
          "indexed": true,
          "internalType": "address",
          "name": "to",
          "type": "address"
        },
        {
          "indexed": true,
          "internalType": "uint256",
          "name": "tokenId",
          "type": "uint256"
        }
      ],
      "name": "Transfer",
      "type": "event"
    },
    {
      "inputs": [
        {
          "internalType": "address",
          "name": "to",
          "type": "address"
        },
        {
          "internalType": "uint256",
          "name": "tokenId",
          "type": "uint256"
        }
      ],
      "name": "approve",
      "outputs": [],
      "stateMutability": "nonpayable",
      "type": "function"
    },
    {
      "inputs": [
        {
          "internalType": "address",
          "name": "owner",
          "type": "address"
        }
      ],
      "name": "balanceOf",
      "outputs": [
        {
          "internalType": "uint256",
          "name": "",
          "type": "uint256"
        }
      ],
      "stateMutability": "view",
      "type": "function"
    },
    {
      "inputs": [
        {
          "internalType": "uint256",
          "name": "tokenId",
          "type": "uint256"
        }
      ],
      "name": "getApproved",
      "outputs": [
        {
          "internalType": "address",
          "name": "",
          "type": "address"
        }
      ],
      "stateMutability": "view",
      "type": "function"
    },
    {
      "inputs": [
        {
          "internalType": "address",
          "name": "owner",
          "type": "address"
        },
        {
          "internalType": "address",
          "name": "operator",
          "type": "address"
        }
      ],
      "name": "isApprovedForAll",
      "outputs": [
        {
          "internalType": "bool",
          "name": "",
          "type": "bool"
        }
      ],
      "stateMutability": "view",
      "type": "function"
    },
    {
      "inputs": [],
      "name": "name",
      "outputs": [
        {
          "internalType": "string",
          "name": "",
          "type": "string"
        }
      ],
      "stateMutability": "view",
      "type": "function"
    },
    {
      "inputs": [
        {
          "internalType": "uint256",
          "name": "tokenId",
          "type": "uint256"
        }
      ],
      "name": "ownerOf",
      "outputs": [
        {
          "internalType": "address",
          "name": "",
          "type": "address"
        }
      ],
      "stateMutability": "view",
      "type": "function"
    },
    {
      "inputs": [
        {
          "internalType": "address",
          "name": "from",
          "type": "address"
        },
        {
          "internalType": "address",
          "name": "to",
          "type": "address"
        },
        {
          "internalType": "uint256",
          "name": "tokenId",
          "type": "uint256"
        }
      ],
      "name": "safeTransferFrom",
      "outputs": [],
      "stateMutability": "nonpayable",
      "type": "function"
    },
    {
      "inputs": [
        {
          "internalType": "address",
          "name": "from",
          "type": "address"
        },
        {
          "internalType": "address",
          "name": "to",
          "type": "address"
        },
        {
          "internalType": "uint256",
          "name": "tokenId",
          "type": "uint256"
        },
        {
          "internalType": "bytes",
          "name": "_data",
          "type": "bytes"
        }
      ],
      "name": "safeTransferFrom",
      "outputs": [],
      "stateMutability": "nonpayable",
      "type": "function"
    },
    {
      "inputs": [
        {
          "internalType": "address",
          "name": "operator",
          "type": "address"
        },
        {
          "internalType": "bool",
          "name": "approved",
          "type": "bool"
        }
      ],
      "name": "setApprovalForAll",
      "outputs": [],
      "stateMutability": "nonpayable",
      "type": "function"
    },
    {
      "inputs": [],
      "name": "symbol",
      "outputs": [
        {
          "internalType": "string",
          "name": "",
          "type": "string"
        }
      ],
      "stateMutability": "view",
      "type": "function"
    },
    {
      "inputs": [
        {
          "internalType": "uint256",
          "name": "index",
          "type": "uint256"
        }
      ],
      "name": "tokenByIndex",
      "outputs": [
        {
          "internalType": "uint256",
          "name": "",
          "type": "uint256"
        }
      ],
      "stateMutability": "view",
      "type": "function"
    },
    {
      "inputs": [
        {
          "internalType": "address",
          "name": "owner",
          "type": "address"
        },
        {
          "internalType": "uint256",
          "name": "index",
          "type": "uint256"
        }
      ],
      "name": "tokenOfOwnerByIndex",
      "outputs": [
        {
          "internalType": "uint256",
          "name": "",
          "type": "uint256"
        }
      ],
      "stateMutability": "view",
      "type": "function"
    },
    {
      "inputs": [],
      "name": "totalSupply",
      "outputs": [
        {
          "internalType": "uint256",
          "name": "",
          "type": "uint256"
        }
      ],
      "stateMutability": "view",
      "type": "function"
    },
    {
      "inputs": [
        {
          "internalType": "address",
          "name": "contractAddr",
          "type": "address"
        }
      ],
      "name": "initialize",
      "outputs": [],
      "stateMutability": "nonpayable",
      "type": "function"
    },
    {
      "inputs": [
        {
          "internalType": "address",
          "name": "to",
          "type": "address"
        },
        {
          "internalType": "uint256",
          "name": "quantity",
          "type": "uint256"
        },
        {
          "internalType": "string",
          "name": "_uri",
          "type": "string"
        }
      ],
      "name": "mintToken",
      "outputs": [
        {
          "internalType": "uint256[]",
          "name": "indexes",
          "type": "uint256[]"
        }
      ],
      "stateMutability": "nonpayable",
      "type": "function"
    },
    {
      "inputs": [
        {
          "internalType": "address",
          "name": "from",
          "type": "address"
        },
        {
          "internalType": "address",
          "name": "to",
          "type": "address"
        },
        {
          "internalType": "uint256",
          "name": "tokenId",
          "type": "uint256"
        }
      ],
      "name": "transferFrom",
      "outputs": [],
      "stateMutability": "nonpayable",
      "type": "function"
    },
    {
      "inputs": [
        {
          "internalType": "uint256",
          "name": "tokenId",
          "type": "uint256"
        }
      ],
      "name": "unlockToken",
      "outputs": [],
      "stateMutability": "nonpayable",
      "type": "function"
    },
    {
      "inputs": [
        {
          "internalType": "uint256",
          "name": "tokenId",
          "type": "uint256"
        }
      ],
      "name": "isUnlocked",
      "outputs": [
        {
          "internalType": "bool",
          "name": "",
          "type": "bool"
        }
      ],
      "stateMutability": "view",
      "type": "function"
    },
    {
      "inputs": [],
      "name": "getVersion",
      "outputs": [
        {
          "internalType": "string",
          "name": "",
          "type": "string"
        }
      ],
      "stateMutability": "pure",
      "type": "function"
    },
    {
      "inputs": [
        {
          "internalType": "bytes4",
          "name": "interfaceId",
          "type": "bytes4"
        }
      ],
      "name": "supportsInterface",
      "outputs": [
        {
          "internalType": "bool",
          "name": "",
          "type": "bool"
        }
      ],
      "stateMutability": "view",
      "type": "function"
    },
    {
      "inputs": [
        {
          "internalType": "uint256",
          "name": "tokenId",
          "type": "uint256"
        }
      ],
      "name": "tokenURI",
      "outputs": [
        {
          "internalType": "string",
          "name": "",
          "type": "string"
        }
      ],
      "stateMutability": "view",
      "type": "function"
    }
  ],
  "bytecode": "0x60806040523480156200001157600080fd5b50604051620044d5380380620044d58339818101604052810190620000379190620004d6565b836040518060400160405280600581526020017f302e322e3100000000000000000000000000000000000000000000000000000081525082868681600090805190602001906200008992919062000224565b508060019080519060200190620000a292919062000224565b50505082600b9080519060200190620000bd92919062000224565b5081600c9080519060200190620000d692919062000224565b5080600d60006101000a81548173ffffffffffffffffffffffffffffffffffffffff021916908373ffffffffffffffffffffffffffffffffffffffff1602179055508073ffffffffffffffffffffffffffffffffffffffff1663fc831581600b600c306040518463ffffffff1660e01b81526004016200015993929190620006ae565b600060405180830381600087803b1580156200017457600080fd5b505af115801562000189573d6000803e3d6000fd5b50505050505050600060108190555033600e60006101000a81548173ffffffffffffffffffffffffffffffffffffffff021916908373ffffffffffffffffffffffffffffffffffffffff16021790555081600f60006101000a81548173ffffffffffffffffffffffffffffffffffffffff021916908373ffffffffffffffffffffffffffffffffffffffff16021790555050505050620006f9565b8280546200023290620005b5565b90600052602060002090601f016020900481019282620002565760008555620002a2565b82601f106200027157805160ff1916838001178555620002a2565b82800160010185558215620002a2579182015b82811115620002a157825182559160200191906001019062000284565b5b509050620002b19190620002b5565b5090565b5b80821115620002d0576000816000905550600101620002b6565b5090565b6000604051905090565b600080fd5b600080fd5b600080fd5b600080fd5b6000601f19601f8301169050919050565b7f4e487b7100000000000000000000000000000000000000000000000000000000600052604160045260246000fd5b6200033d82620002f2565b810181811067ffffffffffffffff821117156200035f576200035e62000303565b5b80604052505050565b600062000374620002d4565b905062000382828262000332565b919050565b600067ffffffffffffffff821115620003a557620003a462000303565b5b620003b082620002f2565b9050602081019050919050565b60005b83811015620003dd578082015181840152602081019050620003c0565b83811115620003ed576000848401525b50505050565b60006200040a620004048462000387565b62000368565b905082815260208101848484011115620004295762000428620002ed565b5b62000436848285620003bd565b509392505050565b600082601f830112620004565762000455620002e8565b5b815162000468848260208601620003f3565b91505092915050565b600073ffffffffffffffffffffffffffffffffffffffff82169050919050565b60006200049e8262000471565b9050919050565b620004b08162000491565b8114620004bc57600080fd5b50565b600081519050620004d081620004a5565b92915050565b60008060008060808587031215620004f357620004f2620002de565b5b600085015167ffffffffffffffff811115620005145762000513620002e3565b5b62000522878288016200043e565b945050602085015167ffffffffffffffff811115620005465762000545620002e3565b5b62000554878288016200043e565b93505060406200056787828801620004bf565b92505060606200057a87828801620004bf565b91505092959194509250565b7f4e487b7100000000000000000000000000000000000000000000000000000000600052602260045260246000fd5b60006002820490506001821680620005ce57607f821691505b60208210811415620005e557620005e462000586565b5b50919050565b600082825260208201905092915050565b60008190508160005260206000209050919050565b600081546200062081620005b5565b6200062c8186620005eb565b945060018216600081146200064a57600181146200065d5762000694565b60ff198316865260208601935062000694565b6200066885620005fc565b60005b838110156200068c578154818901526001820191506020810190506200066b565b808801955050505b50505092915050565b620006a88162000491565b82525050565b60006060820190508181036000830152620006ca818662000611565b90508181036020830152620006e0818562000611565b9050620006f160408301846200069d565b949350505050565b613dcc80620007096000396000f3fe608060405234801561001057600080fd5b50600436106101375760003560e01c80636352211e116100b8578063b88d4fde1161007c578063b88d4fde14610374578063c4d66de814610390578063c87b56dd146103ac578063dd2e0ac0146103dc578063e985e9c5146103f8578063f76e8ba91461042857610137565b80636352211e146102aa57806370a08231146102da57806372abc8b71461030a57806395d89b411461033a578063a22cb4651461035857610137565b806318160ddd116100ff57806318160ddd146101f457806323b872dd146102125780632f745c591461022e57806342842e0e1461025e5780634f6ccce71461027a57610137565b806301ffc9a71461013c57806306fdde031461016c578063081812fc1461018a578063095ea7b3146101ba5780630d8e6e2c146101d6575b600080fd5b61015660048036038101906101519190612771565b610458565b60405161016391906127b9565b60405180910390f35b610174610469565b604051610181919061286d565b60405180910390f35b6101a4600480360381019061019f91906128c5565b6104fb565b6040516101b19190612933565b60405180910390f35b6101d460048036038101906101cf919061297a565b610580565b005b6101de610698565b6040516101eb919061286d565b60405180910390f35b6101fc6106d5565b60405161020991906129c9565b60405180910390f35b61022c600480360381019061022791906129e4565b6106e2565b005b6102486004803603810190610243919061297a565b610880565b60405161025591906129c9565b60405180910390f35b610278600480360381019061027391906129e4565b610925565b005b610294600480360381019061028f91906128c5565b610945565b6040516102a191906129c9565b60405180910390f35b6102c460048036038101906102bf91906128c5565b6109b6565b6040516102d19190612933565b60405180910390f35b6102f460048036038101906102ef9190612a37565b610a68565b60405161030191906129c9565b60405180910390f35b610324600480360381019061031f91906128c5565b610b20565b60405161033191906127b9565b60405180910390f35b610342610b4a565b60405161034f919061286d565b60405180910390f35b610372600480360381019061036d9190612a90565b610bdc565b005b61038e60048036038101906103899190612c05565b610bf2565b005b6103aa60048036038101906103a59190612a37565b610c54565b005b6103c660048036038101906103c191906128c5565b610d28565b6040516103d3919061286d565b60405180910390f35b6103f660048036038101906103f191906128c5565b610d39565b005b610412600480360381019061040d9190612c88565b610e41565b60405161041f91906127b9565b60405180910390f35b610442600480360381019061043d9190612d69565b610ed5565b60405161044f9190612e96565b60405180910390f35b600061046382611194565b50919050565b60606000805461047890612ee7565b80601f01602080910402602001604051908101604052809291908181526020018280546104a490612ee7565b80156104f15780601f106104c6576101008083540402835291602001916104f1565b820191906000526020600020905b8154815290600101906020018083116104d457829003601f168201915b5050505050905090565b60006105068261120e565b610545576040517f08c379a000000000000000000000000000000000000000000000000000000000815260040161053c90612f8b565b60405180910390fd5b6004600083815260200190815260200160002060009054906101000a900473ffffffffffffffffffffffffffffffffffffffff169050919050565b600061058b826109b6565b90508073ffffffffffffffffffffffffffffffffffffffff168373ffffffffffffffffffffffffffffffffffffffff1614156105fc576040517f08c379a00000000000000000000000000000000000000000000000000000000081526004016105f39061301d565b60405180910390fd5b8073ffffffffffffffffffffffffffffffffffffffff1661061b61127a565b73ffffffffffffffffffffffffffffffffffffffff16148061064a57506106498161064461127a565b610e41565b5b610689576040517f08c379a0000000000000000000000000000000000000000000000000000000008152600401610680906130af565b60405180910390fd5b6106938383611282565b505050565b60606040518060400160405280601881526020017f5061626c6f636b4e46542076657273696f6e20302e322e310000000000000000815250905090565b6000600880549050905090565b600073ffffffffffffffffffffffffffffffffffffffff16600f60009054906101000a900473ffffffffffffffffffffffffffffffffffffffff1673ffffffffffffffffffffffffffffffffffffffff161415610774576040517f08c379a000000000000000000000000000000000000000000000000000000000815260040161076b9061311b565b60405180910390fd5b6012600082815260200190815260200160002060009054906101000a900460ff1661087057600f60009054906101000a900473ffffffffffffffffffffffffffffffffffffffff1673ffffffffffffffffffffffffffffffffffffffff1663dd99464a306000357fffffffff0000000000000000000000000000000000000000000000000000000016866040518463ffffffff1660e01b815260040161081c9392919061314a565b602060405180830381600087803b15801561083657600080fd5b505af115801561084a573d6000803e3d6000fd5b505050506040513d601f19601f8201168201806040525081019061086e9190613196565b505b61087b83838361133b565b505050565b600061088b83610a68565b82106108cc576040517f08c379a00000000000000000000000000000000000000000000000000000000081526004016108c390613235565b60405180910390fd5b600660008473ffffffffffffffffffffffffffffffffffffffff1673ffffffffffffffffffffffffffffffffffffffff168152602001908152602001600020600083815260200190815260200160002054905092915050565b61094083838360405180602001604052806000815250610bf2565b505050565b600061094f6106d5565b8210610990576040517f08c379a0000000000000000000000000000000000000000000000000000000008152600401610987906132c7565b60405180910390fd5b600882815481106109a4576109a36132e7565b5b90600052602060002001549050919050565b6000806002600084815260200190815260200160002060009054906101000a900473ffffffffffffffffffffffffffffffffffffffff169050600073ffffffffffffffffffffffffffffffffffffffff168173ffffffffffffffffffffffffffffffffffffffff161415610a5f576040517f08c379a0000000000000000000000000000000000000000000000000000000008152600401610a5690613388565b60405180910390fd5b80915050919050565b60008073ffffffffffffffffffffffffffffffffffffffff168273ffffffffffffffffffffffffffffffffffffffff161415610ad9576040517f08c379a0000000000000000000000000000000000000000000000000000000008152600401610ad09061341a565b60405180910390fd5b600360008373ffffffffffffffffffffffffffffffffffffffff1673ffffffffffffffffffffffffffffffffffffffff168152602001908152602001600020549050919050565b60006012600083815260200190815260200160002060009054906101000a900460ff169050919050565b606060018054610b5990612ee7565b80601f0160208091040260200160405190810160405280929190818152602001828054610b8590612ee7565b8015610bd25780601f10610ba757610100808354040283529160200191610bd2565b820191906000526020600020905b815481529060010190602001808311610bb557829003601f168201915b5050505050905090565b610bee610be761127a565b8383611597565b5050565b610c03610bfd61127a565b83611704565b610c42576040517f08c379a0000000000000000000000000000000000000000000000000000000008152600401610c39906134ac565b60405180910390fd5b610c4e848484846117e2565b50505050565b3373ffffffffffffffffffffffffffffffffffffffff16600e60009054906101000a900473ffffffffffffffffffffffffffffffffffffffff1673ffffffffffffffffffffffffffffffffffffffff1614610ce4576040517f08c379a0000000000000000000000000000000000000000000000000000000008152600401610cdb90613518565b60405180910390fd5b80600f60006101000a81548173ffffffffffffffffffffffffffffffffffffffff021916908373ffffffffffffffffffffffffffffffffffffffff16021790555050565b6060610d338261183e565b50919050565b600073ffffffffffffffffffffffffffffffffffffffff16600f60009054906101000a900473ffffffffffffffffffffffffffffffffffffffff1673ffffffffffffffffffffffffffffffffffffffff161415610dcb576040517f08c379a0000000000000000000000000000000000000000000000000000000008152600401610dc29061311b565b60405180910390fd5b610dd3611990565b73ffffffffffffffffffffffffffffffffffffffff16610df2826109b6565b73ffffffffffffffffffffffffffffffffffffffff1614610e1257600080fd5b60016012600083815260200190815260200160002060006101000a81548160ff02191690831515021790555050565b6000600560008473ffffffffffffffffffffffffffffffffffffffff1673ffffffffffffffffffffffffffffffffffffffff16815260200190815260200160002060008373ffffffffffffffffffffffffffffffffffffffff1673ffffffffffffffffffffffffffffffffffffffff16815260200190815260200160002060009054906101000a900460ff16905092915050565b6060600073ffffffffffffffffffffffffffffffffffffffff16600f60009054906101000a900473ffffffffffffffffffffffffffffffffffffffff1673ffffffffffffffffffffffffffffffffffffffff161415610f69576040517f08c379a0000000000000000000000000000000000000000000000000000000008152600401610f609061311b565b60405180910390fd5b8267ffffffffffffffff811115610f8357610f82612ada565b5b604051908082528060200260200182016040528015610fb15781602001602082028036833780820191505090505b50905060005b8381101561105257610fcb85601054611a63565b610fd760105484611a81565b600060126000601054815260200190815260200160002060006101000a81548160ff02191690831515021790555060105482828151811061101b5761101a6132e7565b5b6020026020010181815250506010600081548092919061103a90613567565b9190505550808061104a90613567565b915050610fb7565b50600f60009054906101000a900473ffffffffffffffffffffffffffffffffffffffff1673ffffffffffffffffffffffffffffffffffffffff1663dd99464a306000357fffffffff0000000000000000000000000000000000000000000000000000000016876040518463ffffffff1660e01b81526004016110d69392919061314a565b602060405180830381600087803b1580156110f057600080fd5b505af1158015611104573d6000803e3d6000fd5b505050506040513d601f19601f820116820180604052508101906111289190613196565b508160405161113791906135ec565b60405180910390203373ffffffffffffffffffffffffffffffffffffffff167fa0005386cf40ea902b1823e23450c70b08ca894cbf7f74c81f954137090a0091836040516111859190612e96565b60405180910390a39392505050565b60007f780e9d63000000000000000000000000000000000000000000000000000000007bffffffffffffffffffffffffffffffffffffffffffffffffffffffff1916827bffffffffffffffffffffffffffffffffffffffffffffffffffffffff19161480611207575061120682611af5565b5b9050919050565b60008073ffffffffffffffffffffffffffffffffffffffff166002600084815260200190815260200160002060009054906101000a900473ffffffffffffffffffffffffffffffffffffffff1673ffffffffffffffffffffffffffffffffffffffff1614159050919050565b600033905090565b816004600083815260200190815260200160002060006101000a81548173ffffffffffffffffffffffffffffffffffffffff021916908373ffffffffffffffffffffffffffffffffffffffff160217905550808273ffffffffffffffffffffffffffffffffffffffff166112f5836109b6565b73ffffffffffffffffffffffffffffffffffffffff167f8c5be1e5ebec7d5bd14f71427d1e84f3dd0314c0f7b2291e5b200ac8c7c3b92560405160405180910390a45050565b8273ffffffffffffffffffffffffffffffffffffffff1661135b826109b6565b73ffffffffffffffffffffffffffffffffffffffff16146113b1576040517f08c379a00000000000000000000000000000000000000000000000000000000081526004016113a890613675565b60405180910390fd5b600073ffffffffffffffffffffffffffffffffffffffff168273ffffffffffffffffffffffffffffffffffffffff161415611421576040517f08c379a000000000000000000000000000000000000000000000000000000000815260040161141890613707565b60405180910390fd5b61142c838383611bd7565b611437600082611282565b6001600360008573ffffffffffffffffffffffffffffffffffffffff1673ffffffffffffffffffffffffffffffffffffffff16815260200190815260200160002060008282546114879190613727565b925050819055506001600360008473ffffffffffffffffffffffffffffffffffffffff1673ffffffffffffffffffffffffffffffffffffffff16815260200190815260200160002060008282546114de919061375b565b92505081905550816002600083815260200190815260200160002060006101000a81548173ffffffffffffffffffffffffffffffffffffffff021916908373ffffffffffffffffffffffffffffffffffffffff160217905550808273ffffffffffffffffffffffffffffffffffffffff168473ffffffffffffffffffffffffffffffffffffffff167fddf252ad1be2c89b69c2b068fc378daa952ba7f163c4a11628f55a4df523b3ef60405160405180910390a4505050565b8173ffffffffffffffffffffffffffffffffffffffff168373ffffffffffffffffffffffffffffffffffffffff161415611606576040517f08c379a00000000000000000000000000000000000000000000000000000000081526004016115fd906137fd565b60405180910390fd5b80600560008573ffffffffffffffffffffffffffffffffffffffff1673ffffffffffffffffffffffffffffffffffffffff16815260200190815260200160002060008473ffffffffffffffffffffffffffffffffffffffff1673ffffffffffffffffffffffffffffffffffffffff16815260200190815260200160002060006101000a81548160ff0219169083151502179055508173ffffffffffffffffffffffffffffffffffffffff168373ffffffffffffffffffffffffffffffffffffffff167f17307eab39ab6107e8899845ad3d59bd9653f200f220920489ca2b5937696c31836040516116f791906127b9565b60405180910390a3505050565b600061170f8261120e565b61174e576040517f08c379a00000000000000000000000000000000000000000000000000000000081526004016117459061388f565b60405180910390fd5b6000611759836109b6565b90508073ffffffffffffffffffffffffffffffffffffffff168473ffffffffffffffffffffffffffffffffffffffff1614806117c857508373ffffffffffffffffffffffffffffffffffffffff166117b0846104fb565b73ffffffffffffffffffffffffffffffffffffffff16145b806117d957506117d88185610e41565b5b91505092915050565b6117ed84848461133b565b6117f984848484611be7565b611838576040517f08c379a000000000000000000000000000000000000000000000000000000000815260040161182f90613921565b60405180910390fd5b50505050565b60606118498261120e565b611888576040517f08c379a000000000000000000000000000000000000000000000000000000000815260040161187f906139b3565b60405180910390fd5b6000600a600084815260200190815260200160002080546118a890612ee7565b80601f01602080910402602001604051908101604052809291908181526020018280546118d490612ee7565b80156119215780601f106118f657610100808354040283529160200191611921565b820191906000526020600020905b81548152906001019060200180831161190457829003601f168201915b505050505090506000611932611d7e565b905060008151141561194857819250505061198b565b60008251111561197d5780826040516020016119659291906139d3565b6040516020818303038152906040529250505061198b565b61198684611d95565b925050505b919050565b6000600d60009054906101000a900473ffffffffffffffffffffffffffffffffffffffff1673ffffffffffffffffffffffffffffffffffffffff163373ffffffffffffffffffffffffffffffffffffffff161415611a5c57600080368080601f016020809104026020016040519081016040528093929190818152602001838380828437600081840152601f19601f820116905080830192505050505050509050600080369050905073ffffffffffffffffffffffffffffffffffffffff818301511692505050611a60565b3390505b90565b611a7d828260405180602001604052806000815250611e3c565b5050565b611a8a8261120e565b611ac9576040517f08c379a0000000000000000000000000000000000000000000000000000000008152600401611ac090613a69565b60405180910390fd5b80600a60008481526020019081526020016000209080519060200190611af0929190612662565b505050565b60007f80ac58cd000000000000000000000000000000000000000000000000000000007bffffffffffffffffffffffffffffffffffffffffffffffffffffffff1916827bffffffffffffffffffffffffffffffffffffffffffffffffffffffff19161480611bc057507f5b5e139f000000000000000000000000000000000000000000000000000000007bffffffffffffffffffffffffffffffffffffffffffffffffffffffff1916827bffffffffffffffffffffffffffffffffffffffffffffffffffffffff1916145b80611bd05750611bcf82611e97565b5b9050919050565b611be2838383611f01565b505050565b6000611c088473ffffffffffffffffffffffffffffffffffffffff16612015565b15611d71578373ffffffffffffffffffffffffffffffffffffffff1663150b7a02611c3161127a565b8786866040518563ffffffff1660e01b8152600401611c539493929190613ade565b602060405180830381600087803b158015611c6d57600080fd5b505af1925050508015611c9e57506040513d601f19601f82011682018060405250810190611c9b9190613b3f565b60015b611d21573d8060008114611cce576040519150601f19603f3d011682016040523d82523d6000602084013e611cd3565b606091505b50600081511415611d19576040517f08c379a0000000000000000000000000000000000000000000000000000000008152600401611d1090613921565b60405180910390fd5b805181602001fd5b63150b7a0260e01b7bffffffffffffffffffffffffffffffffffffffffffffffffffffffff1916817bffffffffffffffffffffffffffffffffffffffffffffffffffffffff191614915050611d76565b600190505b949350505050565b606060405180602001604052806000815250905090565b6060611da08261120e565b611ddf576040517f08c379a0000000000000000000000000000000000000000000000000000000008152600401611dd690613bde565b60405180910390fd5b6000611de9611d7e565b90506000815111611e095760405180602001604052806000815250611e34565b80611e1384612028565b604051602001611e249291906139d3565b6040516020818303038152906040525b915050919050565b611e468383612189565b611e536000848484611be7565b611e92576040517f08c379a0000000000000000000000000000000000000000000000000000000008152600401611e8990613921565b60405180910390fd5b505050565b60007f01ffc9a7000000000000000000000000000000000000000000000000000000007bffffffffffffffffffffffffffffffffffffffffffffffffffffffff1916827bffffffffffffffffffffffffffffffffffffffffffffffffffffffff1916149050919050565b611f0c838383612357565b600073ffffffffffffffffffffffffffffffffffffffff168373ffffffffffffffffffffffffffffffffffffffff161415611f4f57611f4a8161235c565b611f8e565b8173ffffffffffffffffffffffffffffffffffffffff168373ffffffffffffffffffffffffffffffffffffffff1614611f8d57611f8c83826123a5565b5b5b600073ffffffffffffffffffffffffffffffffffffffff168273ffffffffffffffffffffffffffffffffffffffff161415611fd157611fcc81612512565b612010565b8273ffffffffffffffffffffffffffffffffffffffff168273ffffffffffffffffffffffffffffffffffffffff161461200f5761200e82826125e3565b5b5b505050565b600080823b905060008111915050919050565b60606000821415612070576040518060400160405280600181526020017f30000000000000000000000000000000000000000000000000000000000000008152509050612184565b600082905060005b600082146120a257808061208b90613567565b915050600a8261209b9190613c2d565b9150612078565b60008167ffffffffffffffff8111156120be576120bd612ada565b5b6040519080825280601f01601f1916602001820160405280156120f05781602001600182028036833780820191505090505b5090505b6000851461217d576001826121099190613727565b9150600a856121189190613c5e565b6030612124919061375b565b60f81b81838151811061213a576121396132e7565b5b60200101907effffffffffffffffffffffffffffffffffffffffffffffffffffffffffffff1916908160001a905350600a856121769190613c2d565b94506120f4565b8093505050505b919050565b600073ffffffffffffffffffffffffffffffffffffffff168273ffffffffffffffffffffffffffffffffffffffff1614156121f9576040517f08c379a00000000000000000000000000000000000000000000000000000000081526004016121f090613cdb565b60405180910390fd5b6122028161120e565b15612242576040517f08c379a000000000000000000000000000000000000000000000000000000000815260040161223990613d47565b60405180910390fd5b61224e60008383611bd7565b6001600360008473ffffffffffffffffffffffffffffffffffffffff1673ffffffffffffffffffffffffffffffffffffffff168152602001908152602001600020600082825461229e919061375b565b92505081905550816002600083815260200190815260200160002060006101000a81548173ffffffffffffffffffffffffffffffffffffffff021916908373ffffffffffffffffffffffffffffffffffffffff160217905550808273ffffffffffffffffffffffffffffffffffffffff16600073ffffffffffffffffffffffffffffffffffffffff167fddf252ad1be2c89b69c2b068fc378daa952ba7f163c4a11628f55a4df523b3ef60405160405180910390a45050565b505050565b6008805490506009600083815260200190815260200160002081905550600881908060018154018082558091505060019003906000526020600020016000909190919091505550565b600060016123b284610a68565b6123bc9190613727565b90506000600760008481526020019081526020016000205490508181146124a1576000600660008673ffffffffffffffffffffffffffffffffffffffff1673ffffffffffffffffffffffffffffffffffffffff168152602001908152602001600020600084815260200190815260200160002054905080600660008773ffffffffffffffffffffffffffffffffffffffff1673ffffffffffffffffffffffffffffffffffffffff168152602001908152602001600020600084815260200190815260200160002081905550816007600083815260200190815260200160002081905550505b6007600084815260200190815260200160002060009055600660008573ffffffffffffffffffffffffffffffffffffffff1673ffffffffffffffffffffffffffffffffffffffff16815260200190815260200160002060008381526020019081526020016000206000905550505050565b600060016008805490506125269190613727565b9050600060096000848152602001908152602001600020549050600060088381548110612556576125556132e7565b5b906000526020600020015490508060088381548110612578576125776132e7565b5b9060005260206000200181905550816009600083815260200190815260200160002081905550600960008581526020019081526020016000206000905560088054806125c7576125c6613d67565b5b6001900381819060005260206000200160009055905550505050565b60006125ee83610a68565b905081600660008573ffffffffffffffffffffffffffffffffffffffff1673ffffffffffffffffffffffffffffffffffffffff168152602001908152602001600020600083815260200190815260200160002081905550806007600084815260200190815260200160002081905550505050565b82805461266e90612ee7565b90600052602060002090601f01602090048101928261269057600085556126d7565b82601f106126a957805160ff19168380011785556126d7565b828001600101855582156126d7579182015b828111156126d65782518255916020019190600101906126bb565b5b5090506126e491906126e8565b5090565b5b808211156127015760008160009055506001016126e9565b5090565b6000604051905090565b600080fd5b600080fd5b60007fffffffff0000000000000000000000000000000000000000000000000000000082169050919050565b61274e81612719565b811461275957600080fd5b50565b60008135905061276b81612745565b92915050565b6000602082840312156127875761278661270f565b5b60006127958482850161275c565b91505092915050565b60008115159050919050565b6127b38161279e565b82525050565b60006020820190506127ce60008301846127aa565b92915050565b600081519050919050565b600082825260208201905092915050565b60005b8381101561280e5780820151818401526020810190506127f3565b8381111561281d576000848401525b50505050565b6000601f19601f8301169050919050565b600061283f826127d4565b61284981856127df565b93506128598185602086016127f0565b61286281612823565b840191505092915050565b600060208201905081810360008301526128878184612834565b905092915050565b6000819050919050565b6128a28161288f565b81146128ad57600080fd5b50565b6000813590506128bf81612899565b92915050565b6000602082840312156128db576128da61270f565b5b60006128e9848285016128b0565b91505092915050565b600073ffffffffffffffffffffffffffffffffffffffff82169050919050565b600061291d826128f2565b9050919050565b61292d81612912565b82525050565b60006020820190506129486000830184612924565b92915050565b61295781612912565b811461296257600080fd5b50565b6000813590506129748161294e565b92915050565b600080604083850312156129915761299061270f565b5b600061299f85828601612965565b92505060206129b0858286016128b0565b9150509250929050565b6129c38161288f565b82525050565b60006020820190506129de60008301846129ba565b92915050565b6000806000606084860312156129fd576129fc61270f565b5b6000612a0b86828701612965565b9350506020612a1c86828701612965565b9250506040612a2d868287016128b0565b9150509250925092565b600060208284031215612a4d57612a4c61270f565b5b6000612a5b84828501612965565b91505092915050565b612a6d8161279e565b8114612a7857600080fd5b50565b600081359050612a8a81612a64565b92915050565b60008060408385031215612aa757612aa661270f565b5b6000612ab585828601612965565b9250506020612ac685828601612a7b565b9150509250929050565b600080fd5b600080fd5b7f4e487b7100000000000000000000000000000000000000000000000000000000600052604160045260246000fd5b612b1282612823565b810181811067ffffffffffffffff82111715612b3157612b30612ada565b5b80604052505050565b6000612b44612705565b9050612b508282612b09565b919050565b600067ffffffffffffffff821115612b7057612b6f612ada565b5b612b7982612823565b9050602081019050919050565b82818337600083830152505050565b6000612ba8612ba384612b55565b612b3a565b905082815260208101848484011115612bc457612bc3612ad5565b5b612bcf848285612b86565b509392505050565b600082601f830112612bec57612beb612ad0565b5b8135612bfc848260208601612b95565b91505092915050565b60008060008060808587031215612c1f57612c1e61270f565b5b6000612c2d87828801612965565b9450506020612c3e87828801612965565b9350506040612c4f878288016128b0565b925050606085013567ffffffffffffffff811115612c7057612c6f612714565b5b612c7c87828801612bd7565b91505092959194509250565b60008060408385031215612c9f57612c9e61270f565b5b6000612cad85828601612965565b9250506020612cbe85828601612965565b9150509250929050565b600067ffffffffffffffff821115612ce357612ce2612ada565b5b612cec82612823565b9050602081019050919050565b6000612d0c612d0784612cc8565b612b3a565b905082815260208101848484011115612d2857612d27612ad5565b5b612d33848285612b86565b509392505050565b600082601f830112612d5057612d4f612ad0565b5b8135612d60848260208601612cf9565b91505092915050565b600080600060608486031215612d8257612d8161270f565b5b6000612d9086828701612965565b9350506020612da1868287016128b0565b925050604084013567ffffffffffffffff811115612dc257612dc1612714565b5b612dce86828701612d3b565b9150509250925092565b600081519050919050565b600082825260208201905092915050565b6000819050602082019050919050565b612e0d8161288f565b82525050565b6000612e1f8383612e04565b60208301905092915050565b6000602082019050919050565b6000612e4382612dd8565b612e4d8185612de3565b9350612e5883612df4565b8060005b83811015612e89578151612e708882612e13565b9750612e7b83612e2b565b925050600181019050612e5c565b5085935050505092915050565b60006020820190508181036000830152612eb08184612e38565b905092915050565b7f4e487b7100000000000000000000000000000000000000000000000000000000600052602260045260246000fd5b60006002820490506001821680612eff57607f821691505b60208210811415612f1357612f12612eb8565b5b50919050565b7f4552433732313a20617070726f76656420717565727920666f72206e6f6e657860008201527f697374656e7420746f6b656e0000000000000000000000000000000000000000602082015250565b6000612f75602c836127df565b9150612f8082612f19565b604082019050919050565b60006020820190508181036000830152612fa481612f68565b9050919050565b7f4552433732313a20617070726f76616c20746f2063757272656e74206f776e6560008201527f7200000000000000000000000000000000000000000000000000000000000000602082015250565b60006130076021836127df565b915061301282612fab565b604082019050919050565b6000602082019050818103600083015261303681612ffa565b9050919050565b7f4552433732313a20617070726f76652063616c6c6572206973206e6f74206f7760008201527f6e6572206e6f7220617070726f76656420666f7220616c6c0000000000000000602082015250565b60006130996038836127df565b91506130a48261303d565b604082019050919050565b600060208201905081810360008301526130c88161308c565b9050919050565b7f436f6e7472616374206e6f7420696e697469616c697a65640000000000000000600082015250565b60006131056018836127df565b9150613110826130cf565b602082019050919050565b60006020820190508181036000830152613134816130f8565b9050919050565b61314481612719565b82525050565b600060608201905061315f6000830186612924565b61316c602083018561313b565b6131796040830184612924565b949350505050565b60008151905061319081612a64565b92915050565b6000602082840312156131ac576131ab61270f565b5b60006131ba84828501613181565b91505092915050565b7f455243373231456e756d657261626c653a206f776e657220696e646578206f7560008201527f74206f6620626f756e6473000000000000000000000000000000000000000000602082015250565b600061321f602b836127df565b915061322a826131c3565b604082019050919050565b6000602082019050818103600083015261324e81613212565b9050919050565b7f455243373231456e756d657261626c653a20676c6f62616c20696e646578206f60008201527f7574206f6620626f756e64730000000000000000000000000000000000000000602082015250565b60006132b1602c836127df565b91506132bc82613255565b604082019050919050565b600060208201905081810360008301526132e0816132a4565b9050919050565b7f4e487b7100000000000000000000000000000000000000000000000000000000600052603260045260246000fd5b7f4552433732313a206f776e657220717565727920666f72206e6f6e657869737460008201527f656e7420746f6b656e0000000000000000000000000000000000000000000000602082015250565b60006133726029836127df565b915061337d82613316565b604082019050919050565b600060208201905081810360008301526133a181613365565b9050919050565b7f4552433732313a2062616c616e636520717565727920666f7220746865207a6560008201527f726f206164647265737300000000000000000000000000000000000000000000602082015250565b6000613404602a836127df565b915061340f826133a8565b604082019050919050565b60006020820190508181036000830152613433816133f7565b9050919050565b7f4552433732313a207472616e736665722063616c6c6572206973206e6f74206f60008201527f776e6572206e6f7220617070726f766564000000000000000000000000000000602082015250565b60006134966031836127df565b91506134a18261343a565b604082019050919050565b600060208201905081810360008301526134c581613489565b9050919050565b7f4e6f7420616c6c6f776564000000000000000000000000000000000000000000600082015250565b6000613502600b836127df565b915061350d826134cc565b602082019050919050565b60006020820190508181036000830152613531816134f5565b9050919050565b7f4e487b7100000000000000000000000000000000000000000000000000000000600052601160045260246000fd5b60006135728261288f565b91507fffffffffffffffffffffffffffffffffffffffffffffffffffffffffffffffff8214156135a5576135a4613538565b5b600182019050919050565b600081905092915050565b60006135c6826127d4565b6135d081856135b0565b93506135e08185602086016127f0565b80840191505092915050565b60006135f882846135bb565b915081905092915050565b7f4552433732313a207472616e73666572206f6620746f6b656e2074686174206960008201527f73206e6f74206f776e0000000000000000000000000000000000000000000000602082015250565b600061365f6029836127df565b915061366a82613603565b604082019050919050565b6000602082019050818103600083015261368e81613652565b9050919050565b7f4552433732313a207472616e7366657220746f20746865207a65726f2061646460008201527f7265737300000000000000000000000000000000000000000000000000000000602082015250565b60006136f16024836127df565b91506136fc82613695565b604082019050919050565b60006020820190508181036000830152613720816136e4565b9050919050565b60006137328261288f565b915061373d8361288f565b9250828210156137505761374f613538565b5b828203905092915050565b60006137668261288f565b91506137718361288f565b9250827fffffffffffffffffffffffffffffffffffffffffffffffffffffffffffffffff038211156137a6576137a5613538565b5b828201905092915050565b7f4552433732313a20617070726f766520746f2063616c6c657200000000000000600082015250565b60006137e76019836127df565b91506137f2826137b1565b602082019050919050565b60006020820190508181036000830152613816816137da565b9050919050565b7f4552433732313a206f70657261746f7220717565727920666f72206e6f6e657860008201527f697374656e7420746f6b656e0000000000000000000000000000000000000000602082015250565b6000613879602c836127df565b91506138848261381d565b604082019050919050565b600060208201905081810360008301526138a88161386c565b9050919050565b7f4552433732313a207472616e7366657220746f206e6f6e20455243373231526560008201527f63656976657220696d706c656d656e7465720000000000000000000000000000602082015250565b600061390b6032836127df565b9150613916826138af565b604082019050919050565b6000602082019050818103600083015261393a816138fe565b9050919050565b7f45524337323155524953746f726167653a2055524920717565727920666f722060008201527f6e6f6e6578697374656e7420746f6b656e000000000000000000000000000000602082015250565b600061399d6031836127df565b91506139a882613941565b604082019050919050565b600060208201905081810360008301526139cc81613990565b9050919050565b60006139df82856135bb565b91506139eb82846135bb565b91508190509392505050565b7f45524337323155524953746f726167653a2055524920736574206f66206e6f6e60008201527f6578697374656e7420746f6b656e000000000000000000000000000000000000602082015250565b6000613a53602e836127df565b9150613a5e826139f7565b604082019050919050565b60006020820190508181036000830152613a8281613a46565b9050919050565b600081519050919050565b600082825260208201905092915050565b6000613ab082613a89565b613aba8185613a94565b9350613aca8185602086016127f0565b613ad381612823565b840191505092915050565b6000608082019050613af36000830187612924565b613b006020830186612924565b613b0d60408301856129ba565b8181036060830152613b1f8184613aa5565b905095945050505050565b600081519050613b3981612745565b92915050565b600060208284031215613b5557613b5461270f565b5b6000613b6384828501613b2a565b91505092915050565b7f4552433732314d657461646174613a2055524920717565727920666f72206e6f60008201527f6e6578697374656e7420746f6b656e0000000000000000000000000000000000602082015250565b6000613bc8602f836127df565b9150613bd382613b6c565b604082019050919050565b60006020820190508181036000830152613bf781613bbb565b9050919050565b7f4e487b7100000000000000000000000000000000000000000000000000000000600052601260045260246000fd5b6000613c388261288f565b9150613c438361288f565b925082613c5357613c52613bfe565b5b828204905092915050565b6000613c698261288f565b9150613c748361288f565b925082613c8457613c83613bfe565b5b828206905092915050565b7f4552433732313a206d696e7420746f20746865207a65726f2061646472657373600082015250565b6000613cc56020836127df565b9150613cd082613c8f565b602082019050919050565b60006020820190508181036000830152613cf481613cb8565b9050919050565b7f4552433732313a20746f6b656e20616c7265616479206d696e74656400000000600082015250565b6000613d31601c836127df565b9150613d3c82613cfb565b602082019050919050565b60006020820190508181036000830152613d6081613d24565b9050919050565b7f4e487b7100000000000000000000000000000000000000000000000000000000600052603160045260246000fdfea26469706673582212207f57a0f53508223f6c41342a7536b12421a6c9bb299b9c028ac72528d3ea093164736f6c63430008090033",
  "immutableReferences": {},
  "source": "// SPDX-License-Identifier: MIT\npragma solidity ^0.8.9;\n\nimport \"@openzeppelin/contracts/token/ERC721/extensions/ERC721URIStorage.sol\";\nimport \"@openzeppelin/contracts/token/ERC721/extensions/ERC721Enumerable.sol\";\n\nimport \"../PablockMetaTxReceiver.sol\";\nimport \"../PablockToken.sol\";\n\n\ncontract PablockNFT is ERC721Enumerable, ERC721URIStorage,  PablockMetaTxReceiver {\n    \n    address private contractOwner;\n    address private pablockTokenAddress;\n    uint256 private counter;\n\n    mapping(address => uint256) private nonces;\n    mapping(uint256 =>  bool) private unlockedTokens;\n\n\n    event TokenGeneration(address indexed from, string indexed uri, uint[] ) ;\n\n    constructor(string memory _tokenName, string memory _tokenSymbol,address _pablockTokenAddress, address _metaTxAddress) ERC721(_tokenName, _tokenSymbol) PablockMetaTxReceiver(_tokenName, \"0.2.1\",  _metaTxAddress){\n        counter = 0;\n        contractOwner = msg.sender;\n\n        pablockTokenAddress = _pablockTokenAddress;\n    }\n\n    modifier byOwner(){\n        require(contractOwner == msg.sender, \"Not allowed\");\n        _;\n    }\n    \n    modifier isInitialized {\n        require(pablockTokenAddress != address(0), \"Contract not initialized\");\n        _;\n    }\n\n    function initialize (address contractAddr) public byOwner {\n        pablockTokenAddress = contractAddr;\n    }\n\n    function mintToken(address to, uint quantity, string memory _uri) public isInitialized returns(uint[] memory indexes) {\n\n        indexes = new uint[](quantity);\n\n        // uint[quantity] memory indexes;\n\n        for(uint i = 0; i < quantity; i++ ){\n            _safeMint(to, counter);\n            _setTokenURI(counter, _uri);\n            unlockedTokens[counter] = false;\n            indexes[i] = counter;\n            counter++;\n        }\n        \n        PablockToken(pablockTokenAddress).receiveAndBurn(address(this), msg.sig, to);\n\n\n        emit TokenGeneration(msg.sender, _uri, indexes);\n    }\n\n    function transferFrom(address from, address to, uint256 tokenId) override public isInitialized {\n\n        if(!unlockedTokens[tokenId]){ \n           PablockToken(pablockTokenAddress).receiveAndBurn(address(this), msg.sig, from);\n        }\n\n        _transfer(from, to, tokenId);\n              \n    }\n\n    function unlockToken(uint256 tokenId) public isInitialized{\n        require(ownerOf(tokenId) == msgSender());\n\n        unlockedTokens[tokenId] = true;\n    }\n\n    function isUnlocked(uint256 tokenId) public view returns(bool){\n        return unlockedTokens[tokenId];\n    }\n\n\n    function getVersion() public pure returns (string memory){\n        return \"PablockNFT version 0.2.1\";\n    }\n   \n    // function getTokensOfOwner(address owner) public view returns(uint256[]){\n    //     return _holderTokens[owner];\n    // }\n\n    //OVERRIDE FUNCTIONS\n\n    function _beforeTokenTransfer(address from, address to, uint256 amount) internal virtual override(ERC721, ERC721Enumerable) {\n        super._beforeTokenTransfer(from, to, amount);\n    }\n\n      function _burn(uint256 tokenId) internal virtual override(ERC721, ERC721URIStorage) {\n        super._burn(tokenId);\n    }\n\n      function supportsInterface(bytes4 interfaceId) public view virtual override(ERC721, ERC721Enumerable) returns (bool) {\n        super.supportsInterface(interfaceId);\n    }\n\n     function tokenURI(uint256 tokenId) public view virtual override(ERC721, ERC721URIStorage) returns (string memory) {\n        super.tokenURI(tokenId);\n}\n    \n\n\n}\n\n    \n",
  "sourcePath": "/home/riccardo/WorkspaceLavoro/pablock/pablock-smartcontracts/contracts/pablock/PablockNFT.sol",
  "compiler": {
    "name": "solc",
    "version": "0.8.9+commit.e5eed63a.Emscripten.clang"
  },
  "schemaVersion": "3.3.4",
  "updatedAt": "2021-12-06T18:55:25.198Z",
  "devdoc": {
    "kind": "dev",
    "methods": {
      "approve(address,uint256)": {
        "details": "See {IERC721-approve}."
      },
      "balanceOf(address)": {
        "details": "See {IERC721-balanceOf}."
      },
      "getApproved(uint256)": {
        "details": "See {IERC721-getApproved}."
      },
      "isApprovedForAll(address,address)": {
        "details": "See {IERC721-isApprovedForAll}."
      },
      "name()": {
        "details": "See {IERC721Metadata-name}."
      },
      "ownerOf(uint256)": {
        "details": "See {IERC721-ownerOf}."
      },
      "safeTransferFrom(address,address,uint256)": {
        "details": "See {IERC721-safeTransferFrom}."
      },
      "safeTransferFrom(address,address,uint256,bytes)": {
        "details": "See {IERC721-safeTransferFrom}."
      },
      "setApprovalForAll(address,bool)": {
        "details": "See {IERC721-setApprovalForAll}."
      },
      "symbol()": {
        "details": "See {IERC721Metadata-symbol}."
      },
      "tokenByIndex(uint256)": {
        "details": "See {IERC721Enumerable-tokenByIndex}."
      },
      "tokenOfOwnerByIndex(address,uint256)": {
        "details": "See {IERC721Enumerable-tokenOfOwnerByIndex}."
      },
      "totalSupply()": {
        "details": "See {IERC721Enumerable-totalSupply}."
      },
      "transferFrom(address,address,uint256)": {
        "details": "See {IERC721-transferFrom}."
      }
    },
    "version": 1
  },
  "userdoc": {
    "kind": "user",
    "methods": {},
    "version": 1
  }
}