{
  "contractName": "RelayHub",
  "abi": [
    {
      "inputs": [
        {
          "internalType": "contract IStakeManager",
          "name": "_stakeManager",
          "type": "address"
        },
        {
          "internalType": "address",
          "name": "_penalizer",
          "type": "address"
        },
        {
          "internalType": "uint256",
          "name": "_maxWorkerCount",
          "type": "uint256"
        },
        {
          "internalType": "uint256",
          "name": "_gasReserve",
          "type": "uint256"
        },
        {
          "internalType": "uint256",
          "name": "_postOverhead",
          "type": "uint256"
        },
        {
          "internalType": "uint256",
          "name": "_gasOverhead",
          "type": "uint256"
        },
        {
          "internalType": "uint256",
          "name": "_maximumRecipientDeposit",
          "type": "uint256"
        },
        {
          "internalType": "uint256",
          "name": "_minimumUnstakeDelay",
          "type": "uint256"
        },
        {
          "internalType": "uint256",
          "name": "_minimumStake",
          "type": "uint256"
        }
      ],
      "stateMutability": "nonpayable",
      "type": "constructor"
    },
    {
      "anonymous": false,
      "inputs": [
        {
          "indexed": true,
          "internalType": "address",
          "name": "paymaster",
          "type": "address"
        },
        {
          "indexed": true,
          "internalType": "address",
          "name": "from",
          "type": "address"
        },
        {
          "indexed": false,
          "internalType": "uint256",
          "name": "amount",
          "type": "uint256"
        }
      ],
      "name": "Deposited",
      "type": "event"
    },
    {
      "anonymous": false,
      "inputs": [
        {
          "indexed": true,
          "internalType": "address",
          "name": "relayManager",
          "type": "address"
        },
        {
          "indexed": false,
          "internalType": "uint256",
          "name": "baseRelayFee",
          "type": "uint256"
        },
        {
          "indexed": false,
          "internalType": "uint256",
          "name": "pctRelayFee",
          "type": "uint256"
        },
        {
          "indexed": false,
          "internalType": "string",
          "name": "relayUrl",
          "type": "string"
        }
      ],
      "name": "RelayServerRegistered",
      "type": "event"
    },
    {
      "anonymous": false,
      "inputs": [
        {
          "indexed": true,
          "internalType": "address",
          "name": "relayManager",
          "type": "address"
        },
        {
          "indexed": false,
          "internalType": "address[]",
          "name": "newRelayWorkers",
          "type": "address[]"
        },
        {
          "indexed": false,
          "internalType": "uint256",
          "name": "workersCount",
          "type": "uint256"
        }
      ],
      "name": "RelayWorkersAdded",
      "type": "event"
    },
    {
      "anonymous": false,
      "inputs": [
        {
          "indexed": true,
          "internalType": "address",
          "name": "relayManager",
          "type": "address"
        },
        {
          "indexed": true,
          "internalType": "address",
          "name": "paymaster",
          "type": "address"
        },
        {
          "indexed": true,
          "internalType": "address",
          "name": "from",
          "type": "address"
        },
        {
          "indexed": false,
          "internalType": "address",
          "name": "to",
          "type": "address"
        },
        {
          "indexed": false,
          "internalType": "address",
          "name": "relayWorker",
          "type": "address"
        },
        {
          "indexed": false,
          "internalType": "bytes4",
          "name": "selector",
          "type": "bytes4"
        },
        {
          "indexed": false,
          "internalType": "uint256",
          "name": "innerGasUsed",
          "type": "uint256"
        },
        {
          "indexed": false,
          "internalType": "bytes",
          "name": "reason",
          "type": "bytes"
        }
      ],
      "name": "TransactionRejectedByPaymaster",
      "type": "event"
    },
    {
      "anonymous": false,
      "inputs": [
        {
          "indexed": true,
          "internalType": "address",
          "name": "relayManager",
          "type": "address"
        },
        {
          "indexed": true,
          "internalType": "address",
          "name": "relayWorker",
          "type": "address"
        },
        {
          "indexed": true,
          "internalType": "address",
          "name": "from",
          "type": "address"
        },
        {
          "indexed": false,
          "internalType": "address",
          "name": "to",
          "type": "address"
        },
        {
          "indexed": false,
          "internalType": "address",
          "name": "paymaster",
          "type": "address"
        },
        {
          "indexed": false,
          "internalType": "bytes4",
          "name": "selector",
          "type": "bytes4"
        },
        {
          "indexed": false,
          "internalType": "enum IRelayHub.RelayCallStatus",
          "name": "status",
          "type": "uint8"
        },
        {
          "indexed": false,
          "internalType": "uint256",
          "name": "charge",
          "type": "uint256"
        }
      ],
      "name": "TransactionRelayed",
      "type": "event"
    },
    {
      "anonymous": false,
      "inputs": [
        {
          "indexed": false,
          "internalType": "enum IRelayHub.RelayCallStatus",
          "name": "status",
          "type": "uint8"
        },
        {
          "indexed": false,
          "internalType": "bytes",
          "name": "returnValue",
          "type": "bytes"
        }
      ],
      "name": "TransactionResult",
      "type": "event"
    },
    {
      "anonymous": false,
      "inputs": [
        {
          "indexed": true,
          "internalType": "address",
          "name": "account",
          "type": "address"
        },
        {
          "indexed": true,
          "internalType": "address",
          "name": "dest",
          "type": "address"
        },
        {
          "indexed": false,
          "internalType": "uint256",
          "name": "amount",
          "type": "uint256"
        }
      ],
      "name": "Withdrawn",
      "type": "event"
    },
    {
      "inputs": [],
      "name": "gasOverhead",
      "outputs": [
        {
          "internalType": "uint256",
          "name": "",
          "type": "uint256"
        }
      ],
      "stateMutability": "view",
      "type": "function"
    },
    {
      "inputs": [],
      "name": "gasReserve",
      "outputs": [
        {
          "internalType": "uint256",
          "name": "",
          "type": "uint256"
        }
      ],
      "stateMutability": "view",
      "type": "function"
    },
    {
      "inputs": [],
      "name": "maxWorkerCount",
      "outputs": [
        {
          "internalType": "uint256",
          "name": "",
          "type": "uint256"
        }
      ],
      "stateMutability": "view",
      "type": "function"
    },
    {
      "inputs": [],
      "name": "maximumRecipientDeposit",
      "outputs": [
        {
          "internalType": "uint256",
          "name": "",
          "type": "uint256"
        }
      ],
      "stateMutability": "view",
      "type": "function"
    },
    {
      "inputs": [],
      "name": "minimumStake",
      "outputs": [
        {
          "internalType": "uint256",
          "name": "",
          "type": "uint256"
        }
      ],
      "stateMutability": "view",
      "type": "function"
    },
    {
      "inputs": [],
      "name": "minimumUnstakeDelay",
      "outputs": [
        {
          "internalType": "uint256",
          "name": "",
          "type": "uint256"
        }
      ],
      "stateMutability": "view",
      "type": "function"
    },
    {
      "inputs": [],
      "name": "penalizer",
      "outputs": [
        {
          "internalType": "address",
          "name": "",
          "type": "address"
        }
      ],
      "stateMutability": "view",
      "type": "function"
    },
    {
      "inputs": [],
      "name": "postOverhead",
      "outputs": [
        {
          "internalType": "uint256",
          "name": "",
          "type": "uint256"
        }
      ],
      "stateMutability": "view",
      "type": "function"
    },
    {
      "inputs": [],
      "name": "stakeManager",
      "outputs": [
        {
          "internalType": "contract IStakeManager",
          "name": "",
          "type": "address"
        }
      ],
      "stateMutability": "view",
      "type": "function"
    },
    {
      "inputs": [],
      "name": "versionHub",
      "outputs": [
        {
          "internalType": "string",
          "name": "",
          "type": "string"
        }
      ],
      "stateMutability": "view",
      "type": "function"
    },
    {
      "inputs": [
        {
          "internalType": "address",
          "name": "",
          "type": "address"
        }
      ],
      "name": "workerCount",
      "outputs": [
        {
          "internalType": "uint256",
          "name": "",
          "type": "uint256"
        }
      ],
      "stateMutability": "view",
      "type": "function"
    },
    {
      "inputs": [
        {
          "internalType": "address",
          "name": "",
          "type": "address"
        }
      ],
      "name": "workerToManager",
      "outputs": [
        {
          "internalType": "address",
          "name": "",
          "type": "address"
        }
      ],
      "stateMutability": "view",
      "type": "function"
    },
    {
      "inputs": [
        {
          "internalType": "uint256",
          "name": "baseRelayFee",
          "type": "uint256"
        },
        {
          "internalType": "uint256",
          "name": "pctRelayFee",
          "type": "uint256"
        },
        {
          "internalType": "string",
          "name": "url",
          "type": "string"
        }
      ],
      "name": "registerRelayServer",
      "outputs": [],
      "stateMutability": "nonpayable",
      "type": "function"
    },
    {
      "inputs": [
        {
          "internalType": "address[]",
          "name": "newRelayWorkers",
          "type": "address[]"
        }
      ],
      "name": "addRelayWorkers",
      "outputs": [],
      "stateMutability": "nonpayable",
      "type": "function"
    },
    {
      "inputs": [
        {
          "internalType": "address",
          "name": "target",
          "type": "address"
        }
      ],
      "name": "depositFor",
      "outputs": [],
      "stateMutability": "payable",
      "type": "function"
    },
    {
      "inputs": [
        {
          "internalType": "address",
          "name": "target",
          "type": "address"
        }
      ],
      "name": "balanceOf",
      "outputs": [
        {
          "internalType": "uint256",
          "name": "",
          "type": "uint256"
        }
      ],
      "stateMutability": "view",
      "type": "function"
    },
    {
      "inputs": [
        {
          "internalType": "uint256",
          "name": "amount",
          "type": "uint256"
        },
        {
          "internalType": "address payable",
          "name": "dest",
          "type": "address"
        }
      ],
      "name": "withdraw",
      "outputs": [],
      "stateMutability": "nonpayable",
      "type": "function"
    },
    {
      "inputs": [
        {
          "internalType": "uint256",
          "name": "paymasterMaxAcceptanceBudget",
          "type": "uint256"
        },
        {
          "components": [
            {
              "components": [
                {
                  "internalType": "address",
                  "name": "from",
                  "type": "address"
                },
                {
                  "internalType": "address",
                  "name": "to",
                  "type": "address"
                },
                {
                  "internalType": "uint256",
                  "name": "value",
                  "type": "uint256"
                },
                {
                  "internalType": "uint256",
                  "name": "gas",
                  "type": "uint256"
                },
                {
                  "internalType": "uint256",
                  "name": "nonce",
                  "type": "uint256"
                },
                {
                  "internalType": "bytes",
                  "name": "data",
                  "type": "bytes"
                }
              ],
              "internalType": "struct IForwarder.ForwardRequest",
              "name": "request",
              "type": "tuple"
            },
            {
              "components": [
                {
                  "internalType": "uint256",
                  "name": "gasPrice",
                  "type": "uint256"
                },
                {
                  "internalType": "uint256",
                  "name": "pctRelayFee",
                  "type": "uint256"
                },
                {
                  "internalType": "uint256",
                  "name": "baseRelayFee",
                  "type": "uint256"
                },
                {
                  "internalType": "address",
                  "name": "relayWorker",
                  "type": "address"
                },
                {
                  "internalType": "address",
                  "name": "paymaster",
                  "type": "address"
                },
                {
                  "internalType": "bytes",
                  "name": "paymasterData",
                  "type": "bytes"
                },
                {
                  "internalType": "uint256",
                  "name": "clientId",
                  "type": "uint256"
                },
                {
                  "internalType": "address",
                  "name": "forwarder",
                  "type": "address"
                }
              ],
              "internalType": "struct GsnTypes.RelayData",
              "name": "relayData",
              "type": "tuple"
            }
          ],
          "internalType": "struct GsnTypes.RelayRequest",
          "name": "relayRequest",
          "type": "tuple"
        },
        {
          "internalType": "bytes",
          "name": "signature",
          "type": "bytes"
        },
        {
          "internalType": "bytes",
          "name": "approvalData",
          "type": "bytes"
        },
        {
          "internalType": "uint256",
          "name": "externalGasLimit",
          "type": "uint256"
        }
      ],
      "name": "relayCall",
      "outputs": [
        {
          "internalType": "bool",
          "name": "paymasterAccepted",
          "type": "bool"
        },
        {
          "internalType": "bytes",
          "name": "returnValue",
          "type": "bytes"
        }
      ],
      "stateMutability": "nonpayable",
      "type": "function"
    },
    {
      "inputs": [
        {
          "components": [
            {
              "components": [
                {
                  "internalType": "address",
                  "name": "from",
                  "type": "address"
                },
                {
                  "internalType": "address",
                  "name": "to",
                  "type": "address"
                },
                {
                  "internalType": "uint256",
                  "name": "value",
                  "type": "uint256"
                },
                {
                  "internalType": "uint256",
                  "name": "gas",
                  "type": "uint256"
                },
                {
                  "internalType": "uint256",
                  "name": "nonce",
                  "type": "uint256"
                },
                {
                  "internalType": "bytes",
                  "name": "data",
                  "type": "bytes"
                }
              ],
              "internalType": "struct IForwarder.ForwardRequest",
              "name": "request",
              "type": "tuple"
            },
            {
              "components": [
                {
                  "internalType": "uint256",
                  "name": "gasPrice",
                  "type": "uint256"
                },
                {
                  "internalType": "uint256",
                  "name": "pctRelayFee",
                  "type": "uint256"
                },
                {
                  "internalType": "uint256",
                  "name": "baseRelayFee",
                  "type": "uint256"
                },
                {
                  "internalType": "address",
                  "name": "relayWorker",
                  "type": "address"
                },
                {
                  "internalType": "address",
                  "name": "paymaster",
                  "type": "address"
                },
                {
                  "internalType": "bytes",
                  "name": "paymasterData",
                  "type": "bytes"
                },
                {
                  "internalType": "uint256",
                  "name": "clientId",
                  "type": "uint256"
                },
                {
                  "internalType": "address",
                  "name": "forwarder",
                  "type": "address"
                }
              ],
              "internalType": "struct GsnTypes.RelayData",
              "name": "relayData",
              "type": "tuple"
            }
          ],
          "internalType": "struct GsnTypes.RelayRequest",
          "name": "relayRequest",
          "type": "tuple"
        },
        {
          "internalType": "bytes",
          "name": "signature",
          "type": "bytes"
        },
        {
          "internalType": "bytes",
          "name": "approvalData",
          "type": "bytes"
        },
        {
          "components": [
            {
              "internalType": "uint256",
              "name": "acceptanceBudget",
              "type": "uint256"
            },
            {
              "internalType": "uint256",
              "name": "preRelayedCallGasLimit",
              "type": "uint256"
            },
            {
              "internalType": "uint256",
              "name": "postRelayedCallGasLimit",
              "type": "uint256"
            }
          ],
          "internalType": "struct IPaymaster.GasLimits",
          "name": "gasLimits",
          "type": "tuple"
        },
        {
          "internalType": "uint256",
          "name": "totalInitialGas",
          "type": "uint256"
        },
        {
          "internalType": "uint256",
          "name": "maxPossibleGas",
          "type": "uint256"
        }
      ],
      "name": "innerRelayCall",
      "outputs": [
        {
          "internalType": "enum IRelayHub.RelayCallStatus",
          "name": "",
          "type": "uint8"
        },
        {
          "internalType": "bytes",
          "name": "",
          "type": "bytes"
        }
      ],
      "stateMutability": "nonpayable",
      "type": "function"
    },
    {
      "inputs": [
        {
          "internalType": "uint256",
          "name": "gasUsed",
          "type": "uint256"
        },
        {
          "components": [
            {
              "internalType": "uint256",
              "name": "gasPrice",
              "type": "uint256"
            },
            {
              "internalType": "uint256",
              "name": "pctRelayFee",
              "type": "uint256"
            },
            {
              "internalType": "uint256",
              "name": "baseRelayFee",
              "type": "uint256"
            },
            {
              "internalType": "address",
              "name": "relayWorker",
              "type": "address"
            },
            {
              "internalType": "address",
              "name": "paymaster",
              "type": "address"
            },
            {
              "internalType": "bytes",
              "name": "paymasterData",
              "type": "bytes"
            },
            {
              "internalType": "uint256",
              "name": "clientId",
              "type": "uint256"
            },
            {
              "internalType": "address",
              "name": "forwarder",
              "type": "address"
            }
          ],
          "internalType": "struct GsnTypes.RelayData",
          "name": "relayData",
          "type": "tuple"
        }
      ],
      "name": "calculateCharge",
      "outputs": [
        {
          "internalType": "uint256",
          "name": "",
          "type": "uint256"
        }
      ],
      "stateMutability": "view",
      "type": "function"
    },
    {
      "inputs": [
        {
          "internalType": "address",
          "name": "relayManager",
          "type": "address"
        }
      ],
      "name": "isRelayManagerStaked",
      "outputs": [
        {
          "internalType": "bool",
          "name": "",
          "type": "bool"
        }
      ],
      "stateMutability": "view",
      "type": "function"
    },
    {
      "inputs": [
        {
          "internalType": "address",
          "name": "relayWorker",
          "type": "address"
        },
        {
          "internalType": "address payable",
          "name": "beneficiary",
          "type": "address"
        }
      ],
      "name": "penalize",
      "outputs": [],
      "stateMutability": "nonpayable",
      "type": "function"
    }
  ],
  "bytecode": "0x60806040526040518060400160405280601b81526020017f322e302e302b6f70656e67736e2e6875622e6972656c61796875620000000000815250600090805190602001906200005192919062000147565b503480156200005f57600080fd5b50604051620055e5380380620055e583398181016040528101906200008591906200023b565b88600860006101000a81548173ffffffffffffffffffffffffffffffffffffffff021916908373ffffffffffffffffffffffffffffffffffffffff16021790555087600960006101000a81548173ffffffffffffffffffffffffffffffffffffffff021916908373ffffffffffffffffffffffffffffffffffffffff16021790555086600781905550856006819055508460058190555083600481905550826003819055508160028190555080600181905550505050505050505050620003b4565b828054600181600116156101000203166002900490600052602060002090601f016020900481019282601f106200018a57805160ff1916838001178555620001bb565b82800160010185558215620001bb579182015b82811115620001ba5782518255916020019190600101906200019d565b5b509050620001ca9190620001ce565b5090565b620001f391905b80821115620001ef576000816000905550600101620001d5565b5090565b90565b600081519050620002078162000366565b92915050565b6000815190506200021e8162000380565b92915050565b60008151905062000235816200039a565b92915050565b60008060008060008060008060006101208a8c0312156200025b57600080fd5b60006200026b8c828d016200020d565b99505060206200027e8c828d01620001f6565b9850506040620002918c828d0162000224565b9750506060620002a48c828d0162000224565b9650506080620002b78c828d0162000224565b95505060a0620002ca8c828d0162000224565b94505060c0620002dd8c828d0162000224565b93505060e0620002f08c828d0162000224565b925050610100620003048c828d0162000224565b9150509295985092959850929598565b600062000321826200033c565b9050919050565b6000620003358262000314565b9050919050565b600073ffffffffffffffffffffffffffffffffffffffff82169050919050565b6000819050919050565b620003718162000314565b81146200037d57600080fd5b50565b6200038b8162000328565b81146200039757600080fd5b50565b620003a5816200035c565b8114620003b157600080fd5b50565b61522180620003c46000396000f3fe6080604052600436106101345760003560e01c8063aa67c919116100ab578063d904c7321161006f578063d904c73214610441578063e5fad9781461046c578063ebcd31ac14610497578063ec5ffac2146104c0578063eea7570e146104eb578063fbb446071461051657610134565b8063aa67c91914610369578063ba3ecc5b14610385578063c2da0786146103b0578063c4775a68146103d9578063ca998f561461040457610134565b806370a08231116100fd57806370a082311461024557806371116320146102825780637542ff95146102ad57806383b71871146102d857806383fea4ef1461030157806386a16f8f1461032c57610134565b8062f714ce14610139578063194ac3071461016257806327b4256a1461019f5780632ad311b5146101dd5780633a3e83ac1461021a575b600080fd5b34801561014557600080fd5b50610160600480360381019061015b91906134f6565b610554565b005b34801561016e57600080fd5b50610189600480360381019061018491906131f9565b610721565b6040516101969190614c7c565b60405180910390f35b3480156101ab57600080fd5b506101c660048036038101906101c19190613586565b610739565b6040516101d49291906146ae565b60405180910390f35b3480156101e957600080fd5b5061020460048036038101906101ff91906131f9565b6112bc565b6040516102119190614693565b60405180910390f35b34801561022657600080fd5b5061022f61137a565b60405161023c9190614c7c565b60405180910390f35b34801561025157600080fd5b5061026c600480360381019061026791906131f9565b611380565b6040516102799190614c7c565b60405180910390f35b34801561028e57600080fd5b506102976113c9565b6040516102a49190614c7c565b60405180910390f35b3480156102b957600080fd5b506102c26113cf565b6040516102cf919061482c565b60405180910390f35b3480156102e457600080fd5b506102ff60048036038101906102fa919061364e565b6113f5565b005b34801561030d57600080fd5b5061031661151f565b6040516103239190614c7c565b60405180910390f35b34801561033857600080fd5b50610353600480360381019061034e9190613532565b611525565b6040516103609190614c7c565b60405180910390f35b610383600480360381019061037e91906131f9565b611598565b005b34801561039157600080fd5b5061039a6116e0565b6040516103a79190614c7c565b60405180910390f35b3480156103bc57600080fd5b506103d760048036038101906103d2919061325e565b6116e6565b005b3480156103e557600080fd5b506103ee611a80565b6040516103fb919061451d565b60405180910390f35b34801561041057600080fd5b5061042b600480360381019061042691906131f9565b611aa6565b604051610438919061451d565b60405180910390f35b34801561044d57600080fd5b50610456611ad9565b6040516104639190614877565b60405180910390f35b34801561047857600080fd5b50610481611b77565b60405161048e9190614c7c565b60405180910390f35b3480156104a357600080fd5b506104be60048036038101906104b99190613222565b611b7d565b005b3480156104cc57600080fd5b506104d5611e79565b6040516104e29190614c7c565b60405180910390f35b3480156104f757600080fd5b50610500611e7f565b60405161050d9190614c7c565b60405180910390f35b34801561052257600080fd5b5061053d600480360381019061053891906133f1565b611e85565b60405161054b929190614847565b60405180910390f35b600033905082600c60008373ffffffffffffffffffffffffffffffffffffffff1673ffffffffffffffffffffffffffffffffffffffff1681526020019081526020016000205410156105db576040517f08c379a00000000000000000000000000000000000000000000000000000000081526004016105d290614a99565b60405180910390fd5b61062d83600c60008473ffffffffffffffffffffffffffffffffffffffff1673ffffffffffffffffffffffffffffffffffffffff1681526020019081526020016000205461233590919063ffffffff16565b600c60008373ffffffffffffffffffffffffffffffffffffffff1673ffffffffffffffffffffffffffffffffffffffff168152602001908152602001600020819055508173ffffffffffffffffffffffffffffffffffffffff166108fc849081150290604051600060405180830381858888f193505050501580156106b6573d6000803e3d6000fd5b508173ffffffffffffffffffffffffffffffffffffffff168173ffffffffffffffffffffffffffffffffffffffff167fd1c19fbcd4551a5edfb66d43d2e337c04837afda3482b42bdf569a8fccdae5fb856040516107149190614c7c565b60405180910390a3505050565b600b6020528060005260406000206000915090505481565b60006060610745612d84565b6107b18980600001906107589190614d2e565b8060a001906107679190614cd7565b8080601f016020809104026020016040519081016040528093929190818152602001838380828437600081840152601f19601f820116905080830192505050505050506000612385565b81602001907bffffffffffffffffffffffffffffffffffffffffffffffffffffffff191690817bffffffffffffffffffffffffffffffffffffffffffffffffffffffff1916815250503273ffffffffffffffffffffffffffffffffffffffff163373ffffffffffffffffffffffffffffffffffffffff1614610868576040517f08c379a000000000000000000000000000000000000000000000000000000000815260040161085f906149d9565b60405180910390fd5b600073ffffffffffffffffffffffffffffffffffffffff16600a60003373ffffffffffffffffffffffffffffffffffffffff1673ffffffffffffffffffffffffffffffffffffffff16815260200190815260200160002060009054906101000a900473ffffffffffffffffffffffffffffffffffffffff1673ffffffffffffffffffffffffffffffffffffffff161415610937576040517f08c379a000000000000000000000000000000000000000000000000000000000815260040161092e90614b19565b60405180910390fd5b3373ffffffffffffffffffffffffffffffffffffffff1689806020019061095e9190614d52565b606001602081019061097091906131f9565b73ffffffffffffffffffffffffffffffffffffffff16146109c6576040517f08c379a00000000000000000000000000000000000000000000000000000000081526004016109bd90614ab9565b60405180910390fd5b610a2e600a60003373ffffffffffffffffffffffffffffffffffffffff1673ffffffffffffffffffffffffffffffffffffffff16815260200190815260200160002060009054906101000a900473ffffffffffffffffffffffffffffffffffffffff166112bc565b610a6d576040517f08c379a0000000000000000000000000000000000000000000000000000000008152600401610a64906149b9565b60405180910390fd5b3a898060200190610a7e9190614d52565b600001351115610ac3576040517f08c379a0000000000000000000000000000000000000000000000000000000008152600401610aba90614919565b60405180910390fd5b45841115610b06576040517f08c379a0000000000000000000000000000000000000000000000000000000008152600401610afd90614899565b60405180910390fd5b610b118a8a86612405565b826080018360e00182815250829052505060006006546040603f5a0281610b3457fe5b040390505a82610100018181525050600060055460045487840101019050600060603073ffffffffffffffffffffffffffffffffffffffff168463fbb4460760e01b8f8f8f8f8f8c608001515a8c038e60e00151604051602401610b9f989796959493929190614ba3565b604051602081830303815290604052907bffffffffffffffffffffffffffffffffffffffffffffffffffffffff19166020820180517bffffffffffffffffffffffffffffffffffffffffffffffffffffffff8381831617835250505050604051610c099190614488565b60006040518083038160008787f1925050503d8060008114610c47576040519150601f19603f3d011682016040523d82523d6000602084013e610c4c565b606091505b5091509150818560000190151590811515815250505a856101000151038560c001818152505080806020019051810190610c869190613374565b8660a00187606001829052826006811115610c9d57fe5b6006811115610ca857fe5b815250505060008560600151511115610cfd577fa1478a4242848419db824250a0dddc645dca0d6a9b12ab1fd79b00145a0ba98e8560a001518660600151604051610cf4929190614847565b60405180910390a15b505050508060000151610ef6578060800151600001518160c00151108015610d89575060026006811115610d2d57fe5b8160a001516006811115610d3d57fe5b1480610d63575060036006811115610d5157fe5b8160a001516006811115610d6157fe5b145b80610d88575060046006811115610d7657fe5b8160a001516006811115610d8657fe5b145b5b15610ef55760009250888060000190610da29190614d2e565b6000016020810190610db491906131f9565b73ffffffffffffffffffffffffffffffffffffffff16898060200190610dda9190614d52565b6080016020810190610dec91906131f9565b73ffffffffffffffffffffffffffffffffffffffff16600a60003373ffffffffffffffffffffffffffffffffffffffff1673ffffffffffffffffffffffffffffffffffffffff16815260200190815260200160002060009054906101000a900473ffffffffffffffffffffffffffffffffffffffff1673ffffffffffffffffffffffffffffffffffffffff167fddb88484d11f800b80fe63aa67488ec56ee001d85896d528912c5d850cbcd06a8c8060000190610ea99190614d2e565b6020016020810190610ebb91906131f9565b3386602001518760c001518860600151604051610edc959493929190614538565b60405180910390a46000816060015192509250506112b0565b5b60006004545a86030190506000610f1c828c8060200190610f179190614d52565b611525565b9050610f9181600c60008e8060200190610f369190614d52565b6080016020810190610f4891906131f9565b73ffffffffffffffffffffffffffffffffffffffff1673ffffffffffffffffffffffffffffffffffffffff1681526020019081526020016000205461233590919063ffffffff16565b600c60008d8060200190610fa59190614d52565b6080016020810190610fb791906131f9565b73ffffffffffffffffffffffffffffffffffffffff1673ffffffffffffffffffffffffffffffffffffffff168152602001908152602001600020819055506110a681600c6000600a60003373ffffffffffffffffffffffffffffffffffffffff1673ffffffffffffffffffffffffffffffffffffffff16815260200190815260200160002060009054906101000a900473ffffffffffffffffffffffffffffffffffffffff1673ffffffffffffffffffffffffffffffffffffffff1673ffffffffffffffffffffffffffffffffffffffff1681526020019081526020016000205461265d90919063ffffffff16565b600c6000600a60003373ffffffffffffffffffffffffffffffffffffffff1673ffffffffffffffffffffffffffffffffffffffff16815260200190815260200160002060009054906101000a900473ffffffffffffffffffffffffffffffffffffffff1673ffffffffffffffffffffffffffffffffffffffff1673ffffffffffffffffffffffffffffffffffffffff168152602001908152602001600020819055508a80600001906111589190614d2e565b600001602081019061116a91906131f9565b73ffffffffffffffffffffffffffffffffffffffff163373ffffffffffffffffffffffffffffffffffffffff16600a60003373ffffffffffffffffffffffffffffffffffffffff1673ffffffffffffffffffffffffffffffffffffffff16815260200190815260200160002060009054906101000a900473ffffffffffffffffffffffffffffffffffffffff1673ffffffffffffffffffffffffffffffffffffffff167fc9aa709786a3d5fe2cc947abc1ba8cbb0f6decb57aa74b84eb7f558125fee4548e806000019061123e9190614d2e565b602001602081019061125091906131f9565b8f80602001906112609190614d52565b608001602081019061127291906131f9565b88602001518960a001518860405161128e9594939291906145c9565b60405180910390a4600160405180602001604052806000815250945094505050505b97509795505050505050565b6000600860009054906101000a900473ffffffffffffffffffffffffffffffffffffffff1673ffffffffffffffffffffffffffffffffffffffff16636de8dd4183306001546002546040518563ffffffff1660e01b8152600401611323949392919061461c565b60206040518083038186803b15801561133b57600080fd5b505afa15801561134f573d6000803e3d6000fd5b505050506040513d601f19601f8201168201806040525081019061137391906132a3565b9050919050565b60035481565b6000600c60008373ffffffffffffffffffffffffffffffffffffffff1673ffffffffffffffffffffffffffffffffffffffff168152602001908152602001600020549050919050565b60025481565b600860009054906101000a900473ffffffffffffffffffffffffffffffffffffffff1681565b6000339050611403816112bc565b611442576040517f08c379a0000000000000000000000000000000000000000000000000000000008152600401611439906149b9565b60405180910390fd5b6000600b60008373ffffffffffffffffffffffffffffffffffffffff1673ffffffffffffffffffffffffffffffffffffffff16815260200190815260200160002054116114c4576040517f08c379a00000000000000000000000000000000000000000000000000000000081526004016114bb90614a19565b60405180910390fd5b8073ffffffffffffffffffffffffffffffffffffffff167f77f2d8afec4b9d82ffa0dea525320620292bd1067f575964994d5c4501479aed868686866040516115109493929190614c97565b60405180910390a25050505050565b60045481565b600061159061157d606461156f61154a6064876020013561265d90919063ffffffff16565b6115618760000135896126b290919063ffffffff16565b6126b290919063ffffffff16565b61272290919063ffffffff16565b836040013561265d90919063ffffffff16565b905092915050565b60003490506003548111156115e2576040517f08c379a00000000000000000000000000000000000000000000000000000000081526004016115d990614979565b60405180910390fd5b61163481600c60008573ffffffffffffffffffffffffffffffffffffffff1673ffffffffffffffffffffffffffffffffffffffff1681526020019081526020016000205461265d90919063ffffffff16565b600c60008473ffffffffffffffffffffffffffffffffffffffff1673ffffffffffffffffffffffffffffffffffffffff168152602001908152602001600020819055503373ffffffffffffffffffffffffffffffffffffffff168273ffffffffffffffffffffffffffffffffffffffff167f8752a472e571a816aea92eec8dae9baf628e840f4929fbcc2d155e6233ff68a7836040516116d49190614c7c565b60405180910390a35050565b60055481565b600033905082829050600b60008373ffffffffffffffffffffffffffffffffffffffff1673ffffffffffffffffffffffffffffffffffffffff1681526020019081526020016000205401600b60008373ffffffffffffffffffffffffffffffffffffffff1673ffffffffffffffffffffffffffffffffffffffff16815260200190815260200160002081905550600754600b60008373ffffffffffffffffffffffffffffffffffffffff1673ffffffffffffffffffffffffffffffffffffffff1681526020019081526020016000205411156117f7576040517f08c379a00000000000000000000000000000000000000000000000000000000081526004016117ee90614a79565b60405180910390fd5b611800816112bc565b61183f576040517f08c379a0000000000000000000000000000000000000000000000000000000008152600401611836906149b9565b60405180910390fd5b60008090505b838390508110156119e957600073ffffffffffffffffffffffffffffffffffffffff16600a600086868581811061187857fe5b905060200201602081019061188d91906131f9565b73ffffffffffffffffffffffffffffffffffffffff1673ffffffffffffffffffffffffffffffffffffffff16815260200190815260200160002060009054906101000a900473ffffffffffffffffffffffffffffffffffffffff1673ffffffffffffffffffffffffffffffffffffffff161461193e576040517f08c379a0000000000000000000000000000000000000000000000000000000008152600401611935906148b9565b60405180910390fd5b81600a600086868581811061194f57fe5b905060200201602081019061196491906131f9565b73ffffffffffffffffffffffffffffffffffffffff1673ffffffffffffffffffffffffffffffffffffffff16815260200190815260200160002060006101000a81548173ffffffffffffffffffffffffffffffffffffffff021916908373ffffffffffffffffffffffffffffffffffffffff1602179055508080600101915050611845565b508073ffffffffffffffffffffffffffffffffffffffff167febf4a9bffb39f7c5dbf3f65540183b9381ae226ac3d0a45b4cad484713bd4a288484600b60008673ffffffffffffffffffffffffffffffffffffffff1673ffffffffffffffffffffffffffffffffffffffff16815260200190815260200160002054604051611a7393929190614661565b60405180910390a2505050565b600960009054906101000a900473ffffffffffffffffffffffffffffffffffffffff1681565b600a6020528060005260406000206000915054906101000a900473ffffffffffffffffffffffffffffffffffffffff1681565b60008054600181600116156101000203166002900480601f016020809104026020016040519081016040528092919081815260200182805460018160011615610100020316600290048015611b6f5780601f10611b4457610100808354040283529160200191611b6f565b820191906000526020600020905b815481529060010190602001808311611b5257829003601f168201915b505050505081565b60075481565b600960009054906101000a900473ffffffffffffffffffffffffffffffffffffffff1673ffffffffffffffffffffffffffffffffffffffff163373ffffffffffffffffffffffffffffffffffffffff1614611c0d576040517f08c379a0000000000000000000000000000000000000000000000000000000008152600401611c0490614a39565b60405180910390fd5b6000600a60008473ffffffffffffffffffffffffffffffffffffffff1673ffffffffffffffffffffffffffffffffffffffff16815260200190815260200160002060009054906101000a900473ffffffffffffffffffffffffffffffffffffffff169050600073ffffffffffffffffffffffffffffffffffffffff168173ffffffffffffffffffffffffffffffffffffffff161415611ce1576040517f08c379a0000000000000000000000000000000000000000000000000000000008152600401611cd890614b19565b60405180910390fd5b611cea816112bc565b611d29576040517f08c379a0000000000000000000000000000000000000000000000000000000008152600401611d20906149b9565b60405180910390fd5b611d31612e09565b600860009054906101000a900473ffffffffffffffffffffffffffffffffffffffff1673ffffffffffffffffffffffffffffffffffffffff1663c3453153836040518263ffffffff1660e01b8152600401611d8c919061451d565b60806040518083038186803b158015611da457600080fd5b505afa158015611db8573d6000803e3d6000fd5b505050506040513d601f19601f82011682018060405250810190611ddc91906134cd565b9050600860009054906101000a900473ffffffffffffffffffffffffffffffffffffffff1673ffffffffffffffffffffffffffffffffffffffff166309a08af4838584600001516040518463ffffffff1660e01b8152600401611e4193929190614592565b600060405180830381600087803b158015611e5b57600080fd5b505af1158015611e6f573d6000803e3d6000fd5b5050505050505050565b60015481565b60065481565b60006060611e91612e47565b3073ffffffffffffffffffffffffffffffffffffffff163373ffffffffffffffffffffffffffffffffffffffff1614611eff576040517f08c379a0000000000000000000000000000000000000000000000000000000008152600401611ef6906148d9565b60405180910390fd5b600c60008c8060200190611f139190614d52565b6080016020810190611f2591906131f9565b73ffffffffffffffffffffffffffffffffffffffff1673ffffffffffffffffffffffffffffffffffffffff1681526020019081526020016000205481600001818152505063e5c1244660e01b8b8b8b8b8b89604051602401611f8c96959493929190614c1e565b604051602081830303815290604052907bffffffffffffffffffffffffffffffffffffffffffffffffffffffff19166020820180517bffffffffffffffffffffffffffffffffffffffffffffffffffffffff83818316178352505050508160a00181905250600060608c80602001906120059190614d52565b608001602081019061201791906131f9565b73ffffffffffffffffffffffffffffffffffffffff1688602001358460a001516040516120449190614488565b60006040518083038160008787f1925050503d8060008114612082576040519150601f19603f3d011682016040523d82523d6000602084013e612087565b606091505b508092508193505050816120aa5761209e81612778565b6120a9600282612787565b5b808060200190518101906120be9190613320565b846080018560c00182151515158152508290525050505060006120e28c8c8c6127c0565b84604001856060018290528215151515815250829350505050806121105761210f60038360600151612787565b5b8160c00151801561212357508160400151155b156121385761213760048360600151612787565b5b50638e9483b060e01b816080015182604001515a88038e806020019061215e9190614d52565b60405160240161217194939291906147d9565b604051602081830303815290604052907bffffffffffffffffffffffffffffffffffffffffffffffffffffffff19166020820180517bffffffffffffffffffffffffffffffffffffffffffffffffffffffff83818316178352505050508160a00181905250600060608c80602001906121ea9190614d52565b60800160208101906121fc91906131f9565b73ffffffffffffffffffffffffffffffffffffffff1688604001358460a001516040516122299190614488565b60006040518083038160008787f1925050503d8060008114612267576040519150601f19603f3d011682016040523d82523d6000602084013e61226c565b606091505b50915091508161228257612281600582612787565b5b50508060000151600c60008d806020019061229d9190614d52565b60800160208101906122af91906131f9565b73ffffffffffffffffffffffffffffffffffffffff1673ffffffffffffffffffffffffffffffffffffffff16815260200190815260200160002054101561230b5761230a600660405180602001604052806000815250612787565b5b806040015161231b57600161231e565b60005b816060015192509250509850989650505050505050565b60008282111561237a576040517f08c379a000000000000000000000000000000000000000000000000000000000815260040161237190614999565b60405180910390fd5b818303905092915050565b600060048201835110156123ce576040517f08c379a00000000000000000000000000000000000000000000000000000000081526004016123c590614af9565b60405180910390fd5b6020820183015190507fffffffff000000000000000000000000000000000000000000000000000000008116905080905092915050565b61240d612e8b565b600083806020019061241f9190614d52565b608001602081019061243191906131f9565b73ffffffffffffffffffffffffffffffffffffffff16635ea54eee61c3506040518263ffffffff1660e01b815260040160606040518083038187803b15801561247957600080fd5b5086fa15801561248d573d6000803e3d6000fd5b50505050506040513d601f19601f820116820180604052508101906124b291906133c8565b915081600001518510156124fb576040517f08c379a00000000000000000000000000000000000000000000000000000000081526004016124f290614939565b60405180910390fd5b61254f84806000019061250e9190614d2e565b606001356125418460400151612533866020015160045461265d90919063ffffffff16565b61265d90919063ffffffff16565b61265d90919063ffffffff16565b905080831015612594576040517f08c379a000000000000000000000000000000000000000000000000000000000815260040161258b90614959565b60405180910390fd5b60006125af828680602001906125aa9190614d52565b611525565b9050600c60008680602001906125c59190614d52565b60800160208101906125d791906131f9565b73ffffffffffffffffffffffffffffffffffffffff1673ffffffffffffffffffffffffffffffffffffffff16815260200190815260200160002054811115612654576040517f08c379a000000000000000000000000000000000000000000000000000000000815260040161264b90614ad9565b60405180910390fd5b50935093915050565b6000808284019050838110156126a8576040517f08c379a000000000000000000000000000000000000000000000000000000000815260040161269f906148f9565b60405180910390fd5b8091505092915050565b6000808314156126c5576000905061271c565b60008284029050828482816126d657fe5b0414612717576040517f08c379a000000000000000000000000000000000000000000000000000000000815260040161270e90614a59565b60405180910390fd5b809150505b92915050565b6000808211612766576040517f08c379a000000000000000000000000000000000000000000000000000000000815260040161275d906149f9565b60405180910390fd5b81838161276f57fe5b04905092915050565b61278481610400612a00565b50565b6060828260405160200161279c929190614847565b60405160208183030381529060405290506127b681612778565b8051602082018181fd5b60008060606127cd612eac565b60606127d888612a11565b9150915060006128088980602001906127f19190614d52565b60e001602081019061280391906131f9565b612b90565b905088806020019061281a9190614d52565b60e001602081019061282c91906131f9565b73ffffffffffffffffffffffffffffffffffffffff1663cdf5735a60e01b84836040518060400160405280600c81526020017f52656c61795265717565737400000000000000000000000000000000000000008152506040518060800160405280604a81526020016151a2604a91396040518060e0016040528060a1815260200161510160a191396040516020016128c491906144e6565b6040516020818303038152906040526040516020016128e59392919061449f565b60405160208183030381529060405280519060200120868d8d60405160240161291396959493929190614b39565b604051602081830303815290604052907bffffffffffffffffffffffffffffffffffffffffffffffffffffffff19166020820180517bffffffffffffffffffffffffffffffffffffffffffffffffffffffff838183161783525050505060405161297d9190614488565b6000604051808303816000865af19150503d80600081146129ba576040519150601f19603f3d011682016040523d82523d6000602084013e6129bf565b606091505b50809550819750505085156129eb57838060200190518101906129e291906132cc565b80955081965050505b6129f484612778565b50505093509350939050565b8082511115612a0d578082525b5050565b612a19612eac565b60606040518060c00160405280848060000190612a369190614d2e565b6000016020810190612a4891906131f9565b73ffffffffffffffffffffffffffffffffffffffff168152602001848060000190612a739190614d2e565b6020016020810190612a8591906131f9565b73ffffffffffffffffffffffffffffffffffffffff168152602001848060000190612ab09190614d2e565b604001358152602001848060000190612ac99190614d2e565b606001358152602001848060000190612ae29190614d2e565b608001358152602001848060000190612afb9190614d2e565b8060a00190612b0a9190614cd7565b8080601f016020809104026020016040519081016040528093929190818152602001838380828437600081840152601f19601f820116905080830192505050505050508152509150612b6a838060200190612b659190614d52565b612c49565b604051602001612b7a91906146de565b6040516020818303038152906040529050915091565b6000612c4260405180608001604052806040518060400160405280601781526020017f47534e2052656c61796564205472616e73616374696f6e00000000000000000081525081526020016040518060400160405280600181526020017f32000000000000000000000000000000000000000000000000000000000000008152508152602001612c1e612d13565b81526020018473ffffffffffffffffffffffffffffffffffffffff16815250612d1b565b9050919050565b60006040518060e0016040528060a1815260200161510160a1913980519060200120826000013583602001358460400135856060016020810190612c8d91906131f9565b866080016020810190612ca091906131f9565b8760e0016020810190612cb391906131f9565b888060a00190612cc39190614cd7565b604051612cd192919061446f565b60405180910390208960c00135604051602001612cf69998979695949392919061474c565b604051602081830303815290604052805190602001209050919050565b600046905090565b6000604051612d2990614508565b604051809103902082600001518051906020012083602001518051906020012084604001518560600151604051602001612d679594939291906146f9565b604051602081830303815290604052805190602001209050919050565b60405180610140016040528060001515815260200160007bffffffffffffffffffffffffffffffffffffffffffffffffffffffff191681526020016060815260200160608152602001612dd5612e8b565b815260200160006006811115612de757fe5b8152602001600081526020016000815260200160008152602001606081525090565b6040518060800160405280600081526020016000815260200160008152602001600073ffffffffffffffffffffffffffffffffffffffff1681525090565b6040518060e0016040528060008152602001600080191681526020016000151581526020016060815260200160608152602001606081526020016000151581525090565b60405180606001604052806000815260200160008152602001600081525090565b6040518060c00160405280600073ffffffffffffffffffffffffffffffffffffffff168152602001600073ffffffffffffffffffffffffffffffffffffffff168152602001600081526020016000815260200160008152602001606081525090565b600081359050612f1d81615094565b92915050565b600081359050612f32816150ab565b92915050565b600081519050612f47816150ab565b92915050565b60008083601f840112612f5f57600080fd5b8235905067ffffffffffffffff811115612f7857600080fd5b602083019150836020820283011115612f9057600080fd5b9250929050565b600081519050612fa6816150c2565b92915050565b60008083601f840112612fbe57600080fd5b8235905067ffffffffffffffff811115612fd757600080fd5b602083019150836001820283011115612fef57600080fd5b9250929050565b600082601f83011261300757600080fd5b815161301a61301582614da4565b614d77565b9150808252602083016020830185838301111561303657600080fd5b613041838284615043565b50505092915050565b600081519050613059816150d9565b92915050565b60008083601f84011261307157600080fd5b8235905067ffffffffffffffff81111561308a57600080fd5b6020830191508360018202830111156130a257600080fd5b9250929050565b6000606082840312156130bb57600080fd5b81905092915050565b6000606082840312156130d657600080fd5b6130e06060614d77565b905060006130f0848285016131e4565b6000830152506020613104848285016131e4565b6020830152506040613118848285016131e4565b60408301525092915050565b6000610100828403121561313757600080fd5b81905092915050565b60006040828403121561315257600080fd5b81905092915050565b60006080828403121561316d57600080fd5b6131776080614d77565b90506000613187848285016131e4565b600083015250602061319b848285016131e4565b60208301525060406131af848285016131e4565b60408301525060606131c384828501612f38565b60608301525092915050565b6000813590506131de816150e9565b92915050565b6000815190506131f3816150e9565b92915050565b60006020828403121561320b57600080fd5b600061321984828501612f0e565b91505092915050565b6000806040838503121561323557600080fd5b600061324385828601612f0e565b925050602061325485828601612f23565b9150509250929050565b6000806020838503121561327157600080fd5b600083013567ffffffffffffffff81111561328b57600080fd5b61329785828601612f4d565b92509250509250929050565b6000602082840312156132b557600080fd5b60006132c384828501612f97565b91505092915050565b600080604083850312156132df57600080fd5b60006132ed85828601612f97565b925050602083015167ffffffffffffffff81111561330a57600080fd5b61331685828601612ff6565b9150509250929050565b6000806040838503121561333357600080fd5b600083015167ffffffffffffffff81111561334d57600080fd5b61335985828601612ff6565b925050602061336a85828601612f97565b9150509250929050565b6000806040838503121561338757600080fd5b60006133958582860161304a565b925050602083015167ffffffffffffffff8111156133b257600080fd5b6133be85828601612ff6565b9150509250929050565b6000606082840312156133da57600080fd5b60006133e8848285016130c4565b91505092915050565b600080600080600080600080610100898b03121561340e57600080fd5b600089013567ffffffffffffffff81111561342857600080fd5b6134348b828c01613140565b985050602089013567ffffffffffffffff81111561345157600080fd5b61345d8b828c01612fac565b9750975050604089013567ffffffffffffffff81111561347c57600080fd5b6134888b828c01612fac565b9550955050606061349b8b828c016130a9565b93505060c06134ac8b828c016131cf565b92505060e06134bd8b828c016131cf565b9150509295985092959890939650565b6000608082840312156134df57600080fd5b60006134ed8482850161315b565b91505092915050565b6000806040838503121561350957600080fd5b6000613517858286016131cf565b925050602061352885828601612f23565b9150509250929050565b6000806040838503121561354557600080fd5b6000613553858286016131cf565b925050602083013567ffffffffffffffff81111561357057600080fd5b61357c85828601613124565b9150509250929050565b600080600080600080600060a0888a0312156135a157600080fd5b60006135af8a828b016131cf565b975050602088013567ffffffffffffffff8111156135cc57600080fd5b6135d88a828b01613140565b965050604088013567ffffffffffffffff8111156135f557600080fd5b6136018a828b01612fac565b9550955050606088013567ffffffffffffffff81111561362057600080fd5b61362c8a828b01612fac565b9350935050608061363f8a828b016131cf565b91505092959891949750929550565b6000806000806060858703121561366457600080fd5b6000613672878288016131cf565b9450506020613683878288016131cf565b935050604085013567ffffffffffffffff8111156136a057600080fd5b6136ac8782880161305f565b925092505092959194509250565b60006136c683836136f0565b60208301905092915050565b6136db81614fc8565b82525050565b6136ea81614f37565b82525050565b6136f981614f25565b82525050565b61370881614f25565b82525050565b600061371a8385614dfd565b935061372582614dd0565b8060005b8581101561375e5761373b8284614e57565b61374588826136ba565b975061375083614df0565b925050600181019050613729565b5085925050509392505050565b61377481614f49565b82525050565b61378381614f55565b82525050565b61379281614f5f565b82525050565b60006137a48385614e0e565b93506137b1838584615034565b6137ba83615076565b840190509392505050565b60006137d18385614e1f565b93506137de838584615034565b6137e783615076565b840190509392505050565b60006137fe8385614e30565b935061380b838584615034565b82840190509392505050565b600061382282614dda565b61382c8185614e0e565b935061383c818560208601615043565b61384581615076565b840191505092915050565b600061385b82614dda565b6138658185614e1f565b9350613875818560208601615043565b61387e81615076565b840191505092915050565b600061389482614dda565b61389e8185614e30565b93506138ae818560208601615043565b80840191505092915050565b6138c381614fda565b82525050565b6138d281614ffe565b82525050565b60006138e48385614e3b565b93506138f1838584615034565b6138fa83615076565b840190509392505050565b600061391082614de5565b61391a8185614e3b565b935061392a818560208601615043565b61393381615076565b840191505092915050565b600061394982614de5565b6139538185614e4c565b9350613963818560208601615043565b80840191505092915050565b600061397c601483614e3b565b91507f496d706f737369626c6520676173206c696d69740000000000000000000000006000830152602082019050919050565b60006139bc601983614e3b565b91507f7468697320776f726b6572206861732061206d616e61676572000000000000006000830152602082019050919050565b60006139fc602783614e3b565b91507f4f6e6c792052656c61794875622073686f756c642063616c6c2074686973206660008301527f756e6374696f6e000000000000000000000000000000000000000000000000006020830152604082019050919050565b6000613a62601b83614e3b565b91507f536166654d6174683a206164646974696f6e206f766572666c6f7700000000006000830152602082019050919050565b6000613aa2600183614e4c565b91507f2c000000000000000000000000000000000000000000000000000000000000006000830152600182019050919050565b6000613ae2601483614e4c565b91507f52656c6179446174612072656c617944617461290000000000000000000000006000830152601482019050919050565b6000613b22601183614e3b565b91507f496e76616c6964206761732070726963650000000000000000000000000000006000830152602082019050919050565b6000613b62600183614e4c565b91507f28000000000000000000000000000000000000000000000000000000000000006000830152600182019050919050565b6000613ba2602083614e3b565b91507f756e6578706563746564206869676820616363657074616e63654275646765746000830152602082019050919050565b6000613be2603283614e3b565b91507f4e6f7420656e6f75676820676173206c65667420666f7220696e6e657252656c60008301527f617943616c6c20746f20636f6d706c65746500000000000000000000000000006020830152604082019050919050565b6000613c48600f83614e3b565b91507f6465706f73697420746f6f2062696700000000000000000000000000000000006000830152602082019050919050565b6000613c88601e83614e3b565b91507f536166654d6174683a207375627472616374696f6e206f766572666c6f7700006000830152602082019050919050565b6000613cc8601883614e3b565b91507f72656c6179206d616e61676572206e6f74207374616b656400000000000000006000830152602082019050919050565b6000613d08602783614e3b565b91507f72656c617920776f726b65722063616e6e6f74206265206120736d617274206360008301527f6f6e7472616374000000000000000000000000000000000000000000000000006020830152604082019050919050565b6000613d6e601a83614e3b565b91507f536166654d6174683a206469766973696f6e206279207a65726f0000000000006000830152602082019050919050565b6000613dae601083614e3b565b91507f6e6f2072656c617920776f726b657273000000000000000000000000000000006000830152602082019050919050565b6000613dee600d83614e3b565b91507f4e6f742070656e616c697a6572000000000000000000000000000000000000006000830152602082019050919050565b6000613e2e605283614e4c565b91507f454950373132446f6d61696e28737472696e67206e616d652c737472696e672060008301527f76657273696f6e2c75696e7432353620636861696e49642c616464726573732060208301527f766572696679696e67436f6e74726163742900000000000000000000000000006040830152605282019050919050565b6000613eba602183614e3b565b91507f536166654d6174683a206d756c7469706c69636174696f6e206f766572666c6f60008301527f77000000000000000000000000000000000000000000000000000000000000006020830152604082019050919050565b6000613f20601083614e3b565b91507f746f6f206d616e7920776f726b657273000000000000000000000000000000006000830152602082019050919050565b6000613f60601283614e3b565b91507f696e73756666696369656e742066756e647300000000000000000000000000006000830152602082019050919050565b6000613fa0601283614e3b565b91507f4e6f74206120726967687420776f726b657200000000000000000000000000006000830152602082019050919050565b6000613fe0601983614e3b565b91507f5061796d61737465722062616c616e636520746f6f206c6f77000000000000006000830152602082019050919050565b6000614020601a83614e3b565b91507f726561644279746573343a206461746120746f6f2073686f72740000000000006000830152602082019050919050565b6000614060601483614e3b565b91507f556e6b6e6f776e2072656c617920776f726b65720000000000000000000000006000830152602082019050919050565b600060c083016140a66000840184614e57565b6140b360008601826136f0565b506140c16020840184614e57565b6140ce60208601826136f0565b506140dc6040840184614f0e565b6140e96040860182614451565b506140f76060840184614f0e565b6141046060860182614451565b506141126080840184614f0e565b61411f6080860182614451565b5061412d60a0840184614e6e565b85830360a0870152614140838284613798565b925050508091505092915050565b600060c08301600083015161416660008601826136f0565b50602083015161417960208601826136f0565b50604083015161418c6040860182614451565b50606083015161419f6060860182614451565b5060808301516141b26080860182614451565b5060a083015184820360a08601526141ca8282613817565b9150508091505092915050565b6060820160008201516141ed6000850182614451565b5060208201516142006020850182614451565b5060408201516142136040850182614451565b50505050565b6000610100830161422d6000840184614f0e565b61423a6000860182614451565b506142486020840184614f0e565b6142556020860182614451565b506142636040840184614f0e565b6142706040860182614451565b5061427e6060840184614e57565b61428b60608601826136f0565b506142996080840184614e57565b6142a660808601826136f0565b506142b460a0840184614e6e565b85830360a08701526142c7838284613798565b925050506142d860c0840184614f0e565b6142e560c0860182614451565b506142f360e0840184614e57565b61430060e08601826136f0565b508091505092915050565b6000610100830161431f6000840184614f0e565b61432c6000860182614451565b5061433a6020840184614f0e565b6143476020860182614451565b506143556040840184614f0e565b6143626040860182614451565b506143706060840184614e57565b61437d60608601826136f0565b5061438b6080840184614e57565b61439860808601826136f0565b506143a660a0840184614e6e565b85830360a08701526143b9838284613798565b925050506143ca60c0840184614f0e565b6143d760c0860182614451565b506143e560e0840184614e57565b6143f260e08601826136f0565b508091505092915050565b6000604083016144106000840184614ec5565b84820360008601526144228282614093565b9150506144326020840184614ee9565b84820360208601526144448282614219565b9150508091505092915050565b61445a81614fbe565b82525050565b61446981614fbe565b82525050565b600061447c8284866137f2565b91508190509392505050565b60006144948284613889565b915081905092915050565b60006144ab828661393e565b91506144b682613b55565b91506144c2828561393e565b91506144cd82613a95565b91506144d9828461393e565b9150819050949350505050565b60006144f182613ad5565b91506144fd8284613889565b915081905092915050565b600061451382613e21565b9150819050919050565b600060208201905061453260008301846136ff565b92915050565b600060a08201905061454d60008301886136ff565b61455a60208301876136d2565b6145676040830186613789565b6145746060830185614460565b81810360808301526145868184613850565b90509695505050505050565b60006060820190506145a760008301866136ff565b6145b460208301856136e1565b6145c16040830184614460565b949350505050565b600060a0820190506145de60008301886136ff565b6145eb60208301876136ff565b6145f86040830186613789565b61460560608301856138c9565b6146126080830184614460565b9695505050505050565b600060808201905061463160008301876136ff565b61463e60208301866136ff565b61464b6040830185614460565b6146586060830184614460565b95945050505050565b6000604082019050818103600083015261467c81858761370e565b905061468b6020830184614460565b949350505050565b60006020820190506146a8600083018461376b565b92915050565b60006040820190506146c3600083018561376b565b81810360208301526146d58184613850565b90509392505050565b60006020820190506146f3600083018461377a565b92915050565b600060a08201905061470e600083018861377a565b61471b602083018761377a565b614728604083018661377a565b6147356060830185614460565b61474260808301846136ff565b9695505050505050565b600061012082019050614762600083018c61377a565b61476f602083018b614460565b61477c604083018a614460565b6147896060830189614460565b61479660808301886136ff565b6147a360a08301876136ff565b6147b060c08301866136ff565b6147bd60e083018561377a565b6147cb610100830184614460565b9a9950505050505050505050565b600060808201905081810360008301526147f38187613850565b9050614802602083018661376b565b61480f6040830185614460565b8181036060830152614821818461430b565b905095945050505050565b600060208201905061484160008301846138ba565b92915050565b600060408201905061485c60008301856138c9565b818103602083015261486e8184613850565b90509392505050565b600060208201905081810360008301526148918184613905565b905092915050565b600060208201905081810360008301526148b28161396f565b9050919050565b600060208201905081810360008301526148d2816139af565b9050919050565b600060208201905081810360008301526148f2816139ef565b9050919050565b6000602082019050818103600083015261491281613a55565b9050919050565b6000602082019050818103600083015261493281613b15565b9050919050565b6000602082019050818103600083015261495281613b95565b9050919050565b6000602082019050818103600083015261497281613bd5565b9050919050565b6000602082019050818103600083015261499281613c3b565b9050919050565b600060208201905081810360008301526149b281613c7b565b9050919050565b600060208201905081810360008301526149d281613cbb565b9050919050565b600060208201905081810360008301526149f281613cfb565b9050919050565b60006020820190508181036000830152614a1281613d61565b9050919050565b60006020820190508181036000830152614a3281613da1565b9050919050565b60006020820190508181036000830152614a5281613de1565b9050919050565b60006020820190508181036000830152614a7281613ead565b9050919050565b60006020820190508181036000830152614a9281613f13565b9050919050565b60006020820190508181036000830152614ab281613f53565b9050919050565b60006020820190508181036000830152614ad281613f93565b9050919050565b60006020820190508181036000830152614af281613fd3565b9050919050565b60006020820190508181036000830152614b1281614013565b9050919050565b60006020820190508181036000830152614b3281614053565b9050919050565b600060a0820190508181036000830152614b53818961414e565b9050614b62602083018861377a565b614b6f604083018761377a565b8181036060830152614b818186613850565b90508181036080830152614b968184866137c5565b9050979650505050505050565b6000610100820190508181036000830152614bbe818b6143fd565b90508181036020830152614bd381898b6137c5565b90508181036040830152614be88187896137c5565b9050614bf760608301866141d7565b614c0460c0830185614460565b614c1160e0830184614460565b9998505050505050505050565b60006080820190508181036000830152614c3881896143fd565b90508181036020830152614c4d8187896137c5565b90508181036040830152614c628185876137c5565b9050614c716060830184614460565b979650505050505050565b6000602082019050614c916000830184614460565b92915050565b6000606082019050614cac6000830187614460565b614cb96020830186614460565b8181036040830152614ccc8184866138d8565b905095945050505050565b60008083356001602003843603038112614cf057600080fd5b80840192508235915067ffffffffffffffff821115614d0e57600080fd5b602083019250600182023603831315614d2657600080fd5b509250929050565b60008235600160c003833603038112614d4657600080fd5b80830191505092915050565b60008235600161010003833603038112614d6b57600080fd5b80830191505092915050565b6000604051905081810181811067ffffffffffffffff82111715614d9a57600080fd5b8060405250919050565b600067ffffffffffffffff821115614dbb57600080fd5b601f19601f8301169050602081019050919050565b6000819050919050565b600081519050919050565b600081519050919050565b6000602082019050919050565b600082825260208201905092915050565b600082825260208201905092915050565b600082825260208201905092915050565b600081905092915050565b600082825260208201905092915050565b600081905092915050565b6000614e666020840184612f0e565b905092915050565b60008083356001602003843603038112614e8757600080fd5b83810192508235915060208301925067ffffffffffffffff821115614eab57600080fd5b600182023603841315614ebd57600080fd5b509250929050565b60008235600160c003833603038112614edd57600080fd5b82810191505092915050565b60008235600161010003833603038112614f0257600080fd5b82810191505092915050565b6000614f1d60208401846131cf565b905092915050565b6000614f3082614f9e565b9050919050565b6000614f4282614f9e565b9050919050565b60008115159050919050565b6000819050919050565b60007fffffffff0000000000000000000000000000000000000000000000000000000082169050919050565b6000819050614f9982615087565b919050565b600073ffffffffffffffffffffffffffffffffffffffff82169050919050565b6000819050919050565b6000614fd382615010565b9050919050565b6000614fe582614fec565b9050919050565b6000614ff782614f9e565b9050919050565b600061500982614f8b565b9050919050565b600061501b82615022565b9050919050565b600061502d82614f9e565b9050919050565b82818337600083830152505050565b60005b83811015615061578082015181840152602081019050615046565b83811115615070576000848401525b50505050565b6000601f19601f8301169050919050565b6007811061509157fe5b50565b61509d81614f25565b81146150a857600080fd5b50565b6150b481614f37565b81146150bf57600080fd5b50565b6150cb81614f49565b81146150d657600080fd5b50565b600781106150e657600080fd5b50565b6150f281614fbe565b81146150fd57600080fd5b5056fe52656c6179446174612875696e743235362067617350726963652c75696e743235362070637452656c61794665652c75696e74323536206261736552656c61794665652c616464726573732072656c6179576f726b65722c61646472657373207061796d61737465722c6164647265737320666f727761726465722c6279746573207061796d6173746572446174612c75696e7432353620636c69656e74496429616464726573732066726f6d2c6164647265737320746f2c75696e743235362076616c75652c75696e74323536206761732c75696e74323536206e6f6e63652c62797465732064617461a2646970667358221220b664595cc89748b2805d485031875eff6f6c6230db71a6e1b796049240accf5d64736f6c634300060a0033",
  "immutableReferences": {},
  "source": "/* solhint-disable avoid-low-level-calls */\n/* solhint-disable no-inline-assembly */\n/* solhint-disable not-rely-on-time */\n/* solhint-disable avoid-tx-origin */\n/* solhint-disable bracket-align */\n// SPDX-License-Identifier:MIT\npragma solidity ^0.6.9;\npragma experimental ABIEncoderV2;\n\nimport \"./utils/MinLibBytes.sol\";\nimport \"@openzeppelin/contracts/math/SafeMath.sol\";\n\nimport \"./utils/GsnUtils.sol\";\nimport \"./utils/GsnEip712Library.sol\";\nimport \"./interfaces/GsnTypes.sol\";\nimport \"./interfaces/IRelayHub.sol\";\nimport \"./interfaces/IPaymaster.sol\";\nimport \"./forwarder/IForwarder.sol\";\nimport \"./interfaces/IStakeManager.sol\";\n\ncontract RelayHub is IRelayHub {\n    using SafeMath for uint256;\n\n    string public override versionHub = \"2.0.0+opengsn.hub.irelayhub\";\n\n    uint256 public override minimumStake;\n    uint256 public override minimumUnstakeDelay;\n    uint256 public override maximumRecipientDeposit;\n    uint256 public override gasOverhead;\n    uint256 public override postOverhead;\n    uint256 public override gasReserve;\n    uint256 public override maxWorkerCount;\n    IStakeManager override public stakeManager;\n    address override public penalizer;\n\n    // maps relay worker's address to its manager's address\n    mapping(address => address) public override workerToManager;\n\n    // maps relay managers to the number of their workers\n    mapping(address => uint256) public override workerCount;\n\n    mapping(address => uint256) private balances;\n\n    constructor (\n        IStakeManager _stakeManager,\n        address _penalizer,\n        uint256 _maxWorkerCount,\n        uint256 _gasReserve,\n        uint256 _postOverhead,\n        uint256 _gasOverhead,\n        uint256 _maximumRecipientDeposit,\n        uint256 _minimumUnstakeDelay,\n        uint256 _minimumStake\n    ) public {\n        stakeManager = _stakeManager;\n        penalizer = _penalizer;\n        maxWorkerCount = _maxWorkerCount;\n        gasReserve = _gasReserve;\n        postOverhead = _postOverhead;\n        gasOverhead = _gasOverhead;\n        maximumRecipientDeposit = _maximumRecipientDeposit;\n        minimumUnstakeDelay = _minimumUnstakeDelay;\n        minimumStake =  _minimumStake;\n    }\n\n    function registerRelayServer(uint256 baseRelayFee, uint256 pctRelayFee, string calldata url) external override {\n        address relayManager = msg.sender;\n        require(\n            isRelayManagerStaked(relayManager),\n            \"relay manager not staked\"\n        );\n        require(workerCount[relayManager] > 0, \"no relay workers\");\n        emit RelayServerRegistered(relayManager, baseRelayFee, pctRelayFee, url);\n    }\n\n    function addRelayWorkers(address[] calldata newRelayWorkers) external override {\n        address relayManager = msg.sender;\n        workerCount[relayManager] = workerCount[relayManager] + newRelayWorkers.length;\n        require(workerCount[relayManager] <= maxWorkerCount, \"too many workers\");\n\n        require(\n            isRelayManagerStaked(relayManager),\n            \"relay manager not staked\"\n        );\n\n        for (uint256 i = 0; i < newRelayWorkers.length; i++) {\n            require(workerToManager[newRelayWorkers[i]] == address(0), \"this worker has a manager\");\n            workerToManager[newRelayWorkers[i]] = relayManager;\n        }\n\n        emit RelayWorkersAdded(relayManager, newRelayWorkers, workerCount[relayManager]);\n    }\n\n    function depositFor(address target) public override payable {\n        uint256 amount = msg.value;\n        require(amount <= maximumRecipientDeposit, \"deposit too big\");\n\n        balances[target] = balances[target].add(amount);\n\n        emit Deposited(target, msg.sender, amount);\n    }\n\n    function balanceOf(address target) external override view returns (uint256) {\n        return balances[target];\n    }\n\n    function withdraw(uint256 amount, address payable dest) public override {\n        address payable account = msg.sender;\n        require(balances[account] >= amount, \"insufficient funds\");\n\n        balances[account] = balances[account].sub(amount);\n        dest.transfer(amount);\n\n        emit Withdrawn(account, dest, amount);\n    }\n\n    function verifyGasLimits(\n        uint256 paymasterMaxAcceptanceBudget,\n        GsnTypes.RelayRequest calldata relayRequest,\n        uint256 initialGas\n    )\n    private\n    view\n    returns (IPaymaster.GasLimits memory gasLimits, uint256 maxPossibleGas) {\n        gasLimits =\n            IPaymaster(relayRequest.relayData.paymaster).getGasLimits{gas:50000}();\n\n        require(paymasterMaxAcceptanceBudget >= gasLimits.acceptanceBudget, \"unexpected high acceptanceBudget\");\n\n        maxPossibleGas =\n            gasOverhead.add(\n            gasLimits.preRelayedCallGasLimit).add(\n            gasLimits.postRelayedCallGasLimit).add(\n            relayRequest.request.gas);\n\n        // This transaction must have enough gas to forward the call to the recipient with the requested amount, and not\n        // run out of gas later in this function.\n        require(\n            initialGas >= maxPossibleGas,\n            \"Not enough gas left for innerRelayCall to complete\");\n\n        uint256 maxPossibleCharge = calculateCharge(\n            maxPossibleGas,\n            relayRequest.relayData\n        );\n\n        // We don't yet know how much gas will be used by the recipient, so we make sure there are enough funds to pay\n        // for the maximum possible charge.\n        require(maxPossibleCharge <= balances[relayRequest.relayData.paymaster],\n            \"Paymaster balance too low\");\n    }\n\n    struct RelayCallData {\n        bool success;\n        bytes4 functionSelector;\n        bytes recipientContext;\n        bytes relayedCallReturnValue;\n        IPaymaster.GasLimits gasLimits;\n        RelayCallStatus status;\n        uint256 innerGasUsed;\n        uint256 maxPossibleGas;\n        uint256 gasBeforeInner;\n        bytes retData;\n    }\n\n    function relayCall(\n        uint paymasterMaxAcceptanceBudget,\n        GsnTypes.RelayRequest calldata relayRequest,\n        bytes calldata signature,\n        bytes calldata approvalData,\n        uint externalGasLimit\n    )\n    external\n    override\n    returns (bool paymasterAccepted, bytes memory returnValue)\n    {\n        (signature);\n        RelayCallData memory vars;\n        vars.functionSelector = MinLibBytes.readBytes4(relayRequest.request.data, 0);\n        require(msg.sender == tx.origin, \"relay worker cannot be a smart contract\");\n        require(workerToManager[msg.sender] != address(0), \"Unknown relay worker\");\n        require(relayRequest.relayData.relayWorker == msg.sender, \"Not a right worker\");\n        require(\n            isRelayManagerStaked(workerToManager[msg.sender]),\n            \"relay manager not staked\"\n        );\n        require(relayRequest.relayData.gasPrice <= tx.gasprice, \"Invalid gas price\");\n        require(externalGasLimit <= block.gaslimit, \"Impossible gas limit\");\n\n        (vars.gasLimits, vars.maxPossibleGas) =\n             verifyGasLimits(paymasterMaxAcceptanceBudget, relayRequest, externalGasLimit);\n\n    {\n\n        //How much gas to pass down to innerRelayCall. must be lower than the default 63/64\n        // actually, min(gasleft*63/64, gasleft-GAS_RESERVE) might be enough.\n        uint256 innerGasLimit = gasleft()*63/64-gasReserve;\n        vars.gasBeforeInner = gasleft();\n\n        uint256 _tmpInitialGas = innerGasLimit + externalGasLimit + gasOverhead + postOverhead;\n        // Calls to the recipient are performed atomically inside an inner transaction which may revert in case of\n        // errors in the recipient. In either case (revert or regular execution) the return data encodes the\n        // RelayCallStatus value.\n        (bool success, bytes memory relayCallStatus) = address(this).call{gas:innerGasLimit}(\n            abi.encodeWithSelector(RelayHub.innerRelayCall.selector, relayRequest, signature, approvalData, vars.gasLimits,\n                _tmpInitialGas - gasleft(),\n                vars.maxPossibleGas\n                )\n        );\n        vars.success = success;\n        vars.innerGasUsed = vars.gasBeforeInner-gasleft();\n        (vars.status, vars.relayedCallReturnValue) = abi.decode(relayCallStatus, (RelayCallStatus, bytes));\n        if ( vars.relayedCallReturnValue.length>0 ) {\n            emit TransactionResult(vars.status, vars.relayedCallReturnValue);\n        }\n    }\n    {\n        if (!vars.success) {\n            //Failure cases where the PM doesn't pay\n            if ( (vars.innerGasUsed < vars.gasLimits.acceptanceBudget ) && (\n                    vars.status == RelayCallStatus.RejectedByPreRelayed ||\n                    vars.status == RelayCallStatus.RejectedByForwarder ||\n                    vars.status == RelayCallStatus.RejectedByRecipientRevert  //can only be thrown if rejectOnRecipientRevert==true\n            )) {\n                paymasterAccepted=false;\n\n                emit TransactionRejectedByPaymaster(\n                    workerToManager[msg.sender],\n                    relayRequest.relayData.paymaster,\n                    relayRequest.request.from,\n                    relayRequest.request.to,\n                    msg.sender,\n                    vars.functionSelector,\n                    vars.innerGasUsed,\n                    vars.relayedCallReturnValue);\n                return (false, vars.relayedCallReturnValue);\n            }\n        }\n        // We now perform the actual charge calculation, based on the measured gas used\n        uint256 gasUsed = (externalGasLimit - gasleft()) + gasOverhead;\n        uint256 charge = calculateCharge(gasUsed, relayRequest.relayData);\n\n        balances[relayRequest.relayData.paymaster] = balances[relayRequest.relayData.paymaster].sub(charge);\n        balances[workerToManager[msg.sender]] = balances[workerToManager[msg.sender]].add(charge);\n\n        emit TransactionRelayed(\n            workerToManager[msg.sender],\n            msg.sender,\n            relayRequest.request.from,\n            relayRequest.request.to,\n            relayRequest.relayData.paymaster,\n            vars.functionSelector,\n            vars.status,\n            charge);\n        return (true, \"\");\n    }\n    }\n\n    struct InnerRelayCallData {\n        uint256 balanceBefore;\n        bytes32 preReturnValue;\n        bool relayedCallSuccess;\n        bytes relayedCallReturnValue;\n        bytes recipientContext;\n        bytes data;\n        bool rejectOnRecipientRevert;\n    }\n\n    function innerRelayCall(\n        GsnTypes.RelayRequest calldata relayRequest,\n        bytes calldata signature,\n        bytes calldata approvalData,\n        IPaymaster.GasLimits calldata gasLimits,\n        uint256 totalInitialGas,\n        uint256 maxPossibleGas\n    )\n    external\n    returns (RelayCallStatus, bytes memory)\n    {\n        InnerRelayCallData memory vars;\n        // A new gas measurement is performed inside innerRelayCall, since\n        // due to EIP150 available gas amounts cannot be directly compared across external calls\n\n        // This external function can only be called by RelayHub itself, creating an internal transaction. Calls to the\n        // recipient (preRelayedCall, the relayedCall, and postRelayedCall) are called from inside this transaction.\n        require(msg.sender == address(this), \"Only RelayHub should call this function\");\n\n        // If either pre or post reverts, the whole internal transaction will be reverted, reverting all side effects on\n        // the recipient. The recipient will still be charged for the used gas by the relay.\n\n        // The recipient is no allowed to withdraw balance from RelayHub during a relayed transaction. We check pre and\n        // post state to ensure this doesn't happen.\n        vars.balanceBefore = balances[relayRequest.relayData.paymaster];\n\n        // First preRelayedCall is executed.\n        // Note: we open a new block to avoid growing the stack too much.\n        vars.data = abi.encodeWithSelector(\n            IPaymaster.preRelayedCall.selector,\n                relayRequest, signature, approvalData, maxPossibleGas\n        );\n        {\n            bool success;\n            bytes memory retData;\n            (success, retData) = relayRequest.relayData.paymaster.call{gas:gasLimits.preRelayedCallGasLimit}(vars.data);\n            if (!success) {\n                GsnEip712Library.truncateInPlace(retData);\n                revertWithStatus(RelayCallStatus.RejectedByPreRelayed, retData);\n            }\n            (vars.recipientContext, vars.rejectOnRecipientRevert) = abi.decode(retData, (bytes,bool));\n        }\n\n        // The actual relayed call is now executed. The sender's address is appended at the end of the transaction data\n\n        {\n            bool forwarderSuccess;\n            (forwarderSuccess, vars.relayedCallSuccess, vars.relayedCallReturnValue) = GsnEip712Library.execute(relayRequest, signature);\n            if ( !forwarderSuccess ) {\n                revertWithStatus(RelayCallStatus.RejectedByForwarder, vars.relayedCallReturnValue);\n            }\n\n            if (vars.rejectOnRecipientRevert && !vars.relayedCallSuccess) {\n                //we trusted the recipient, but it reverted...\n                revertWithStatus(RelayCallStatus.RejectedByRecipientRevert, vars.relayedCallReturnValue);\n            }\n        }\n        // Finally, postRelayedCall is executed, with the relayedCall execution's status and a charge estimate\n        // We now determine how much the recipient will be charged, to pass this value to postRelayedCall for accurate\n        // accounting.\n        vars.data = abi.encodeWithSelector(\n            IPaymaster.postRelayedCall.selector,\n            vars.recipientContext,\n            vars.relayedCallSuccess,\n            totalInitialGas - gasleft(), /*gasUseWithoutPost*/\n            relayRequest.relayData\n        );\n\n        {\n        (bool successPost,bytes memory ret) = relayRequest.relayData.paymaster.call{gas:gasLimits.postRelayedCallGasLimit}(vars.data);\n\n        if (!successPost) {\n            revertWithStatus(RelayCallStatus.PostRelayedFailed, ret);\n        }\n        }\n\n        if (balances[relayRequest.relayData.paymaster] < vars.balanceBefore) {\n            revertWithStatus(RelayCallStatus.PaymasterBalanceChanged, \"\");\n        }\n\n        return (vars.relayedCallSuccess ? RelayCallStatus.OK : RelayCallStatus.RelayedCallFailed, vars.relayedCallReturnValue);\n    }\n\n    /**\n     * @dev Reverts the transaction with return data set to the ABI encoding of the status argument (and revert reason data)\n     */\n    function revertWithStatus(RelayCallStatus status, bytes memory ret) private pure {\n        bytes memory data = abi.encode(status, ret);\n        GsnEip712Library.truncateInPlace(data);\n\n        assembly {\n            let dataSize := mload(data)\n            let dataPtr := add(data, 32)\n\n            revert(dataPtr, dataSize)\n        }\n    }\n\n    function calculateCharge(uint256 gasUsed, GsnTypes.RelayData calldata relayData) public override virtual view returns (uint256) {\n        //       relayData.baseRelayFee + (gasUsed * relayData.gasPrice * (100 + relayData.pctRelayFee)) / 100;\n        return relayData.baseRelayFee.add((gasUsed.mul(relayData.gasPrice).mul(relayData.pctRelayFee.add(100))).div(100));\n    }\n\n    function isRelayManagerStaked(address relayManager) public override view returns (bool) {\n        return stakeManager.isRelayManagerStaked(relayManager, address(this), minimumStake, minimumUnstakeDelay);\n    }\n\n    modifier penalizerOnly () {\n        require(msg.sender == penalizer, \"Not penalizer\");\n        _;\n    }\n\n    function penalize(address relayWorker, address payable beneficiary) external override penalizerOnly {\n        address relayManager = workerToManager[relayWorker];\n        // The worker must be controlled by a manager with a locked stake\n        require(relayManager != address(0), \"Unknown relay worker\");\n        require(\n            isRelayManagerStaked(relayManager),\n            \"relay manager not staked\"\n        );\n        IStakeManager.StakeInfo memory stakeInfo = stakeManager.getStakeInfo(relayManager);\n        stakeManager.penalizeRelayManager(relayManager, beneficiary, stakeInfo.stake);\n    }\n}\n",
  "sourcePath": "@opengsn/gsn/contracts/RelayHub.sol",
  "compiler": {
    "name": "solc",
    "version": "0.6.10+commit.00c0fcaf.Emscripten.clang"
  },
  "schemaVersion": "3.3.4",
  "updatedAt": "2021-04-06T08:58:48.053Z",
  "devdoc": {
    "methods": {}
  },
  "userdoc": {
    "methods": {}
  }
}