{
  "contractName": "TestMetaTransaction",
  "abi": [
    {
      "inputs": [
        {
          "internalType": "string",
          "name": "_name",
          "type": "string"
        },
        {
          "internalType": "string",
          "name": "_version",
          "type": "string"
        },
        {
          "internalType": "address",
          "name": "_pablockTokenAddress",
          "type": "address"
        },
        {
          "internalType": "address",
          "name": "_metaTxAddress",
          "type": "address"
        }
      ],
      "stateMutability": "nonpayable",
      "type": "constructor"
    },
    {
      "anonymous": false,
      "inputs": [
        {
          "indexed": false,
          "internalType": "bytes32",
          "name": "hash",
          "type": "bytes32"
        },
        {
          "indexed": false,
          "internalType": "string",
          "name": "uri",
          "type": "string"
        },
        {
          "indexed": false,
          "internalType": "address",
          "name": "applicant",
          "type": "address"
        }
      ],
      "name": "Notarize",
      "type": "event"
    },
    {
      "inputs": [],
      "name": "counter",
      "outputs": [
        {
          "internalType": "uint256",
          "name": "",
          "type": "uint256"
        }
      ],
      "stateMutability": "view",
      "type": "function"
    },
    {
      "inputs": [],
      "name": "increment",
      "outputs": [],
      "stateMutability": "nonpayable",
      "type": "function"
    },
    {
      "inputs": [],
      "name": "decrement",
      "outputs": [],
      "stateMutability": "nonpayable",
      "type": "function"
    },
    {
      "inputs": [
        {
          "internalType": "uint256",
          "name": "_counter",
          "type": "uint256"
        },
        {
          "internalType": "address",
          "name": "account",
          "type": "address"
        }
      ],
      "name": "setCounter",
      "outputs": [],
      "stateMutability": "nonpayable",
      "type": "function"
    },
    {
      "inputs": [],
      "name": "getCounter",
      "outputs": [
        {
          "internalType": "uint256",
          "name": "",
          "type": "uint256"
        }
      ],
      "stateMutability": "view",
      "type": "function"
    },
    {
      "inputs": [
        {
          "internalType": "bytes32",
          "name": "hash",
          "type": "bytes32"
        },
        {
          "internalType": "string",
          "name": "uri",
          "type": "string"
        },
        {
          "internalType": "address",
          "name": "applicant",
          "type": "address"
        }
      ],
      "name": "notarize",
      "outputs": [],
      "stateMutability": "nonpayable",
      "type": "function"
    }
  ],
  "bytecode": "0x608060405260006003553480156200001657600080fd5b50604051620010233803806200102383398181016040528101906200003c919062000427565b83838282600090805190602001906200005792919062000175565b5081600190805190602001906200007092919062000175565b5080600260006101000a81548173ffffffffffffffffffffffffffffffffffffffff021916908373ffffffffffffffffffffffffffffffffffffffff1602179055508073ffffffffffffffffffffffffffffffffffffffff1663fc83158160006001306040518463ffffffff1660e01b8152600401620000f393929190620005ff565b600060405180830381600087803b1580156200010e57600080fd5b505af115801562000123573d6000803e3d6000fd5b5050505050505081600460006101000a81548173ffffffffffffffffffffffffffffffffffffffff021916908373ffffffffffffffffffffffffffffffffffffffff160217905550505050506200064a565b828054620001839062000506565b90600052602060002090601f016020900481019282620001a75760008555620001f3565b82601f10620001c257805160ff1916838001178555620001f3565b82800160010185558215620001f3579182015b82811115620001f2578251825591602001919060010190620001d5565b5b50905062000202919062000206565b5090565b5b808211156200022157600081600090555060010162000207565b5090565b6000604051905090565b600080fd5b600080fd5b600080fd5b600080fd5b6000601f19601f8301169050919050565b7f4e487b7100000000000000000000000000000000000000000000000000000000600052604160045260246000fd5b6200028e8262000243565b810181811067ffffffffffffffff82111715620002b057620002af62000254565b5b80604052505050565b6000620002c562000225565b9050620002d3828262000283565b919050565b600067ffffffffffffffff821115620002f657620002f562000254565b5b620003018262000243565b9050602081019050919050565b60005b838110156200032e57808201518184015260208101905062000311565b838111156200033e576000848401525b50505050565b60006200035b6200035584620002d8565b620002b9565b9050828152602081018484840111156200037a57620003796200023e565b5b620003878482856200030e565b509392505050565b600082601f830112620003a757620003a662000239565b5b8151620003b984826020860162000344565b91505092915050565b600073ffffffffffffffffffffffffffffffffffffffff82169050919050565b6000620003ef82620003c2565b9050919050565b6200040181620003e2565b81146200040d57600080fd5b50565b6000815190506200042181620003f6565b92915050565b600080600080608085870312156200044457620004436200022f565b5b600085015167ffffffffffffffff81111562000465576200046462000234565b5b62000473878288016200038f565b945050602085015167ffffffffffffffff81111562000497576200049662000234565b5b620004a5878288016200038f565b9350506040620004b88782880162000410565b9250506060620004cb8782880162000410565b91505092959194509250565b7f4e487b7100000000000000000000000000000000000000000000000000000000600052602260045260246000fd5b600060028204905060018216806200051f57607f821691505b60208210811415620005365762000535620004d7565b5b50919050565b600082825260208201905092915050565b60008190508160005260206000209050919050565b60008154620005718162000506565b6200057d81866200053c565b945060018216600081146200059b5760018114620005ae57620005e5565b60ff1983168652602086019350620005e5565b620005b9856200054d565b60005b83811015620005dd57815481890152600182019150602081019050620005bc565b808801955050505b50505092915050565b620005f981620003e2565b82525050565b600060608201905081810360008301526200061b818662000562565b9050818103602083015262000631818562000562565b9050620006426040830184620005ee565b949350505050565b6109c9806200065a6000396000f3fe608060405234801561001057600080fd5b50600436106100625760003560e01c80632baeceb71461006757806361bc221a146100715780637244f2491461008f578063853104f5146100ab5780638ada066e146100c7578063d09de08a146100e5575b600080fd5b61006f6100ef565b005b610079610106565b60405161008691906103cf565b60405180910390f35b6100a960048036038101906100a49190610488565b61010c565b005b6100c560048036038101906100c09190610644565b6101ed565b005b6100cf610395565b6040516100dc91906103cf565b60405180910390f35b6100ed61039f565b005b60016003546100fe91906106e2565b600381905550565b60035481565b600460009054906101000a900473ffffffffffffffffffffffffffffffffffffffff1673ffffffffffffffffffffffffffffffffffffffff1663dd99464a306000357fffffffff0000000000000000000000000000000000000000000000000000000016846040518463ffffffff1660e01b815260040161018f93929190610760565b602060405180830381600087803b1580156101a957600080fd5b505af11580156101bd573d6000803e3d6000fd5b505050506040513d601f19601f820116820180604052508101906101e191906107cf565b50816003819055505050565b600073ffffffffffffffffffffffffffffffffffffffff16600260009054906101000a900473ffffffffffffffffffffffffffffffffffffffff1673ffffffffffffffffffffffffffffffffffffffff16141561027f576040517f08c379a000000000000000000000000000000000000000000000000000000000815260040161027690610859565b60405180910390fd5b600460009054906101000a900473ffffffffffffffffffffffffffffffffffffffff1673ffffffffffffffffffffffffffffffffffffffff1663dd99464a306000357fffffffff0000000000000000000000000000000000000000000000000000000016846040518463ffffffff1660e01b815260040161030293929190610760565b602060405180830381600087803b15801561031c57600080fd5b505af1158015610330573d6000803e3d6000fd5b505050506040513d601f19601f8201168201806040525081019061035491906107cf565b507fcecea9efc598020c77eb53686b008e1244e9e7ed8f291cb5f38f2401d64c870c838383604051610388939291906108ff565b60405180910390a1505050565b6000600354905090565b60016003546103ae919061093d565b600381905550565b6000819050919050565b6103c9816103b6565b82525050565b60006020820190506103e460008301846103c0565b92915050565b6000604051905090565b600080fd5b600080fd5b610407816103b6565b811461041257600080fd5b50565b600081359050610424816103fe565b92915050565b600073ffffffffffffffffffffffffffffffffffffffff82169050919050565b60006104558261042a565b9050919050565b6104658161044a565b811461047057600080fd5b50565b6000813590506104828161045c565b92915050565b6000806040838503121561049f5761049e6103f4565b5b60006104ad85828601610415565b92505060206104be85828601610473565b9150509250929050565b6000819050919050565b6104db816104c8565b81146104e657600080fd5b50565b6000813590506104f8816104d2565b92915050565b600080fd5b600080fd5b6000601f19601f8301169050919050565b7f4e487b7100000000000000000000000000000000000000000000000000000000600052604160045260246000fd5b61055182610508565b810181811067ffffffffffffffff821117156105705761056f610519565b5b80604052505050565b60006105836103ea565b905061058f8282610548565b919050565b600067ffffffffffffffff8211156105af576105ae610519565b5b6105b882610508565b9050602081019050919050565b82818337600083830152505050565b60006105e76105e284610594565b610579565b90508281526020810184848401111561060357610602610503565b5b61060e8482856105c5565b509392505050565b600082601f83011261062b5761062a6104fe565b5b813561063b8482602086016105d4565b91505092915050565b60008060006060848603121561065d5761065c6103f4565b5b600061066b868287016104e9565b935050602084013567ffffffffffffffff81111561068c5761068b6103f9565b5b61069886828701610616565b92505060406106a986828701610473565b9150509250925092565b7f4e487b7100000000000000000000000000000000000000000000000000000000600052601160045260246000fd5b60006106ed826103b6565b91506106f8836103b6565b92508282101561070b5761070a6106b3565b5b828203905092915050565b61071f8161044a565b82525050565b60007fffffffff0000000000000000000000000000000000000000000000000000000082169050919050565b61075a81610725565b82525050565b60006060820190506107756000830186610716565b6107826020830185610751565b61078f6040830184610716565b949350505050565b60008115159050919050565b6107ac81610797565b81146107b757600080fd5b50565b6000815190506107c9816107a3565b92915050565b6000602082840312156107e5576107e46103f4565b5b60006107f3848285016107ba565b91505092915050565b600082825260208201905092915050565b7f436f6e7472616374206e6f7420696e697469616c697a65640000000000000000600082015250565b60006108436018836107fc565b915061084e8261080d565b602082019050919050565b6000602082019050818103600083015261087281610836565b9050919050565b610882816104c8565b82525050565b600081519050919050565b60005b838110156108b1578082015181840152602081019050610896565b838111156108c0576000848401525b50505050565b60006108d182610888565b6108db81856107fc565b93506108eb818560208601610893565b6108f481610508565b840191505092915050565b60006060820190506109146000830186610879565b818103602083015261092681856108c6565b90506109356040830184610716565b949350505050565b6000610948826103b6565b9150610953836103b6565b9250827fffffffffffffffffffffffffffffffffffffffffffffffffffffffffffffffff03821115610988576109876106b3565b5b82820190509291505056fea26469706673582212202f0803ba44ccec15f23a4ed056d37be192b5613994d63b7096caa5a37570a15c64736f6c63430008090033",
  "immutableReferences": {},
  "source": "// SPDX-License-Identifier: MIT\npragma solidity ^0.8.9;\n\nimport \"../EIP712MetaTransaction.sol\";\nimport \"../PablockToken.sol\";\n\nimport \"../PablockMetaTxReceiver.sol\";\n\ncontract TestMetaTransaction is PablockMetaTxReceiver {\n    uint256 public counter = 0;\n    address private pablockTokenAddress;\n\n    event Notarize(bytes32 hash, string uri, address applicant);\n\n    constructor(string memory _name, string memory _version, address _pablockTokenAddress, address _metaTxAddress) public PablockMetaTxReceiver(_name, _version, _metaTxAddress){\n        pablockTokenAddress = _pablockTokenAddress;\n    }\n\n    function increment() public {\n        // PablockToken(pablockTokenAddress).receiveAndBurn(address(this), msg.sig, applicant);\n        counter = counter + 1;\n    }\n\n    function decrement() public {\n        counter = counter - 1;\n    }\n\n    function setCounter(uint256 _counter, address account) public {\n        PablockToken(pablockTokenAddress).receiveAndBurn(address(this), msg.sig, account );\n        counter = _counter;\n    }\n\n    function getCounter() public view returns (uint256) {\n        return counter;\n    }\n\n    function notarize(bytes32 hash, string memory uri, address applicant) public initialized {\n        PablockToken(pablockTokenAddress).receiveAndBurn(address(this), msg.sig, applicant);\n        emit Notarize(hash, uri, applicant);\n    }\n}\n",
  "sourcePath": "/home/riccardo/WorkspaceLavoro/pablock/pablock-smartcontracts/contracts/custom/TestMetaTransaction.sol",
  "compiler": {
    "name": "solc",
    "version": "0.8.9+commit.e5eed63a.Emscripten.clang"
  },
  "schemaVersion": "3.3.4",
  "updatedAt": "2021-12-06T18:55:25.167Z",
  "devdoc": {
    "kind": "dev",
    "methods": {},
    "version": 1
  },
  "userdoc": {
    "kind": "user",
    "methods": {},
    "version": 1
  }
}